FUNC    out pointer      in pointer       alloc size       fill num        END
MALLOC  000002B7C837D6E0 0000000000000000 0000000000000018 0000000000000000
MALLOC  000002B7C837D700 0000000000000000 0000000000000018 0000000000000000
MALLOC  000002B7C837D5E0 0000000000000000 0000000000000018 0000000000000000
MALLOC  000002B7C837D640 0000000000000000 0000000000000018 0000000000000000
MALLOC  000002B7C837D620 0000000000000000 0000000000000018 0000000000000000
MALLOC  000002B7C837D780 0000000000000000 0000000000000018 0000000000000000
MALLOC  000002B7C837D660 0000000000000000 0000000000000018 0000000000000000
MALLOC  000002B7C837D900 0000000000000000 0000000000000018 0000000000000000
MALLOC  000002B7C837D720 0000000000000000 0000000000000018 0000000000000000
MALLOC  000002B7C837D6A0 0000000000000000 0000000000000018 0000000000000000
MALLOC  000002B7C837D8C0 0000000000000000 0000000000000018 0000000000000000
MALLOC  000002B7C837D7A0 0000000000000000 0000000000000018 0000000000000000
MALLOC  000002B7C837D6C0 0000000000000000 0000000000000018 0000000000000000
MALLOC  000002B7C837D740 0000000000000000 0000000000000018 0000000000000000
MALLOC  000002B7C837D7C0 0000000000000000 0000000000000018 0000000000000000
MALLOC  000002B7C837D7E0 0000000000000000 0000000000000018 0000000000000000
MALLOC  000002B7C837D820 0000000000000000 0000000000000018 0000000000000000
MALLOC  000002B7C837D840 0000000000000000 0000000000000018 0000000000000000
MALLOC  000002B7C837D860 0000000000000000 0000000000000018 0000000000000000
MALLOC  000002B7C837D880 0000000000000000 0000000000000018 0000000000000000
MALLOC  000002B7C837D8E0 0000000000000000 0000000000000018 0000000000000000
MALLOC  000002B7C837D8A0 0000000000000000 0000000000000018 0000000000000000
MALLOC  000002B7C837D920 0000000000000000 0000000000000018 0000000000000000
MALLOC  000002B7C837D5C0 0000000000000000 0000000000000018 0000000000000000
MALLOC  000002B7C837D5A0 0000000000000000 0000000000000018 0000000000000000
MALLOC  000002B7C8381AD0 0000000000000000 0000000000000018 0000000000000000
MALLOC  000002B7C8381BB0 0000000000000000 0000000000000018 0000000000000000
MALLOC  000002B7C8381670 0000000000000000 0000000000000018 0000000000000000
MALLOC  000002B7C8381990 0000000000000000 0000000000000018 0000000000000000
MALLOC  000002B7C8381D10 0000000000000000 0000000000000018 0000000000000000
MALLOC  000002B7C8381D50 0000000000000000 0000000000000018 0000000000000000
MALLOC  000002B7C8381D90 0000000000000000 0000000000000018 0000000000000000
MALLOC  000002B7C83817B0 0000000000000000 0000000000000018 0000000000000000
MALLOC  000002B7C8381790 0000000000000000 0000000000000018 0000000000000000
MALLOC  000002B7C83816B0 0000000000000000 0000000000000018 0000000000000000
MALLOC  000002B7C8381630 0000000000000000 0000000000000018 0000000000000000
MALLOC  000002B7C8381B70 0000000000000000 0000000000000018 0000000000000000
MALLOC  000002B7C8381B10 0000000000000000 0000000000000018 0000000000000000
MALLOC  000002B7C8381C70 0000000000000000 0000000000000018 0000000000000000
MALLOC  000002B7C83818F0 0000000000000000 0000000000000018 0000000000000000
MALLOC  000002B7C8381AF0 0000000000000000 0000000000000018 0000000000000000
MALLOC  000002B7C8381B30 0000000000000000 0000000000000018 0000000000000000
MALLOC  000002B7C8381750 0000000000000000 0000000000000018 0000000000000000
MALLOC  000002B7C83817D0 0000000000000000 0000000000000018 0000000000000000
MALLOC  000002B7C8381C50 0000000000000000 0000000000000018 0000000000000000
MALLOC  000002B7C8381C90 0000000000000000 0000000000000018 0000000000000000
MALLOC  000002B7C8381A70 0000000000000000 0000000000000018 0000000000000000
MALLOC  000002B7C8381690 0000000000000000 0000000000000018 0000000000000000
MALLOC  000002B7C8381CB0 0000000000000000 0000000000000018 0000000000000000
MALLOC  000002B7C8381C10 0000000000000000 0000000000000018 0000000000000000
MALLOC  000002B7C8381B50 0000000000000000 0000000000000018 0000000000000000
MALLOC  000002B7C8381A50 0000000000000000 0000000000000018 0000000000000000
MALLOC  000002B7C8381A10 0000000000000000 0000000000000018 0000000000000000
MALLOC  000002B7C8381DB0 0000000000000000 0000000000000018 0000000000000000
MALLOC  000002B7C8381890 0000000000000000 0000000000000018 0000000000000000
MALLOC  000002B7C83818D0 0000000000000000 0000000000000018 0000000000000000
MALLOC  000002B7C83817F0 0000000000000000 0000000000000018 0000000000000000
MALLOC  000002B7C8381B90 0000000000000000 0000000000000018 0000000000000000
MALLOC  000002B7C83819D0 0000000000000000 0000000000000018 0000000000000000
MALLOC  000002B7C8381A30 0000000000000000 0000000000000018 0000000000000000
MALLOC  000002B7C8381830 0000000000000000 0000000000000018 0000000000000000
MALLOC  000002B7C8381CD0 0000000000000000 0000000000000018 0000000000000000
MALLOC  000002B7C8381CF0 0000000000000000 0000000000000018 0000000000000000
MALLOC  000002B7C8381A90 0000000000000000 0000000000000018 0000000000000000
MALLOC  000002B7C8381D30 0000000000000000 0000000000000018 0000000000000000
MALLOC  000002B7C8381D70 0000000000000000 0000000000000018 0000000000000000
MALLOC  000002B7C8381AB0 0000000000000000 0000000000000018 0000000000000000
MALLOC  000002B7C8381BD0 0000000000000000 0000000000000018 0000000000000000
MALLOC  000002B7C8381730 0000000000000000 0000000000000018 0000000000000000
MALLOC  000002B7C8381810 0000000000000000 0000000000000018 0000000000000000
MALLOC  000002B7C8381650 0000000000000000 0000000000000018 0000000000000000
MALLOC  000002B7C8381950 0000000000000000 0000000000000018 0000000000000000
MALLOC  000002B7C8381850 0000000000000000 0000000000000018 0000000000000000
MALLOC  000002B7C83816D0 0000000000000000 0000000000000018 0000000000000000
MALLOC  000002B7C8381910 0000000000000000 0000000000000018 0000000000000000
MALLOC  000002B7C8381870 0000000000000000 0000000000000018 0000000000000000
MALLOC  000002B7C83819F0 0000000000000000 0000000000000018 0000000000000000
MALLOC  000002B7C8381BF0 0000000000000000 0000000000000018 0000000000000000
MALLOC  000002B7C8381970 0000000000000000 0000000000000018 0000000000000000
MALLOC  000002B7C8381C30 0000000000000000 0000000000000018 0000000000000000
MALLOC  000002B7C83816F0 0000000000000000 0000000000000018 0000000000000000
MALLOC  000002B7C83819B0 0000000000000000 0000000000000018 0000000000000000
MALLOC  000002B7C8381710 0000000000000000 0000000000000018 0000000000000000
MALLOC  000002B7C8381770 0000000000000000 0000000000000018 0000000000000000
MALLOC  000002B7C83818B0 0000000000000000 0000000000000018 0000000000000000
MALLOC  000002B7C8381930 0000000000000000 0000000000000018 0000000000000000
MALLOC  000002B7C8381FA0 0000000000000000 0000000000000018 0000000000000000
MALLOC  000002B7C8381FC0 0000000000000000 0000000000000018 0000000000000000
MALLOC  000002B7C83821A0 0000000000000000 0000000000000018 0000000000000000
MALLOC  000002B7C8382320 0000000000000000 0000000000000018 0000000000000000
MALLOC  000002B7C83825A0 0000000000000000 0000000000000018 0000000000000000
MALLOC  000002B7C8381F00 0000000000000000 0000000000000018 0000000000000000
MALLOC  000002B7C8382160 0000000000000000 0000000000000018 0000000000000000
MALLOC  000002B7C8381F60 0000000000000000 0000000000000018 0000000000000000
MALLOC  000002B7C8382180 0000000000000000 0000000000000018 0000000000000000
MALLOC  000002B7C83823C0 0000000000000000 0000000000000018 0000000000000000
MALLOC  000002B7C83820E0 0000000000000000 0000000000000018 0000000000000000
MALLOC  000002B7C8382060 0000000000000000 0000000000000018 0000000000000000
MALLOC  000002B7C8382000 0000000000000000 0000000000000018 0000000000000000
MALLOC  000002B7C8381F80 0000000000000000 0000000000000018 0000000000000000
MALLOC  000002B7C8382220 0000000000000000 0000000000000018 0000000000000000
MALLOC  000002B7C8382120 0000000000000000 0000000000000018 0000000000000000
MALLOC  000002B7C83820A0 0000000000000000 0000000000000018 0000000000000000
MALLOC  000002B7C8382200 0000000000000000 0000000000000018 0000000000000000
MALLOC  000002B7C8381E80 0000000000000000 0000000000000018 0000000000000000
MALLOC  000002B7C8382040 0000000000000000 0000000000000018 0000000000000000
MALLOC  000002B7C83824A0 0000000000000000 0000000000000018 0000000000000000
MALLOC  000002B7C83822C0 0000000000000000 0000000000000018 0000000000000000
MALLOC  000002B7C83821E0 0000000000000000 0000000000000018 0000000000000000
MALLOC  000002B7C8382140 0000000000000000 0000000000000018 0000000000000000
MALLOC  000002B7C83822A0 0000000000000000 0000000000000018 0000000000000000
MALLOC  000002B7C8382460 0000000000000000 0000000000000018 0000000000000000
MALLOC  000002B7C83822E0 0000000000000000 0000000000000018 0000000000000000
MALLOC  000002B7C8381E40 0000000000000000 0000000000000018 0000000000000000
MALLOC  000002B7C8382240 0000000000000000 0000000000000018 0000000000000000
MALLOC  000002B7C83824C0 0000000000000000 0000000000000018 0000000000000000
MALLOC  000002B7C8382480 0000000000000000 0000000000000018 0000000000000000
MALLOC  000002B7C83824E0 0000000000000000 0000000000000018 0000000000000000
MALLOC  000002B7C8382280 0000000000000000 0000000000000018 0000000000000000
MALLOC  000002B7C8382260 0000000000000000 0000000000000018 0000000000000000
MALLOC  000002B7C8382300 0000000000000000 0000000000000018 0000000000000000
MALLOC  000002B7C83825C0 0000000000000000 0000000000000018 0000000000000000
MALLOC  000002B7C8382080 0000000000000000 0000000000000018 0000000000000000
MALLOC  000002B7C8382440 0000000000000000 0000000000000018 0000000000000000
MALLOC  000002B7C8382500 0000000000000000 0000000000000018 0000000000000000
MALLOC  000002B7C83820C0 0000000000000000 0000000000000018 0000000000000000
MALLOC  000002B7C8382520 0000000000000000 0000000000000018 0000000000000000
MALLOC  000002B7C8382340 0000000000000000 0000000000000018 0000000000000000
MALLOC  000002B7C8382560 0000000000000000 0000000000000018 0000000000000000
MALLOC  000002B7C8382540 0000000000000000 0000000000000018 0000000000000000
MALLOC  000002B7C8382020 0000000000000000 0000000000000018 0000000000000000
MALLOC  000002B7C8381EA0 0000000000000000 0000000000000018 0000000000000000
MALLOC  000002B7C8381EE0 0000000000000000 0000000000000018 0000000000000000
MALLOC  000002B7C8382100 0000000000000000 0000000000000018 0000000000000000
MALLOC  000002B7C8382360 0000000000000000 0000000000000018 0000000000000000
MALLOC  000002B7C8382580 0000000000000000 0000000000000018 0000000000000000
MALLOC  000002B7C8382380 0000000000000000 0000000000000018 0000000000000000
MALLOC  000002B7C8381E60 0000000000000000 0000000000000018 0000000000000000
MALLOC  000002B7C83821C0 0000000000000000 0000000000000018 0000000000000000
MALLOC  000002B7C8381EC0 0000000000000000 0000000000000018 0000000000000000
MALLOC  000002B7C8381F20 0000000000000000 0000000000000018 0000000000000000
MALLOC  000002B7C83823A0 0000000000000000 0000000000000018 0000000000000000
MALLOC  000002B7C83823E0 0000000000000000 0000000000000018 0000000000000000
MALLOC  000002B7C8382400 0000000000000000 0000000000000018 0000000000000000
MALLOC  000002B7C8381F40 0000000000000000 0000000000000018 0000000000000000
MALLOC  000002B7C8381FE0 0000000000000000 0000000000000018 0000000000000000
MALLOC  000002B7C8382420 0000000000000000 0000000000000018 0000000000000000
MALLOC  000002B7C8382650 0000000000000000 0000000000000018 0000000000000000
MALLOC  000002B7C83826F0 0000000000000000 0000000000000018 0000000000000000
MALLOC  000002B7C83828B0 0000000000000000 0000000000000018 0000000000000000
MALLOC  000002B7C8382AF0 0000000000000000 0000000000000018 0000000000000000
MALLOC  000002B7C8382750 0000000000000000 0000000000000018 0000000000000000
MALLOC  000002B7C8382DB0 0000000000000000 0000000000000018 0000000000000000
MALLOC  000002B7C8382810 0000000000000000 0000000000000018 0000000000000000
MALLOC  000002B7C8382670 0000000000000000 0000000000000018 0000000000000000
MALLOC  000002B7C83826B0 0000000000000000 0000000000000018 0000000000000000
MALLOC  000002B7C8382C30 0000000000000000 0000000000000018 0000000000000000
MALLOC  000002B7C8382D30 0000000000000000 0000000000000018 0000000000000000
MALLOC  000002B7C8382990 0000000000000000 0000000000000018 0000000000000000
MALLOC  000002B7C83829B0 0000000000000000 0000000000000018 0000000000000000
MALLOC  000002B7C8382B90 0000000000000000 0000000000000018 0000000000000000
MALLOC  000002B7C8382A50 0000000000000000 0000000000000018 0000000000000000
MALLOC  000002B7C8382BB0 0000000000000000 0000000000000018 0000000000000000
MALLOC  000002B7C8382DD0 0000000000000000 0000000000000018 0000000000000000
MALLOC  000002B7C8382C50 0000000000000000 0000000000000018 0000000000000000
MALLOC  000002B7C8382D90 0000000000000000 0000000000000018 0000000000000000
MALLOC  000002B7C8382830 0000000000000000 0000000000000018 0000000000000000
MALLOC  000002B7C8382CF0 0000000000000000 0000000000000018 0000000000000000
MALLOC  000002B7C8382BD0 0000000000000000 0000000000000018 0000000000000000
MALLOC  000002B7C8382870 0000000000000000 0000000000000018 0000000000000000
MALLOC  000002B7C8382850 0000000000000000 0000000000000018 0000000000000000
MALLOC  000002B7C83827D0 0000000000000000 0000000000000018 0000000000000000
MALLOC  000002B7C8382BF0 0000000000000000 0000000000000018 0000000000000000
MALLOC  000002B7C8382A90 0000000000000000 0000000000000018 0000000000000000
MALLOC  000002B7C8382970 0000000000000000 0000000000000018 0000000000000000
MALLOC  000002B7C8382A70 0000000000000000 0000000000000018 0000000000000000
MALLOC  000002B7C8382770 0000000000000000 0000000000000018 0000000000000000
MALLOC  000002B7C8382AB0 0000000000000000 0000000000000018 0000000000000000
MALLOC  000002B7C8382950 0000000000000000 0000000000000018 0000000000000000
MALLOC  000002B7C83829D0 0000000000000000 0000000000000018 0000000000000000
MALLOC  000002B7C8382730 0000000000000000 0000000000000018 0000000000000000
MALLOC  000002B7C83827F0 0000000000000000 0000000000000018 0000000000000000
MALLOC  000002B7C8382790 0000000000000000 0000000000000018 0000000000000000
MALLOC  000002B7C8382AD0 0000000000000000 0000000000000018 0000000000000000
MALLOC  000002B7C83827B0 0000000000000000 0000000000000018 0000000000000000
MALLOC  000002B7C8382690 0000000000000000 0000000000000018 0000000000000000
MALLOC  000002B7C83829F0 0000000000000000 0000000000000018 0000000000000000
MALLOC  000002B7C8382890 0000000000000000 0000000000000018 0000000000000000
MALLOC  000002B7C8382D50 0000000000000000 0000000000000018 0000000000000000
MALLOC  000002B7C8382B10 0000000000000000 0000000000000018 0000000000000000
MALLOC  000002B7C83828D0 0000000000000000 0000000000000018 0000000000000000
MALLOC  000002B7C8382B30 0000000000000000 0000000000000018 0000000000000000
MALLOC  000002B7C8382A10 0000000000000000 0000000000000018 0000000000000000
MALLOC  000002B7C83828F0 0000000000000000 0000000000000018 0000000000000000
MALLOC  000002B7C8382B70 0000000000000000 0000000000000018 0000000000000000
MALLOC  000002B7C8382910 0000000000000000 0000000000000018 0000000000000000
MALLOC  000002B7C8382930 0000000000000000 0000000000000018 0000000000000000
MALLOC  000002B7C8382A30 0000000000000000 0000000000000018 0000000000000000
MALLOC  000002B7C8382D70 0000000000000000 0000000000000018 0000000000000000
MALLOC  000002B7C8382B50 0000000000000000 0000000000000018 0000000000000000
MALLOC  000002B7C8382C10 0000000000000000 0000000000000018 0000000000000000
MALLOC  000002B7C8382C70 0000000000000000 0000000000000018 0000000000000000
MALLOC  000002B7C8382C90 0000000000000000 0000000000000018 0000000000000000
MALLOC  000002B7C8382D10 0000000000000000 0000000000000018 0000000000000000
MALLOC  000002B7C8382CB0 0000000000000000 0000000000000018 0000000000000000
MALLOC  000002B7C8382CD0 0000000000000000 0000000000000018 0000000000000000
MALLOC  000002B7C8382710 0000000000000000 0000000000000018 0000000000000000
MALLOC  000002B7C83826D0 0000000000000000 0000000000000018 0000000000000000
MALLOC  000002B7C8383560 0000000000000000 0000000000000018 0000000000000000
MALLOC  000002B7C8382EE0 0000000000000000 0000000000000018 0000000000000000
MALLOC  000002B7C8383580 0000000000000000 0000000000000018 0000000000000000
MALLOC  000002B7C8383460 0000000000000000 0000000000000018 0000000000000000
MALLOC  000002B7C83835A0 0000000000000000 0000000000000018 0000000000000000
MALLOC  000002B7C8382FE0 0000000000000000 0000000000000018 0000000000000000
MALLOC  000002B7C8383260 0000000000000000 0000000000000018 0000000000000000
MALLOC  000002B7C8383340 0000000000000000 0000000000000018 0000000000000000
MALLOC  000002B7C8383480 0000000000000000 0000000000000018 0000000000000000
MALLOC  000002B7C8383100 0000000000000000 0000000000000018 0000000000000000
MALLOC  000002B7C83832E0 0000000000000000 0000000000000018 0000000000000000
MALLOC  000002B7C8383300 0000000000000000 0000000000000018 0000000000000000
MALLOC  000002B7C8382F60 0000000000000000 0000000000000018 0000000000000000
MALLOC  000002B7C8383000 0000000000000000 0000000000000018 0000000000000000
MALLOC  000002B7C83834A0 0000000000000000 0000000000000018 0000000000000000
MALLOC  000002B7C83834C0 0000000000000000 0000000000000018 0000000000000000
MALLOC  000002B7C8383280 0000000000000000 0000000000000018 0000000000000000
MALLOC  000002B7C8382E80 0000000000000000 0000000000000018 0000000000000000
MALLOC  000002B7C83834E0 0000000000000000 0000000000000018 0000000000000000
MALLOC  000002B7C8383420 0000000000000000 0000000000000018 0000000000000000
MALLOC  000002B7C8383320 0000000000000000 0000000000000018 0000000000000000
MALLOC  000002B7C83832A0 0000000000000000 0000000000000018 0000000000000000
MALLOC  000002B7C8383220 0000000000000000 0000000000000018 0000000000000000
MALLOC  000002B7C83835C0 0000000000000000 0000000000000018 0000000000000000
MALLOC  000002B7C83830A0 0000000000000000 0000000000000018 0000000000000000
MALLOC  000002B7C83830E0 0000000000000000 0000000000000018 0000000000000000
MALLOC  000002B7C8382FA0 0000000000000000 0000000000000018 0000000000000000
MALLOC  000002B7C8383360 0000000000000000 0000000000000018 0000000000000000
MALLOC  000002B7C83831E0 0000000000000000 0000000000000018 0000000000000000
MALLOC  000002B7C8383240 0000000000000000 0000000000000018 0000000000000000
MALLOC  000002B7C8383040 0000000000000000 0000000000000018 0000000000000000
MALLOC  000002B7C8383500 0000000000000000 0000000000000018 0000000000000000
MALLOC  000002B7C8383520 0000000000000000 0000000000000018 0000000000000000
MALLOC  000002B7C83832C0 0000000000000000 0000000000000018 0000000000000000
MALLOC  000002B7C8383540 0000000000000000 0000000000000018 0000000000000000
MALLOC  000002B7C83835E0 0000000000000000 0000000000000018 0000000000000000
MALLOC  000002B7C8383380 0000000000000000 0000000000000018 0000000000000000
MALLOC  000002B7C83833A0 0000000000000000 0000000000000018 0000000000000000
MALLOC  000002B7C8382F40 0000000000000000 0000000000000018 0000000000000000
MALLOC  000002B7C8383020 0000000000000000 0000000000000018 0000000000000000
MALLOC  000002B7C8382E60 0000000000000000 0000000000000018 0000000000000000
MALLOC  000002B7C8383120 0000000000000000 0000000000000018 0000000000000000
MALLOC  000002B7C8382F80 0000000000000000 0000000000000018 0000000000000000
MALLOC  000002B7C8382EA0 0000000000000000 0000000000000018 0000000000000000
MALLOC  000002B7C83830C0 0000000000000000 0000000000000018 0000000000000000
MALLOC  000002B7C8382FC0 0000000000000000 0000000000000018 0000000000000000
MALLOC  000002B7C83831A0 0000000000000000 0000000000000018 0000000000000000
MALLOC  000002B7C83833C0 0000000000000000 0000000000000018 0000000000000000
MALLOC  000002B7C8383140 0000000000000000 0000000000000018 0000000000000000
MALLOC  000002B7C83833E0 0000000000000000 0000000000000018 0000000000000000
MALLOC  000002B7C8382EC0 0000000000000000 0000000000000018 0000000000000000
MALLOC  000002B7C8383180 0000000000000000 0000000000000018 0000000000000000
MALLOC  000002B7C8383400 0000000000000000 0000000000000018 0000000000000000
MALLOC  000002B7C8382F00 0000000000000000 0000000000000018 0000000000000000
MALLOC  000002B7C8382F20 0000000000000000 0000000000000018 0000000000000000
MALLOC  000002B7C8383060 0000000000000000 0000000000000018 0000000000000000
MALLOC  000002B7C8383160 0000000000000000 0000000000000018 0000000000000000
MALLOC  000002B7C8383200 0000000000000000 0000000000000018 0000000000000000
MALLOC  000002B7C8383440 0000000000000000 0000000000000018 0000000000000000
MALLOC  000002B7C8383080 0000000000000000 0000000000000018 0000000000000000
MALLOC  000002B7C83831C0 0000000000000000 0000000000000018 0000000000000000
MALLOC  000002B7C83836B0 0000000000000000 0000000000000018 0000000000000000
MALLOC  000002B7C8383CB0 0000000000000000 0000000000000018 0000000000000000
MALLOC  000002B7C8383790 0000000000000000 0000000000000018 0000000000000000
MALLOC  000002B7C83839B0 0000000000000000 0000000000000018 0000000000000000
MALLOC  000002B7C8383BF0 0000000000000000 0000000000000018 0000000000000000
MALLOC  000002B7C8383910 0000000000000000 0000000000000018 0000000000000000
MALLOC  000002B7C8383890 0000000000000000 0000000000000018 0000000000000000
MALLOC  000002B7C8383830 0000000000000000 0000000000000018 0000000000000000
MALLOC  000002B7C83837B0 0000000000000000 0000000000000018 0000000000000000
MALLOC  000002B7C8383A50 0000000000000000 0000000000000018 0000000000000000
MALLOC  000002B7C8383950 0000000000000000 0000000000000018 0000000000000000
MALLOC  000002B7C83838D0 0000000000000000 0000000000000018 0000000000000000
MALLOC  000002B7C8383A30 0000000000000000 0000000000000018 0000000000000000
MALLOC  000002B7C83836D0 0000000000000000 0000000000000018 0000000000000000
MALLOC  000002B7C8383870 0000000000000000 0000000000000018 0000000000000000
MALLOC  000002B7C8383CD0 0000000000000000 0000000000000018 0000000000000000
MALLOC  000002B7C8383AF0 0000000000000000 0000000000000018 0000000000000000
MALLOC  000002B7C8383A10 0000000000000000 0000000000000018 0000000000000000
MALLOC  000002B7C8383970 0000000000000000 0000000000000018 0000000000000000
MALLOC  000002B7C8383AD0 0000000000000000 0000000000000018 0000000000000000
MALLOC  000002B7C8383C90 0000000000000000 0000000000000018 0000000000000000
MALLOC  000002B7C8383B10 0000000000000000 0000000000000018 0000000000000000
MALLOC  000002B7C8383670 0000000000000000 0000000000000018 0000000000000000
MALLOC  000002B7C8383A70 0000000000000000 0000000000000018 0000000000000000
MALLOC  000002B7C8383CF0 0000000000000000 0000000000000018 0000000000000000
MALLOC  000002B7C8383D10 0000000000000000 0000000000000018 0000000000000000
MALLOC  000002B7C8383D30 0000000000000000 0000000000000018 0000000000000000
MALLOC  000002B7C8383AB0 0000000000000000 0000000000000018 0000000000000000
MALLOC  000002B7C8383A90 0000000000000000 0000000000000018 0000000000000000
MALLOC  000002B7C8383B30 0000000000000000 0000000000000018 0000000000000000
MALLOC  000002B7C8383DF0 0000000000000000 0000000000000018 0000000000000000
MALLOC  000002B7C83838B0 0000000000000000 0000000000000018 0000000000000000
MALLOC  000002B7C8383C70 0000000000000000 0000000000000018 0000000000000000
MALLOC  000002B7C8383D50 0000000000000000 0000000000000018 0000000000000000
MALLOC  000002B7C83838F0 0000000000000000 0000000000000018 0000000000000000
MALLOC  000002B7C8383D70 0000000000000000 0000000000000018 0000000000000000
MALLOC  000002B7C8383B50 0000000000000000 0000000000000018 0000000000000000
MALLOC  000002B7C8383D90 0000000000000000 0000000000000018 0000000000000000
MALLOC  000002B7C8383DB0 0000000000000000 0000000000000018 0000000000000000
MALLOC  000002B7C8383850 0000000000000000 0000000000000018 0000000000000000
MALLOC  000002B7C83836F0 0000000000000000 0000000000000018 0000000000000000
MALLOC  000002B7C8383710 0000000000000000 0000000000000018 0000000000000000
MALLOC  000002B7C8383930 0000000000000000 0000000000000018 0000000000000000
MALLOC  000002B7C8383B70 0000000000000000 0000000000000018 0000000000000000
MALLOC  000002B7C8383DD0 0000000000000000 0000000000000018 0000000000000000
MALLOC  000002B7C8383B90 0000000000000000 0000000000000018 0000000000000000
MALLOC  000002B7C8383690 0000000000000000 0000000000000018 0000000000000000
MALLOC  000002B7C8383990 0000000000000000 0000000000000018 0000000000000000
MALLOC  000002B7C8383730 0000000000000000 0000000000000018 0000000000000000
MALLOC  000002B7C8383750 0000000000000000 0000000000000018 0000000000000000
MALLOC  000002B7C8383BB0 0000000000000000 0000000000000018 0000000000000000
MALLOC  000002B7C83839D0 0000000000000000 0000000000000018 0000000000000000
MALLOC  000002B7C8383BD0 0000000000000000 0000000000000018 0000000000000000
MALLOC  000002B7C83839F0 0000000000000000 0000000000000018 0000000000000000
MALLOC  000002B7C8383C10 0000000000000000 0000000000000018 0000000000000000
MALLOC  000002B7C8383C30 0000000000000000 0000000000000018 0000000000000000
MALLOC  000002B7C8383770 0000000000000000 0000000000000018 0000000000000000
MALLOC  000002B7C83837D0 0000000000000000 0000000000000018 0000000000000000
MALLOC  000002B7C8383C50 0000000000000000 0000000000000018 0000000000000000
MALLOC  000002B7C83837F0 0000000000000000 0000000000000018 0000000000000000
MALLOC  000002B7C8383810 0000000000000000 0000000000000018 0000000000000000
MALLOC  000002B7C8383EC0 0000000000000000 0000000000000018 0000000000000000
MALLOC  000002B7C8384240 0000000000000000 0000000000000018 0000000000000000
MALLOC  000002B7C8384260 0000000000000000 0000000000000018 0000000000000000
MALLOC  000002B7C8383F80 0000000000000000 0000000000000018 0000000000000000
MALLOC  000002B7C8384420 0000000000000000 0000000000000018 0000000000000000
MALLOC  000002B7C8384520 0000000000000000 0000000000000018 0000000000000000
MALLOC  000002B7C8384180 0000000000000000 0000000000000018 0000000000000000
MALLOC  000002B7C83843A0 0000000000000000 0000000000000018 0000000000000000
MALLOC  000002B7C8383F40 0000000000000000 0000000000000018 0000000000000000
MALLOC  000002B7C8384340 0000000000000000 0000000000000018 0000000000000000
MALLOC  000002B7C8384060 0000000000000000 0000000000000018 0000000000000000
MALLOC  000002B7C8383F20 0000000000000000 0000000000000018 0000000000000000
MALLOC  000002B7C83845C0 0000000000000000 0000000000000018 0000000000000000
MALLOC  000002B7C8384280 0000000000000000 0000000000000018 0000000000000000
MALLOC  000002B7C8383EE0 0000000000000000 0000000000000018 0000000000000000
MALLOC  000002B7C8384360 0000000000000000 0000000000000018 0000000000000000
MALLOC  000002B7C8384380 0000000000000000 0000000000000018 0000000000000000
MALLOC  000002B7C8384400 0000000000000000 0000000000000018 0000000000000000
MALLOC  000002B7C8383F60 0000000000000000 0000000000000018 0000000000000000
MALLOC  000002B7C83843E0 0000000000000000 0000000000000018 0000000000000000
MALLOC  000002B7C83844A0 0000000000000000 0000000000000018 0000000000000000
MALLOC  000002B7C8384440 0000000000000000 0000000000000018 0000000000000000
MALLOC  000002B7C8384580 0000000000000000 0000000000000018 0000000000000000
MALLOC  000002B7C8384460 0000000000000000 0000000000000018 0000000000000000
MALLOC  000002B7C8383FA0 0000000000000000 0000000000000018 0000000000000000
MALLOC  000002B7C83845E0 0000000000000000 0000000000000018 0000000000000000
MALLOC  000002B7C83843C0 0000000000000000 0000000000000018 0000000000000000
MALLOC  000002B7C8384560 0000000000000000 0000000000000018 0000000000000000
MALLOC  000002B7C8384480 0000000000000000 0000000000000018 0000000000000000
MALLOC  000002B7C8383EA0 0000000000000000 0000000000000018 0000000000000000
MALLOC  000002B7C8383E80 0000000000000000 0000000000000018 0000000000000000
MALLOC  000002B7C83841A0 0000000000000000 0000000000000018 0000000000000000
MALLOC  000002B7C83842A0 0000000000000000 0000000000000018 0000000000000000
MALLOC  000002B7C83845A0 0000000000000000 0000000000000018 0000000000000000
MALLOC  000002B7C8383FC0 0000000000000000 0000000000000018 0000000000000000
MALLOC  000002B7C8384040 0000000000000000 0000000000000018 0000000000000000
MALLOC  000002B7C83844C0 0000000000000000 0000000000000018 0000000000000000
MALLOC  000002B7C83844E0 0000000000000000 0000000000000018 0000000000000000
MALLOC  000002B7C8384500 0000000000000000 0000000000000018 0000000000000000
MALLOC  000002B7C8384300 0000000000000000 0000000000000018 0000000000000000
MALLOC  000002B7C8383FE0 0000000000000000 0000000000000018 0000000000000000
MALLOC  000002B7C8384200 0000000000000000 0000000000000018 0000000000000000
MALLOC  000002B7C8384540 0000000000000000 0000000000000018 0000000000000000
MALLOC  000002B7C8384000 0000000000000000 0000000000000018 0000000000000000
MALLOC  000002B7C83841C0 0000000000000000 0000000000000018 0000000000000000
MALLOC  000002B7C8384020 0000000000000000 0000000000000018 0000000000000000
MALLOC  000002B7C8384320 0000000000000000 0000000000000018 0000000000000000
MALLOC  000002B7C8384600 0000000000000000 0000000000000018 0000000000000000
MALLOC  000002B7C8383F00 0000000000000000 0000000000000018 0000000000000000
MALLOC  000002B7C8384080 0000000000000000 0000000000000018 0000000000000000
MALLOC  000002B7C83840A0 0000000000000000 0000000000000018 0000000000000000
MALLOC  000002B7C83841E0 0000000000000000 0000000000000018 0000000000000000
MALLOC  000002B7C8384160 0000000000000000 0000000000000018 0000000000000000
MALLOC  000002B7C83840C0 0000000000000000 0000000000000018 0000000000000000
MALLOC  000002B7C8384220 0000000000000000 0000000000000018 0000000000000000
MALLOC  000002B7C83840E0 0000000000000000 0000000000000018 0000000000000000
MALLOC  000002B7C83842C0 0000000000000000 0000000000000018 0000000000000000
MALLOC  000002B7C8384100 0000000000000000 0000000000000018 0000000000000000
MALLOC  000002B7C8384120 0000000000000000 0000000000000018 0000000000000000
MALLOC  000002B7C83842E0 0000000000000000 0000000000000018 0000000000000000
MALLOC  000002B7C8384140 0000000000000000 0000000000000018 0000000000000000
MALLOC  000002B7C8384750 0000000000000000 0000000000000018 0000000000000000
MALLOC  000002B7C8384930 0000000000000000 0000000000000018 0000000000000000
MALLOC  000002B7C83848B0 0000000000000000 0000000000000018 0000000000000000
MALLOC  000002B7C83846F0 0000000000000000 0000000000000018 0000000000000000
MALLOC  000002B7C8384C10 0000000000000000 0000000000000018 0000000000000000
MALLOC  000002B7C8384870 0000000000000000 0000000000000018 0000000000000000
MALLOC  000002B7C8384990 0000000000000000 0000000000000018 0000000000000000
MALLOC  000002B7C83849D0 0000000000000000 0000000000000018 0000000000000000
MALLOC  000002B7C8384C30 0000000000000000 0000000000000018 0000000000000000
MALLOC  000002B7C8384BF0 0000000000000000 0000000000000018 0000000000000000
MALLOC  000002B7C8384BB0 0000000000000000 0000000000000018 0000000000000000
MALLOC  000002B7C8384B10 0000000000000000 0000000000000018 0000000000000000
MALLOC  000002B7C8384690 0000000000000000 0000000000000018 0000000000000000
MALLOC  000002B7C8384A50 0000000000000000 0000000000000018 0000000000000000
MALLOC  000002B7C8384A70 0000000000000000 0000000000000018 0000000000000000
MALLOC  000002B7C8384910 0000000000000000 0000000000000018 0000000000000000
MALLOC  000002B7C8384A90 0000000000000000 0000000000000018 0000000000000000
MALLOC  000002B7C8384950 0000000000000000 0000000000000018 0000000000000000
MALLOC  000002B7C8384970 0000000000000000 0000000000000018 0000000000000000
MALLOC  000002B7C8384E10 0000000000000000 0000000000000018 0000000000000000
MALLOC  000002B7C83846B0 0000000000000000 0000000000000018 0000000000000000
MALLOC  000002B7C83846D0 0000000000000000 0000000000000018 0000000000000000
MALLOC  000002B7C8384AF0 0000000000000000 0000000000000018 0000000000000000
MALLOC  000002B7C83849B0 0000000000000000 0000000000000018 0000000000000000
MALLOC  000002B7C83849F0 0000000000000000 0000000000000018 0000000000000000
MALLOC  000002B7C83848F0 0000000000000000 0000000000000018 0000000000000000
MALLOC  000002B7C8384710 0000000000000000 0000000000000018 0000000000000000
MALLOC  000002B7C8384A10 0000000000000000 0000000000000018 0000000000000000
MALLOC  000002B7C8384770 0000000000000000 0000000000000018 0000000000000000
MALLOC  000002B7C8384D70 0000000000000000 0000000000000018 0000000000000000
MALLOC  000002B7C8384850 0000000000000000 0000000000000018 0000000000000000
MALLOC  000002B7C8384AB0 0000000000000000 0000000000000018 0000000000000000
MALLOC  000002B7C8384CB0 0000000000000000 0000000000000018 0000000000000000
MALLOC  000002B7C8384A30 0000000000000000 0000000000000018 0000000000000000
MALLOC  000002B7C8384AD0 0000000000000000 0000000000000018 0000000000000000
MALLOC  000002B7C8384B30 0000000000000000 0000000000000018 0000000000000000
MALLOC  000002B7C8384890 0000000000000000 0000000000000018 0000000000000000
MALLOC  000002B7C8384B50 0000000000000000 0000000000000018 0000000000000000
MALLOC  000002B7C8384B70 0000000000000000 0000000000000018 0000000000000000
MALLOC  000002B7C8384B90 0000000000000000 0000000000000018 0000000000000000
MALLOC  000002B7C8384BD0 0000000000000000 0000000000000018 0000000000000000
MALLOC  000002B7C8384790 0000000000000000 0000000000000018 0000000000000000
MALLOC  000002B7C8384C50 0000000000000000 0000000000000018 0000000000000000
MALLOC  000002B7C8384D90 0000000000000000 0000000000000018 0000000000000000
MALLOC  000002B7C8384C70 0000000000000000 0000000000000018 0000000000000000
MALLOC  000002B7C8384C90 0000000000000000 0000000000000018 0000000000000000
MALLOC  000002B7C8384CD0 0000000000000000 0000000000000018 0000000000000000
MALLOC  000002B7C8384CF0 0000000000000000 0000000000000018 0000000000000000
MALLOC  000002B7C8384D50 0000000000000000 0000000000000018 0000000000000000
MALLOC  000002B7C8384D10 0000000000000000 0000000000000018 0000000000000000
MALLOC  000002B7C8384730 0000000000000000 0000000000000018 0000000000000000
MALLOC  000002B7C8384D30 0000000000000000 0000000000000018 0000000000000000
MALLOC  000002B7C8384DF0 0000000000000000 0000000000000018 0000000000000000
MALLOC  000002B7C8384DD0 0000000000000000 0000000000000018 0000000000000000
MALLOC  000002B7C8384DB0 0000000000000000 0000000000000018 0000000000000000
MALLOC  000002B7C83847B0 0000000000000000 0000000000000018 0000000000000000
MALLOC  000002B7C83847D0 0000000000000000 0000000000000018 0000000000000000
MALLOC  000002B7C83847F0 0000000000000000 0000000000000018 0000000000000000
MALLOC  000002B7C8384810 0000000000000000 0000000000000018 0000000000000000
MALLOC  000002B7C8384830 0000000000000000 0000000000000018 0000000000000000
MALLOC  000002B7C83848D0 0000000000000000 0000000000000018 0000000000000000
MALLOC  000002B7C8384F80 0000000000000000 0000000000000018 0000000000000000
MALLOC  000002B7C8385540 0000000000000000 0000000000000018 0000000000000000
MALLOC  000002B7C83854E0 0000000000000000 0000000000000018 0000000000000000
MALLOC  000002B7C83854A0 0000000000000000 0000000000000018 0000000000000000
MALLOC  000002B7C8385340 0000000000000000 0000000000000018 0000000000000000
MALLOC  000002B7C8385300 0000000000000000 0000000000000018 0000000000000000
MALLOC  000002B7C8384FA0 0000000000000000 0000000000000018 0000000000000000
MALLOC  000002B7C83854C0 0000000000000000 0000000000000018 0000000000000000
MALLOC  000002B7C8385120 0000000000000000 0000000000000018 0000000000000000
MALLOC  000002B7C83852A0 0000000000000000 0000000000000018 0000000000000000
MALLOC  000002B7C8385560 0000000000000000 0000000000000018 0000000000000000
MALLOC  000002B7C8385260 0000000000000000 0000000000000018 0000000000000000
MALLOC  000002B7C8385520 0000000000000000 0000000000000018 0000000000000000
MALLOC  000002B7C8385060 0000000000000000 0000000000000018 0000000000000000
MALLOC  000002B7C8385620 0000000000000000 0000000000000018 0000000000000000
MALLOC  000002B7C8385600 0000000000000000 0000000000000018 0000000000000000
MALLOC  000002B7C83852C0 0000000000000000 0000000000000018 0000000000000000
MALLOC  000002B7C83850A0 0000000000000000 0000000000000018 0000000000000000
MALLOC  000002B7C8385280 0000000000000000 0000000000000018 0000000000000000
MALLOC  000002B7C8385040 0000000000000000 0000000000000018 0000000000000000
MALLOC  000002B7C8385320 0000000000000000 0000000000000018 0000000000000000
MALLOC  000002B7C83852E0 0000000000000000 0000000000000018 0000000000000000
MALLOC  000002B7C83855A0 0000000000000000 0000000000000018 0000000000000000
MALLOC  000002B7C8384EA0 0000000000000000 0000000000000018 0000000000000000
MALLOC  000002B7C8385380 0000000000000000 0000000000000018 0000000000000000
MALLOC  000002B7C8385500 0000000000000000 0000000000000018 0000000000000000
MALLOC  000002B7C8385400 0000000000000000 0000000000000018 0000000000000000
MALLOC  000002B7C8385020 0000000000000000 0000000000000018 0000000000000000
MALLOC  000002B7C8384F00 0000000000000000 0000000000000018 0000000000000000
MALLOC  000002B7C8385360 0000000000000000 0000000000000018 0000000000000000
MALLOC  000002B7C83853A0 0000000000000000 0000000000000018 0000000000000000
MALLOC  000002B7C8384FC0 0000000000000000 0000000000000018 0000000000000000
MALLOC  000002B7C8385460 0000000000000000 0000000000000018 0000000000000000
MALLOC  000002B7C8385580 0000000000000000 0000000000000018 0000000000000000
MALLOC  000002B7C83851C0 0000000000000000 0000000000000018 0000000000000000
MALLOC  000002B7C83853E0 0000000000000000 0000000000000018 0000000000000000
MALLOC  000002B7C8384FE0 0000000000000000 0000000000000018 0000000000000000
MALLOC  000002B7C83853C0 0000000000000000 0000000000000018 0000000000000000
MALLOC  000002B7C83850C0 0000000000000000 0000000000000018 0000000000000000
MALLOC  000002B7C8384F60 0000000000000000 0000000000000018 0000000000000000
MALLOC  000002B7C8384EC0 0000000000000000 0000000000000018 0000000000000000
MALLOC  000002B7C8385420 0000000000000000 0000000000000018 0000000000000000
MALLOC  000002B7C8384F20 0000000000000000 0000000000000018 0000000000000000
MALLOC  000002B7C8385440 0000000000000000 0000000000000018 0000000000000000
MALLOC  000002B7C8385480 0000000000000000 0000000000000018 0000000000000000
MALLOC  000002B7C83855C0 0000000000000000 0000000000000018 0000000000000000
MALLOC  000002B7C8385000 0000000000000000 0000000000000018 0000000000000000
MALLOC  000002B7C83855E0 0000000000000000 0000000000000018 0000000000000000
MALLOC  000002B7C8384EE0 0000000000000000 0000000000000018 0000000000000000
MALLOC  000002B7C8384F40 0000000000000000 0000000000000018 0000000000000000
MALLOC  000002B7C8385080 0000000000000000 0000000000000018 0000000000000000
MALLOC  000002B7C83850E0 0000000000000000 0000000000000018 0000000000000000
MALLOC  000002B7C8385220 0000000000000000 0000000000000018 0000000000000000
MALLOC  000002B7C8385100 0000000000000000 0000000000000018 0000000000000000
MALLOC  000002B7C8385140 0000000000000000 0000000000000018 0000000000000000
MALLOC  000002B7C8385160 0000000000000000 0000000000000018 0000000000000000
MALLOC  000002B7C8385180 0000000000000000 0000000000000018 0000000000000000
MALLOC  000002B7C83851E0 0000000000000000 0000000000000018 0000000000000000
MALLOC  000002B7C83851A0 0000000000000000 0000000000000018 0000000000000000
MALLOC  000002B7C8385200 0000000000000000 0000000000000018 0000000000000000
MALLOC  000002B7C8385240 0000000000000000 0000000000000018 0000000000000000
MALLOC  000002B7C83860A0 0000000000000000 0000000000000018 0000000000000000
MALLOC  000002B7C83863C0 0000000000000000 0000000000000018 0000000000000000
MALLOC  000002B7C83863E0 0000000000000000 0000000000000018 0000000000000000
MALLOC  000002B7C8386300 0000000000000000 0000000000000018 0000000000000000
MALLOC  000002B7C8386460 0000000000000000 0000000000000018 0000000000000000
MALLOC  000002B7C83862C0 0000000000000000 0000000000000018 0000000000000000
MALLOC  000002B7C8385EE0 0000000000000000 0000000000000018 0000000000000000
MALLOC  000002B7C83861C0 0000000000000000 0000000000000018 0000000000000000
MALLOC  000002B7C8386420 0000000000000000 0000000000000018 0000000000000000
MALLOC  000002B7C8385F60 0000000000000000 0000000000000018 0000000000000000
MALLOC  000002B7C8386180 0000000000000000 0000000000000018 0000000000000000
MALLOC  000002B7C8385F80 0000000000000000 0000000000000018 0000000000000000
MALLOC  000002B7C83862E0 0000000000000000 0000000000000018 0000000000000000
MALLOC  000002B7C8386400 0000000000000000 0000000000000018 0000000000000000
MALLOC  000002B7C8386500 0000000000000000 0000000000000018 0000000000000000
MALLOC  000002B7C8386520 0000000000000000 0000000000000018 0000000000000000
MALLOC  000002B7C8386280 0000000000000000 0000000000000018 0000000000000000
MALLOC  000002B7C8385FA0 0000000000000000 0000000000000018 0000000000000000
MALLOC  000002B7C8385FC0 0000000000000000 0000000000000018 0000000000000000
MALLOC  000002B7C8386540 0000000000000000 0000000000000018 0000000000000000
MALLOC  000002B7C8386000 0000000000000000 0000000000000018 0000000000000000
MALLOC  000002B7C8386480 0000000000000000 0000000000000018 0000000000000000
MALLOC  000002B7C8385FE0 0000000000000000 0000000000000018 0000000000000000
MALLOC  000002B7C8386120 0000000000000000 0000000000000018 0000000000000000
MALLOC  000002B7C8386560 0000000000000000 0000000000000018 0000000000000000
MALLOC  000002B7C8386020 0000000000000000 0000000000000018 0000000000000000
MALLOC  000002B7C8386240 0000000000000000 0000000000000018 0000000000000000
MALLOC  000002B7C8386440 0000000000000000 0000000000000018 0000000000000000
MALLOC  000002B7C8386040 0000000000000000 0000000000000018 0000000000000000
MALLOC  000002B7C8386160 0000000000000000 0000000000000018 0000000000000000
MALLOC  000002B7C83860E0 0000000000000000 0000000000000018 0000000000000000
MALLOC  000002B7C8385F20 0000000000000000 0000000000000018 0000000000000000
MALLOC  000002B7C83864A0 0000000000000000 0000000000000018 0000000000000000
MALLOC  000002B7C83860C0 0000000000000000 0000000000000018 0000000000000000
MALLOC  000002B7C83861E0 0000000000000000 0000000000000018 0000000000000000
MALLOC  000002B7C8386200 0000000000000000 0000000000000018 0000000000000000
MALLOC  000002B7C83864C0 0000000000000000 0000000000000018 0000000000000000
MALLOC  000002B7C83864E0 0000000000000000 0000000000000018 0000000000000000
MALLOC  000002B7C8386580 0000000000000000 0000000000000018 0000000000000000
MALLOC  000002B7C8386340 0000000000000000 0000000000000018 0000000000000000
MALLOC  000002B7C8385EC0 0000000000000000 0000000000000018 0000000000000000
MALLOC  000002B7C83862A0 0000000000000000 0000000000000018 0000000000000000
MALLOC  000002B7C8386320 0000000000000000 0000000000000018 0000000000000000
MALLOC  000002B7C83861A0 0000000000000000 0000000000000018 0000000000000000
MALLOC  000002B7C8386360 0000000000000000 0000000000000018 0000000000000000
MALLOC  000002B7C8386220 0000000000000000 0000000000000018 0000000000000000
MALLOC  000002B7C8386260 0000000000000000 0000000000000018 0000000000000000
MALLOC  000002B7C8385F00 0000000000000000 0000000000000018 0000000000000000
MALLOC  000002B7C8386380 0000000000000000 0000000000000018 0000000000000000
MALLOC  000002B7C83865A0 0000000000000000 0000000000000018 0000000000000000
MALLOC  000002B7C83863A0 0000000000000000 0000000000000018 0000000000000000
MALLOC  000002B7C83865C0 0000000000000000 0000000000000018 0000000000000000
MALLOC  000002B7C8385F40 0000000000000000 0000000000000018 0000000000000000
MALLOC  000002B7C8386600 0000000000000000 0000000000000018 0000000000000000
MALLOC  000002B7C8386060 0000000000000000 0000000000000018 0000000000000000
MALLOC  000002B7C83865E0 0000000000000000 0000000000000018 0000000000000000
MALLOC  000002B7C8386080 0000000000000000 0000000000000018 0000000000000000
MALLOC  000002B7C8386640 0000000000000000 0000000000000018 0000000000000000
MALLOC  000002B7C8386620 0000000000000000 0000000000000018 0000000000000000
MALLOC  000002B7C8386100 0000000000000000 0000000000000018 0000000000000000
MALLOC  000002B7C8386140 0000000000000000 0000000000000018 0000000000000000
MALLOC  000002B7C8385C20 0000000000000000 0000000000000018 0000000000000000
MALLOC  000002B7C8385B00 0000000000000000 0000000000000018 0000000000000000
MALLOC  000002B7C83859C0 0000000000000000 0000000000000018 0000000000000000
MALLOC  000002B7C8385AE0 0000000000000000 0000000000000018 0000000000000000
MALLOC  000002B7C83857A0 0000000000000000 0000000000000018 0000000000000000
MALLOC  000002B7C8385AC0 0000000000000000 0000000000000018 0000000000000000
MALLOC  000002B7C83859E0 0000000000000000 0000000000000018 0000000000000000
MALLOC  000002B7C8385A00 0000000000000000 0000000000000018 0000000000000000
MALLOC  000002B7C8385760 0000000000000000 0000000000000018 0000000000000000
MALLOC  000002B7C8385840 0000000000000000 0000000000000018 0000000000000000
MALLOC  000002B7C83857E0 0000000000000000 0000000000000018 0000000000000000
MALLOC  000002B7C8385AA0 0000000000000000 0000000000000018 0000000000000000
MALLOC  000002B7C83857C0 0000000000000000 0000000000000018 0000000000000000
MALLOC  000002B7C8385E60 0000000000000000 0000000000000018 0000000000000000
MALLOC  000002B7C8385A20 0000000000000000 0000000000000018 0000000000000000
MALLOC  000002B7C8385780 0000000000000000 0000000000000018 0000000000000000
MALLOC  000002B7C8385DA0 0000000000000000 0000000000000018 0000000000000000
MALLOC  000002B7C8385B40 0000000000000000 0000000000000018 0000000000000000
MALLOC  000002B7C8385820 0000000000000000 0000000000000018 0000000000000000
MALLOC  000002B7C8385A60 0000000000000000 0000000000000018 0000000000000000
MALLOC  000002B7C83859A0 0000000000000000 0000000000000018 0000000000000000
MALLOC  000002B7C8385860 0000000000000000 0000000000000018 0000000000000000
MALLOC  000002B7C8385BA0 0000000000000000 0000000000000018 0000000000000000
MALLOC  000002B7C8385900 0000000000000000 0000000000000018 0000000000000000
MALLOC  000002B7C83858E0 0000000000000000 0000000000000018 0000000000000000
MALLOC  000002B7C8385A40 0000000000000000 0000000000000018 0000000000000000
MALLOC  000002B7C8385DC0 0000000000000000 0000000000000018 0000000000000000
MALLOC  000002B7C8385B20 0000000000000000 0000000000000018 0000000000000000
MALLOC  000002B7C8385C40 0000000000000000 0000000000000018 0000000000000000
MALLOC  000002B7C8385920 0000000000000000 0000000000000018 0000000000000000
MALLOC  000002B7C8385B60 0000000000000000 0000000000000018 0000000000000000
MALLOC  000002B7C8385D60 0000000000000000 0000000000000018 0000000000000000
MALLOC  000002B7C8385BC0 0000000000000000 0000000000000018 0000000000000000
MALLOC  000002B7C8385CA0 0000000000000000 0000000000000018 0000000000000000
MALLOC  000002B7C8385700 0000000000000000 0000000000000018 0000000000000000
MALLOC  000002B7C8385A80 0000000000000000 0000000000000018 0000000000000000
MALLOC  000002B7C8385E00 0000000000000000 0000000000000018 0000000000000000
MALLOC  000002B7C8385E20 0000000000000000 0000000000000018 0000000000000000
MALLOC  000002B7C8385740 0000000000000000 0000000000000018 0000000000000000
MALLOC  000002B7C8385E40 0000000000000000 0000000000000018 0000000000000000
MALLOC  000002B7C8385D00 0000000000000000 0000000000000018 0000000000000000
MALLOC  000002B7C8385E80 0000000000000000 0000000000000018 0000000000000000
MALLOC  000002B7C8385880 0000000000000000 0000000000000018 0000000000000000
MALLOC  000002B7C8385B80 0000000000000000 0000000000000018 0000000000000000
MALLOC  000002B7C8385BE0 0000000000000000 0000000000000018 0000000000000000
MALLOC  000002B7C8385D40 0000000000000000 0000000000000018 0000000000000000
MALLOC  000002B7C8385C00 0000000000000000 0000000000000018 0000000000000000
MALLOC  000002B7C8385C60 0000000000000000 0000000000000018 0000000000000000
MALLOC  000002B7C8385C80 0000000000000000 0000000000000018 0000000000000000
MALLOC  000002B7C8385800 0000000000000000 0000000000000018 0000000000000000
MALLOC  000002B7C83858A0 0000000000000000 0000000000000018 0000000000000000
MALLOC  000002B7C8385D20 0000000000000000 0000000000000018 0000000000000000
MALLOC  000002B7C8385D80 0000000000000000 0000000000000018 0000000000000000
MALLOC  000002B7C8385CC0 0000000000000000 0000000000000018 0000000000000000
MALLOC  000002B7C8385720 0000000000000000 0000000000000018 0000000000000000
MALLOC  000002B7C8385DE0 0000000000000000 0000000000000018 0000000000000000
MALLOC  000002B7C8385CE0 0000000000000000 0000000000000018 0000000000000000
MALLOC  000002B7C8385EA0 0000000000000000 0000000000000018 0000000000000000
MALLOC  000002B7C83856C0 0000000000000000 0000000000000018 0000000000000000
MALLOC  000002B7C83856E0 0000000000000000 0000000000000018 0000000000000000
MALLOC  000002B7C83858C0 0000000000000000 0000000000000018 0000000000000000
MALLOC  000002B7C8385940 0000000000000000 0000000000000018 0000000000000000
MALLOC  000002B7C8385980 0000000000000000 0000000000000018 0000000000000000
MALLOC  000002B7C8385960 0000000000000000 0000000000000018 0000000000000000
MALLOC  000002B7C83875A0 0000000000000000 0000000000000018 0000000000000000
MALLOC  000002B7C8387480 0000000000000000 0000000000000018 0000000000000000
MALLOC  000002B7C8387560 0000000000000000 0000000000000018 0000000000000000
MALLOC  000002B7C8387080 0000000000000000 0000000000000018 0000000000000000
MALLOC  000002B7C83875C0 0000000000000000 0000000000000018 0000000000000000
MALLOC  000002B7C83873A0 0000000000000000 0000000000000018 0000000000000000
MALLOC  000002B7C8387640 0000000000000000 0000000000000018 0000000000000000
MALLOC  000002B7C83875E0 0000000000000000 0000000000000018 0000000000000000
MALLOC  000002B7C83873E0 0000000000000000 0000000000000018 0000000000000000
MALLOC  000002B7C8387340 0000000000000000 0000000000000018 0000000000000000
MALLOC  000002B7C8387020 0000000000000000 0000000000000018 0000000000000000
MALLOC  000002B7C83870E0 0000000000000000 0000000000000018 0000000000000000
MALLOC  000002B7C8387600 0000000000000000 0000000000000018 0000000000000000
MALLOC  000002B7C83871E0 0000000000000000 0000000000000018 0000000000000000
MALLOC  000002B7C8387040 0000000000000000 0000000000000018 0000000000000000
MALLOC  000002B7C8387720 0000000000000000 0000000000000018 0000000000000000
MALLOC  000002B7C8387160 0000000000000000 0000000000000018 0000000000000000
MALLOC  000002B7C8387060 0000000000000000 0000000000000018 0000000000000000
MALLOC  000002B7C8387260 0000000000000000 0000000000000018 0000000000000000
MALLOC  000002B7C8387360 0000000000000000 0000000000000018 0000000000000000
MALLOC  000002B7C8387200 0000000000000000 0000000000000018 0000000000000000
MALLOC  000002B7C8387380 0000000000000000 0000000000000018 0000000000000000
MALLOC  000002B7C83876A0 0000000000000000 0000000000000018 0000000000000000
MALLOC  000002B7C8387220 0000000000000000 0000000000000018 0000000000000000
MALLOC  000002B7C83874A0 0000000000000000 0000000000000018 0000000000000000
MALLOC  000002B7C8387620 0000000000000000 0000000000000018 0000000000000000
MALLOC  000002B7C83874C0 0000000000000000 0000000000000018 0000000000000000
MALLOC  000002B7C83870C0 0000000000000000 0000000000000018 0000000000000000
MALLOC  000002B7C8386F80 0000000000000000 0000000000000018 0000000000000000
MALLOC  000002B7C83873C0 0000000000000000 0000000000000018 0000000000000000
MALLOC  000002B7C8387320 0000000000000000 0000000000000018 0000000000000000
MALLOC  000002B7C83870A0 0000000000000000 0000000000000018 0000000000000000
MALLOC  000002B7C8387540 0000000000000000 0000000000000018 0000000000000000
MALLOC  000002B7C8387660 0000000000000000 0000000000000018 0000000000000000
MALLOC  000002B7C8387280 0000000000000000 0000000000000018 0000000000000000
MALLOC  000002B7C83874E0 0000000000000000 0000000000000018 0000000000000000
MALLOC  000002B7C8387000 0000000000000000 0000000000000018 0000000000000000
MALLOC  000002B7C8387440 0000000000000000 0000000000000018 0000000000000000
MALLOC  000002B7C8387140 0000000000000000 0000000000000018 0000000000000000
MALLOC  000002B7C8387100 0000000000000000 0000000000000018 0000000000000000
MALLOC  000002B7C83876E0 0000000000000000 0000000000000018 0000000000000000
MALLOC  000002B7C8387400 0000000000000000 0000000000000018 0000000000000000
MALLOC  000002B7C8386FA0 0000000000000000 0000000000000018 0000000000000000
MALLOC  000002B7C8387460 0000000000000000 0000000000000018 0000000000000000
MALLOC  000002B7C8387500 0000000000000000 0000000000000018 0000000000000000
MALLOC  000002B7C8387520 0000000000000000 0000000000000018 0000000000000000
MALLOC  000002B7C8387120 0000000000000000 0000000000000018 0000000000000000
MALLOC  000002B7C8387580 0000000000000000 0000000000000018 0000000000000000
MALLOC  000002B7C8387680 0000000000000000 0000000000000018 0000000000000000
MALLOC  000002B7C83876C0 0000000000000000 0000000000000018 0000000000000000
MALLOC  000002B7C8387700 0000000000000000 0000000000000018 0000000000000000
MALLOC  000002B7C8386F40 0000000000000000 0000000000000018 0000000000000000
MALLOC  000002B7C8387180 0000000000000000 0000000000000018 0000000000000000
MALLOC  000002B7C8386F60 0000000000000000 0000000000000018 0000000000000000
MALLOC  000002B7C8386FC0 0000000000000000 0000000000000018 0000000000000000
MALLOC  000002B7C8386FE0 0000000000000000 0000000000000018 0000000000000000
MALLOC  000002B7C83871A0 0000000000000000 0000000000000018 0000000000000000
MALLOC  000002B7C83871C0 0000000000000000 0000000000000018 0000000000000000
MALLOC  000002B7C8387240 0000000000000000 0000000000000018 0000000000000000
MALLOC  000002B7C83872A0 0000000000000000 0000000000000018 0000000000000000
MALLOC  000002B7C83872C0 0000000000000000 0000000000000018 0000000000000000
MALLOC  000002B7C8387420 0000000000000000 0000000000000018 0000000000000000
MALLOC  000002B7C83872E0 0000000000000000 0000000000000018 0000000000000000
MALLOC  000002B7C8387300 0000000000000000 0000000000000018 0000000000000000
MALLOC  000002B7C8387C80 0000000000000000 0000000000000018 0000000000000000
MALLOC  000002B7C8387BC0 0000000000000000 0000000000000018 0000000000000000
MALLOC  000002B7C8387D40 0000000000000000 0000000000000018 0000000000000000
MALLOC  000002B7C8387B80 0000000000000000 0000000000000018 0000000000000000
MALLOC  000002B7C8387760 0000000000000000 0000000000000018 0000000000000000
MALLOC  000002B7C8387A80 0000000000000000 0000000000000018 0000000000000000
MALLOC  000002B7C8387D00 0000000000000000 0000000000000018 0000000000000000
MALLOC  000002B7C83877E0 0000000000000000 0000000000000018 0000000000000000
MALLOC  000002B7C8387A20 0000000000000000 0000000000000018 0000000000000000
MALLOC  000002B7C8387800 0000000000000000 0000000000000018 0000000000000000
MALLOC  000002B7C8387BA0 0000000000000000 0000000000000018 0000000000000000
MALLOC  000002B7C8387CE0 0000000000000000 0000000000000018 0000000000000000
MALLOC  000002B7C8387DC0 0000000000000000 0000000000000018 0000000000000000
MALLOC  000002B7C8387DE0 0000000000000000 0000000000000018 0000000000000000
MALLOC  000002B7C8387B20 0000000000000000 0000000000000018 0000000000000000
MALLOC  000002B7C8387820 0000000000000000 0000000000000018 0000000000000000
MALLOC  000002B7C8387840 0000000000000000 0000000000000018 0000000000000000
MALLOC  000002B7C8387E00 0000000000000000 0000000000000018 0000000000000000
MALLOC  000002B7C83878A0 0000000000000000 0000000000000018 0000000000000000
MALLOC  000002B7C8387D60 0000000000000000 0000000000000018 0000000000000000
MALLOC  000002B7C8387860 0000000000000000 0000000000000018 0000000000000000
MALLOC  000002B7C83879C0 0000000000000000 0000000000000018 0000000000000000
MALLOC  000002B7C8387E40 0000000000000000 0000000000000018 0000000000000000
MALLOC  000002B7C83878C0 0000000000000000 0000000000000018 0000000000000000
MALLOC  000002B7C8387B00 0000000000000000 0000000000000018 0000000000000000
MALLOC  000002B7C8387CC0 0000000000000000 0000000000000018 0000000000000000
MALLOC  000002B7C8387880 0000000000000000 0000000000000018 0000000000000000
MALLOC  000002B7C8387A00 0000000000000000 0000000000000018 0000000000000000
MALLOC  000002B7C8387980 0000000000000000 0000000000000018 0000000000000000
MALLOC  000002B7C83877C0 0000000000000000 0000000000000018 0000000000000000
MALLOC  000002B7C8387D20 0000000000000000 0000000000000018 0000000000000000
MALLOC  000002B7C8387940 0000000000000000 0000000000000018 0000000000000000
MALLOC  000002B7C8387AA0 0000000000000000 0000000000000018 0000000000000000
MALLOC  000002B7C8387AC0 0000000000000000 0000000000000018 0000000000000000
MALLOC  000002B7C8387D80 0000000000000000 0000000000000018 0000000000000000
MALLOC  000002B7C8387DA0 0000000000000000 0000000000000018 0000000000000000
MALLOC  000002B7C8387E20 0000000000000000 0000000000000018 0000000000000000
MALLOC  000002B7C8387C00 0000000000000000 0000000000000018 0000000000000000
MALLOC  000002B7C8387740 0000000000000000 0000000000000018 0000000000000000
MALLOC  000002B7C8387B40 0000000000000000 0000000000000018 0000000000000000
MALLOC  000002B7C8387B60 0000000000000000 0000000000000018 0000000000000000
MALLOC  000002B7C83879E0 0000000000000000 0000000000000018 0000000000000000
MALLOC  000002B7C8387BE0 0000000000000000 0000000000000018 0000000000000000
MALLOC  000002B7C8387A40 0000000000000000 0000000000000018 0000000000000000
MALLOC  000002B7C8387A60 0000000000000000 0000000000000018 0000000000000000
MALLOC  000002B7C8387F00 0000000000000000 0000000000000018 0000000000000000
MALLOC  000002B7C8387AE0 0000000000000000 0000000000000018 0000000000000000
MALLOC  000002B7C8387CA0 0000000000000000 0000000000000018 0000000000000000
MALLOC  000002B7C8387C20 0000000000000000 0000000000000018 0000000000000000
MALLOC  000002B7C8387E60 0000000000000000 0000000000000018 0000000000000000
MALLOC  000002B7C8387EE0 0000000000000000 0000000000000018 0000000000000000
MALLOC  000002B7C8387E80 0000000000000000 0000000000000018 0000000000000000
MALLOC  000002B7C8387EA0 0000000000000000 0000000000000018 0000000000000000
MALLOC  000002B7C8387900 0000000000000000 0000000000000018 0000000000000000
MALLOC  000002B7C8387EC0 0000000000000000 0000000000000018 0000000000000000
MALLOC  000002B7C8387F20 0000000000000000 0000000000000018 0000000000000000
MALLOC  000002B7C8387960 0000000000000000 0000000000000018 0000000000000000
MALLOC  000002B7C8387920 0000000000000000 0000000000000018 0000000000000000
MALLOC  000002B7C83878E0 0000000000000000 0000000000000018 0000000000000000
MALLOC  000002B7C8387780 0000000000000000 0000000000000018 0000000000000000
MALLOC  000002B7C8387C40 0000000000000000 0000000000000018 0000000000000000
MALLOC  000002B7C8387C60 0000000000000000 0000000000000018 0000000000000000
MALLOC  000002B7C83877A0 0000000000000000 0000000000000018 0000000000000000
MALLOC  000002B7C83879A0 0000000000000000 0000000000000018 0000000000000000
MALLOC  000002B7C8388340 0000000000000000 0000000000000018 0000000000000000
MALLOC  000002B7C8388240 0000000000000000 0000000000000018 0000000000000000
MALLOC  000002B7C8388260 0000000000000000 0000000000000018 0000000000000000
MALLOC  000002B7C8387FE0 0000000000000000 0000000000000018 0000000000000000
MALLOC  000002B7C83880C0 0000000000000000 0000000000000018 0000000000000000
MALLOC  000002B7C8388060 0000000000000000 0000000000000018 0000000000000000
MALLOC  000002B7C8388320 0000000000000000 0000000000000018 0000000000000000
MALLOC  000002B7C8388040 0000000000000000 0000000000000018 0000000000000000
MALLOC  000002B7C83886E0 0000000000000000 0000000000000018 0000000000000000
MALLOC  000002B7C8388280 0000000000000000 0000000000000018 0000000000000000
MALLOC  000002B7C8388000 0000000000000000 0000000000000018 0000000000000000
MALLOC  000002B7C8388620 0000000000000000 0000000000000018 0000000000000000
MALLOC  000002B7C83883C0 0000000000000000 0000000000000018 0000000000000000
MALLOC  000002B7C83880A0 0000000000000000 0000000000000018 0000000000000000
MALLOC  000002B7C83882E0 0000000000000000 0000000000000018 0000000000000000
MALLOC  000002B7C8388220 0000000000000000 0000000000000018 0000000000000000
MALLOC  000002B7C83880E0 0000000000000000 0000000000000018 0000000000000000
MALLOC  000002B7C8388420 0000000000000000 0000000000000018 0000000000000000
MALLOC  000002B7C8388180 0000000000000000 0000000000000018 0000000000000000
MALLOC  000002B7C8388160 0000000000000000 0000000000000018 0000000000000000
MALLOC  000002B7C83882A0 0000000000000000 0000000000000018 0000000000000000
MALLOC  000002B7C8388640 0000000000000000 0000000000000018 0000000000000000
MALLOC  000002B7C8388360 0000000000000000 0000000000000018 0000000000000000
MALLOC  000002B7C83884C0 0000000000000000 0000000000000018 0000000000000000
MALLOC  000002B7C83881A0 0000000000000000 0000000000000018 0000000000000000
MALLOC  000002B7C83883E0 0000000000000000 0000000000000018 0000000000000000
MALLOC  000002B7C83885E0 0000000000000000 0000000000000018 0000000000000000
MALLOC  000002B7C8388440 0000000000000000 0000000000000018 0000000000000000
MALLOC  000002B7C8388520 0000000000000000 0000000000000018 0000000000000000
MALLOC  000002B7C8387F80 0000000000000000 0000000000000018 0000000000000000
MALLOC  000002B7C83882C0 0000000000000000 0000000000000018 0000000000000000
MALLOC  000002B7C8388680 0000000000000000 0000000000000018 0000000000000000
MALLOC  000002B7C83886A0 0000000000000000 0000000000000018 0000000000000000
MALLOC  000002B7C8387FC0 0000000000000000 0000000000000018 0000000000000000
MALLOC  000002B7C83886C0 0000000000000000 0000000000000018 0000000000000000
MALLOC  000002B7C8388580 0000000000000000 0000000000000018 0000000000000000
MALLOC  000002B7C8388700 0000000000000000 0000000000000018 0000000000000000
MALLOC  000002B7C8388100 0000000000000000 0000000000000018 0000000000000000
MALLOC  000002B7C8388380 0000000000000000 0000000000000018 0000000000000000
MALLOC  000002B7C8388460 0000000000000000 0000000000000018 0000000000000000
MALLOC  000002B7C83885C0 0000000000000000 0000000000000018 0000000000000000
MALLOC  000002B7C8388300 0000000000000000 0000000000000018 0000000000000000
MALLOC  000002B7C8388400 0000000000000000 0000000000000018 0000000000000000
MALLOC  000002B7C8388480 0000000000000000 0000000000000018 0000000000000000
MALLOC  000002B7C8388080 0000000000000000 0000000000000018 0000000000000000
MALLOC  000002B7C8388120 0000000000000000 0000000000000018 0000000000000000
MALLOC  000002B7C83885A0 0000000000000000 0000000000000018 0000000000000000
MALLOC  000002B7C8388600 0000000000000000 0000000000000018 0000000000000000
MALLOC  000002B7C83883A0 0000000000000000 0000000000000018 0000000000000000
MALLOC  000002B7C8387FA0 0000000000000000 0000000000000018 0000000000000000
MALLOC  000002B7C8388660 0000000000000000 0000000000000018 0000000000000000
MALLOC  000002B7C8388540 0000000000000000 0000000000000018 0000000000000000
MALLOC  000002B7C83884A0 0000000000000000 0000000000000018 0000000000000000
MALLOC  000002B7C83884E0 0000000000000000 0000000000000018 0000000000000000
MALLOC  000002B7C8388500 0000000000000000 0000000000000018 0000000000000000
MALLOC  000002B7C8388720 0000000000000000 0000000000000018 0000000000000000
MALLOC  000002B7C8387F40 0000000000000000 0000000000000018 0000000000000000
MALLOC  000002B7C8388020 0000000000000000 0000000000000018 0000000000000000
MALLOC  000002B7C8387F60 0000000000000000 0000000000000018 0000000000000000
MALLOC  000002B7C8388140 0000000000000000 0000000000000018 0000000000000000
MALLOC  000002B7C83881C0 0000000000000000 0000000000000018 0000000000000000
MALLOC  000002B7C8388560 0000000000000000 0000000000000018 0000000000000000
MALLOC  000002B7C83881E0 0000000000000000 0000000000000018 0000000000000000
MALLOC  000002B7C8388200 0000000000000000 0000000000000018 0000000000000000
MALLOC  000002B7C8388DA0 0000000000000000 0000000000000018 0000000000000000
MALLOC  000002B7C8388BA0 0000000000000000 0000000000000018 0000000000000000
MALLOC  000002B7C8388E40 0000000000000000 0000000000000018 0000000000000000
MALLOC  000002B7C8388DE0 0000000000000000 0000000000000018 0000000000000000
MALLOC  000002B7C8388BE0 0000000000000000 0000000000000018 0000000000000000
MALLOC  000002B7C8388B40 0000000000000000 0000000000000018 0000000000000000
MALLOC  000002B7C8388820 0000000000000000 0000000000000018 0000000000000000
MALLOC  000002B7C83888E0 0000000000000000 0000000000000018 0000000000000000
MALLOC  000002B7C8388E00 0000000000000000 0000000000000018 0000000000000000
MALLOC  000002B7C83889E0 0000000000000000 0000000000000018 0000000000000000
MALLOC  000002B7C8388840 0000000000000000 0000000000000018 0000000000000000
MALLOC  000002B7C8388F20 0000000000000000 0000000000000018 0000000000000000
MALLOC  000002B7C8388960 0000000000000000 0000000000000018 0000000000000000
MALLOC  000002B7C8388860 0000000000000000 0000000000000018 0000000000000000
MALLOC  000002B7C8388A60 0000000000000000 0000000000000018 0000000000000000
MALLOC  000002B7C8388B60 0000000000000000 0000000000000018 0000000000000000
MALLOC  000002B7C8388A00 0000000000000000 0000000000000018 0000000000000000
MALLOC  000002B7C8388B80 0000000000000000 0000000000000018 0000000000000000
MALLOC  000002B7C8388EA0 0000000000000000 0000000000000018 0000000000000000
MALLOC  000002B7C8388A20 0000000000000000 0000000000000018 0000000000000000
MALLOC  000002B7C8388C80 0000000000000000 0000000000000018 0000000000000000
MALLOC  000002B7C8388E20 0000000000000000 0000000000000018 0000000000000000
MALLOC  000002B7C8388760 0000000000000000 0000000000000018 0000000000000000
MALLOC  000002B7C8388F00 0000000000000000 0000000000000018 0000000000000000
MALLOC  000002B7C8388BC0 0000000000000000 0000000000000018 0000000000000000
MALLOC  000002B7C8388980 0000000000000000 0000000000000018 0000000000000000
MALLOC  000002B7C8388A40 0000000000000000 0000000000000018 0000000000000000
MALLOC  000002B7C8388940 0000000000000000 0000000000000018 0000000000000000
MALLOC  000002B7C8388EC0 0000000000000000 0000000000000018 0000000000000000
MALLOC  000002B7C8388A80 0000000000000000 0000000000000018 0000000000000000
MALLOC  000002B7C83887A0 0000000000000000 0000000000000018 0000000000000000
MALLOC  000002B7C8388E60 0000000000000000 0000000000000018 0000000000000000
MALLOC  000002B7C8388880 0000000000000000 0000000000000018 0000000000000000
MALLOC  000002B7C8388AA0 0000000000000000 0000000000000018 0000000000000000
MALLOC  000002B7C8388D00 0000000000000000 0000000000000018 0000000000000000
MALLOC  000002B7C8388AC0 0000000000000000 0000000000000018 0000000000000000
MALLOC  000002B7C83889A0 0000000000000000 0000000000000018 0000000000000000
MALLOC  000002B7C8388920 0000000000000000 0000000000000018 0000000000000000
MALLOC  000002B7C83888A0 0000000000000000 0000000000000018 0000000000000000
MALLOC  000002B7C8388C00 0000000000000000 0000000000000018 0000000000000000
MALLOC  000002B7C8388AE0 0000000000000000 0000000000000018 0000000000000000
MALLOC  000002B7C83889C0 0000000000000000 0000000000000018 0000000000000000
MALLOC  000002B7C8388C20 0000000000000000 0000000000000018 0000000000000000
MALLOC  000002B7C83887C0 0000000000000000 0000000000000018 0000000000000000
MALLOC  000002B7C8388B00 0000000000000000 0000000000000018 0000000000000000
MALLOC  000002B7C8388E80 0000000000000000 0000000000000018 0000000000000000
MALLOC  000002B7C8388C40 0000000000000000 0000000000000018 0000000000000000
MALLOC  000002B7C8388B20 0000000000000000 0000000000000018 0000000000000000
MALLOC  000002B7C8388C60 0000000000000000 0000000000000018 0000000000000000
MALLOC  000002B7C8388CA0 0000000000000000 0000000000000018 0000000000000000
MALLOC  000002B7C8388DC0 0000000000000000 0000000000000018 0000000000000000
MALLOC  000002B7C8388CC0 0000000000000000 0000000000000018 0000000000000000
MALLOC  000002B7C8388740 0000000000000000 0000000000000018 0000000000000000
MALLOC  000002B7C8388CE0 0000000000000000 0000000000000018 0000000000000000
MALLOC  000002B7C8388EE0 0000000000000000 0000000000000018 0000000000000000
MALLOC  000002B7C8388780 0000000000000000 0000000000000018 0000000000000000
MALLOC  000002B7C83887E0 0000000000000000 0000000000000018 0000000000000000
MALLOC  000002B7C8388D20 0000000000000000 0000000000000018 0000000000000000
MALLOC  000002B7C8388D40 0000000000000000 0000000000000018 0000000000000000
MALLOC  000002B7C8388D60 0000000000000000 0000000000000018 0000000000000000
MALLOC  000002B7C8388800 0000000000000000 0000000000000018 0000000000000000
MALLOC  000002B7C8388D80 0000000000000000 0000000000000018 0000000000000000
MALLOC  000002B7C83888C0 0000000000000000 0000000000000018 0000000000000000
MALLOC  000002B7C8388900 0000000000000000 0000000000000018 0000000000000000
MALLOC  000002B7C8389040 0000000000000000 0000000000000018 0000000000000000
MALLOC  000002B7C8389640 0000000000000000 0000000000000018 0000000000000000
MALLOC  000002B7C83895E0 0000000000000000 0000000000000018 0000000000000000
MALLOC  000002B7C83895A0 0000000000000000 0000000000000018 0000000000000000
MALLOC  000002B7C8389420 0000000000000000 0000000000000018 0000000000000000
MALLOC  000002B7C83893E0 0000000000000000 0000000000000018 0000000000000000
MALLOC  000002B7C8389060 0000000000000000 0000000000000018 0000000000000000
MALLOC  000002B7C83895C0 0000000000000000 0000000000000018 0000000000000000
MALLOC  000002B7C8389200 0000000000000000 0000000000000018 0000000000000000
MALLOC  000002B7C8389380 0000000000000000 0000000000000018 0000000000000000
MALLOC  000002B7C8389660 0000000000000000 0000000000000018 0000000000000000
MALLOC  000002B7C8389340 0000000000000000 0000000000000018 0000000000000000
MALLOC  000002B7C8389620 0000000000000000 0000000000000018 0000000000000000
MALLOC  000002B7C8389120 0000000000000000 0000000000000018 0000000000000000
MALLOC  000002B7C8389720 0000000000000000 0000000000000018 0000000000000000
MALLOC  000002B7C8389700 0000000000000000 0000000000000018 0000000000000000
MALLOC  000002B7C83893A0 0000000000000000 0000000000000018 0000000000000000
MALLOC  000002B7C8389160 0000000000000000 0000000000000018 0000000000000000
MALLOC  000002B7C8389360 0000000000000000 0000000000000018 0000000000000000
MALLOC  000002B7C8389100 0000000000000000 0000000000000018 0000000000000000
MALLOC  000002B7C8389400 0000000000000000 0000000000000018 0000000000000000
MALLOC  000002B7C83893C0 0000000000000000 0000000000000018 0000000000000000
MALLOC  000002B7C83896A0 0000000000000000 0000000000000018 0000000000000000
MALLOC  000002B7C8388F60 0000000000000000 0000000000000018 0000000000000000
MALLOC  000002B7C8389440 0000000000000000 0000000000000018 0000000000000000
MALLOC  000002B7C8389600 0000000000000000 0000000000000018 0000000000000000
MALLOC  000002B7C8389000 0000000000000000 0000000000000018 0000000000000000
MALLOC  000002B7C83896E0 0000000000000000 0000000000000018 0000000000000000
MALLOC  000002B7C8389460 0000000000000000 0000000000000018 0000000000000000
MALLOC  000002B7C8388FA0 0000000000000000 0000000000000018 0000000000000000
MALLOC  000002B7C8389480 0000000000000000 0000000000000018 0000000000000000
MALLOC  000002B7C83894A0 0000000000000000 0000000000000018 0000000000000000
MALLOC  000002B7C8389520 0000000000000000 0000000000000018 0000000000000000
MALLOC  000002B7C8389020 0000000000000000 0000000000000018 0000000000000000
MALLOC  000002B7C8389500 0000000000000000 0000000000000018 0000000000000000
MALLOC  000002B7C8389680 0000000000000000 0000000000000018 0000000000000000
MALLOC  000002B7C8389540 0000000000000000 0000000000000018 0000000000000000
MALLOC  000002B7C83896C0 0000000000000000 0000000000000018 0000000000000000
MALLOC  000002B7C8389560 0000000000000000 0000000000000018 0000000000000000
MALLOC  000002B7C8389080 0000000000000000 0000000000000018 0000000000000000
MALLOC  000002B7C8388F40 0000000000000000 0000000000000018 0000000000000000
MALLOC  000002B7C83894C0 0000000000000000 0000000000000018 0000000000000000
MALLOC  000002B7C8388F80 0000000000000000 0000000000000018 0000000000000000
MALLOC  000002B7C8388FC0 0000000000000000 0000000000000018 0000000000000000
MALLOC  000002B7C83894E0 0000000000000000 0000000000000018 0000000000000000
MALLOC  000002B7C83890A0 0000000000000000 0000000000000018 0000000000000000
MALLOC  000002B7C8389220 0000000000000000 0000000000000018 0000000000000000
MALLOC  000002B7C8389580 0000000000000000 0000000000000018 0000000000000000
MALLOC  000002B7C8388FE0 0000000000000000 0000000000000018 0000000000000000
MALLOC  000002B7C8389140 0000000000000000 0000000000000018 0000000000000000
MALLOC  000002B7C83890C0 0000000000000000 0000000000000018 0000000000000000
MALLOC  000002B7C83890E0 0000000000000000 0000000000000018 0000000000000000
MALLOC  000002B7C8389180 0000000000000000 0000000000000018 0000000000000000
MALLOC  000002B7C83891A0 0000000000000000 0000000000000018 0000000000000000
MALLOC  000002B7C83891C0 0000000000000000 0000000000000018 0000000000000000
MALLOC  000002B7C83891E0 0000000000000000 0000000000000018 0000000000000000
MALLOC  000002B7C8389280 0000000000000000 0000000000000018 0000000000000000
MALLOC  000002B7C8389240 0000000000000000 0000000000000018 0000000000000000
MALLOC  000002B7C8389260 0000000000000000 0000000000000018 0000000000000000
MALLOC  000002B7C83892A0 0000000000000000 0000000000000018 0000000000000000
MALLOC  000002B7C83892C0 0000000000000000 0000000000000018 0000000000000000
MALLOC  000002B7C83892E0 0000000000000000 0000000000000018 0000000000000000
MALLOC  000002B7C8389300 0000000000000000 0000000000000018 0000000000000000
MALLOC  000002B7C8389320 0000000000000000 0000000000000018 0000000000000000
MALLOC  000002B7C8389DE0 0000000000000000 0000000000000018 0000000000000000
MALLOC  000002B7C8389B20 0000000000000000 0000000000000018 0000000000000000
MALLOC  000002B7C8389820 0000000000000000 0000000000000018 0000000000000000
MALLOC  000002B7C83897E0 0000000000000000 0000000000000018 0000000000000000
MALLOC  000002B7C8389E00 0000000000000000 0000000000000018 0000000000000000
MALLOC  000002B7C83898A0 0000000000000000 0000000000000018 0000000000000000
MALLOC  000002B7C8389D60 0000000000000000 0000000000000018 0000000000000000
MALLOC  000002B7C8389840 0000000000000000 0000000000000018 0000000000000000
MALLOC  000002B7C83899C0 0000000000000000 0000000000000018 0000000000000000
MALLOC  000002B7C8389E40 0000000000000000 0000000000000018 0000000000000000
MALLOC  000002B7C83898C0 0000000000000000 0000000000000018 0000000000000000
MALLOC  000002B7C8389B00 0000000000000000 0000000000000018 0000000000000000
MALLOC  000002B7C8389CC0 0000000000000000 0000000000000018 0000000000000000
MALLOC  000002B7C8389860 0000000000000000 0000000000000018 0000000000000000
MALLOC  000002B7C8389A00 0000000000000000 0000000000000018 0000000000000000
MALLOC  000002B7C8389980 0000000000000000 0000000000000018 0000000000000000
MALLOC  000002B7C83897C0 0000000000000000 0000000000000018 0000000000000000
MALLOC  000002B7C8389D00 0000000000000000 0000000000000018 0000000000000000
MALLOC  000002B7C8389940 0000000000000000 0000000000000018 0000000000000000
MALLOC  000002B7C8389A80 0000000000000000 0000000000000018 0000000000000000
MALLOC  000002B7C8389AC0 0000000000000000 0000000000000018 0000000000000000
MALLOC  000002B7C8389D20 0000000000000000 0000000000000018 0000000000000000
MALLOC  000002B7C8389D40 0000000000000000 0000000000000018 0000000000000000
MALLOC  000002B7C8389CE0 0000000000000000 0000000000000018 0000000000000000
MALLOC  000002B7C8389C00 0000000000000000 0000000000000018 0000000000000000
MALLOC  000002B7C8389740 0000000000000000 0000000000000018 0000000000000000
MALLOC  000002B7C8389B40 0000000000000000 0000000000000018 0000000000000000
MALLOC  000002B7C8389B60 0000000000000000 0000000000000018 0000000000000000
MALLOC  000002B7C83899E0 0000000000000000 0000000000000018 0000000000000000
MALLOC  000002B7C8389B80 0000000000000000 0000000000000018 0000000000000000
MALLOC  000002B7C8389A20 0000000000000000 0000000000000018 0000000000000000
MALLOC  000002B7C8389A40 0000000000000000 0000000000000018 0000000000000000
MALLOC  000002B7C8389F00 0000000000000000 0000000000000018 0000000000000000
MALLOC  000002B7C8389AA0 0000000000000000 0000000000000018 0000000000000000
MALLOC  000002B7C8389C80 0000000000000000 0000000000000018 0000000000000000
MALLOC  000002B7C8389BA0 0000000000000000 0000000000000018 0000000000000000
MALLOC  000002B7C8389CA0 0000000000000000 0000000000000018 0000000000000000
MALLOC  000002B7C8389EE0 0000000000000000 0000000000000018 0000000000000000
MALLOC  000002B7C8389D80 0000000000000000 0000000000000018 0000000000000000
MALLOC  000002B7C8389EA0 0000000000000000 0000000000000018 0000000000000000
MALLOC  000002B7C8389900 0000000000000000 0000000000000018 0000000000000000
MALLOC  000002B7C8389E20 0000000000000000 0000000000000018 0000000000000000
MALLOC  000002B7C8389DA0 0000000000000000 0000000000000018 0000000000000000
MALLOC  000002B7C8389960 0000000000000000 0000000000000018 0000000000000000
MALLOC  000002B7C8389920 0000000000000000 0000000000000018 0000000000000000
MALLOC  000002B7C83898E0 0000000000000000 0000000000000018 0000000000000000
MALLOC  000002B7C8389DC0 0000000000000000 0000000000000018 0000000000000000
MALLOC  000002B7C8389BC0 0000000000000000 0000000000000018 0000000000000000
MALLOC  000002B7C8389A60 0000000000000000 0000000000000018 0000000000000000
MALLOC  000002B7C8389BE0 0000000000000000 0000000000000018 0000000000000000
MALLOC  000002B7C8389880 0000000000000000 0000000000000018 0000000000000000
MALLOC  000002B7C8389C20 0000000000000000 0000000000000018 0000000000000000
MALLOC  000002B7C8389AE0 0000000000000000 0000000000000018 0000000000000000
MALLOC  000002B7C8389C40 0000000000000000 0000000000000018 0000000000000000
MALLOC  000002B7C8389800 0000000000000000 0000000000000018 0000000000000000
MALLOC  000002B7C83899A0 0000000000000000 0000000000000018 0000000000000000
MALLOC  000002B7C8389C60 0000000000000000 0000000000000018 0000000000000000
MALLOC  000002B7C8389E60 0000000000000000 0000000000000018 0000000000000000
MALLOC  000002B7C8389E80 0000000000000000 0000000000000018 0000000000000000
MALLOC  000002B7C8389F20 0000000000000000 0000000000000018 0000000000000000
MALLOC  000002B7C8389EC0 0000000000000000 0000000000000018 0000000000000000
MALLOC  000002B7C8389760 0000000000000000 0000000000000018 0000000000000000
MALLOC  000002B7C8389780 0000000000000000 0000000000000018 0000000000000000
MALLOC  000002B7C83897A0 0000000000000000 0000000000000018 0000000000000000
MALLOC  000002B7C838A0A0 0000000000000000 0000000000000018 0000000000000000
MALLOC  000002B7C838A2E0 0000000000000000 0000000000000018 0000000000000000
MALLOC  000002B7C838A220 0000000000000000 0000000000000018 0000000000000000
MALLOC  000002B7C838A0C0 0000000000000000 0000000000000018 0000000000000000
MALLOC  000002B7C838A420 0000000000000000 0000000000000018 0000000000000000
MALLOC  000002B7C838A180 0000000000000000 0000000000000018 0000000000000000
MALLOC  000002B7C838A160 0000000000000000 0000000000000018 0000000000000000
MALLOC  000002B7C838A240 0000000000000000 0000000000000018 0000000000000000
MALLOC  000002B7C838A640 0000000000000000 0000000000000018 0000000000000000
MALLOC  000002B7C838A340 0000000000000000 0000000000000018 0000000000000000
MALLOC  000002B7C838A4C0 0000000000000000 0000000000000018 0000000000000000
MALLOC  000002B7C838A1A0 0000000000000000 0000000000000018 0000000000000000
MALLOC  000002B7C838A3E0 0000000000000000 0000000000000018 0000000000000000
MALLOC  000002B7C838A5E0 0000000000000000 0000000000000018 0000000000000000
MALLOC  000002B7C838A440 0000000000000000 0000000000000018 0000000000000000
MALLOC  000002B7C838A520 0000000000000000 0000000000000018 0000000000000000
MALLOC  000002B7C8389F80 0000000000000000 0000000000000018 0000000000000000
MALLOC  000002B7C838A2C0 0000000000000000 0000000000000018 0000000000000000
MALLOC  000002B7C838A680 0000000000000000 0000000000000018 0000000000000000
MALLOC  000002B7C838A6A0 0000000000000000 0000000000000018 0000000000000000
MALLOC  000002B7C8389FC0 0000000000000000 0000000000000018 0000000000000000
MALLOC  000002B7C838A6C0 0000000000000000 0000000000000018 0000000000000000
MALLOC  000002B7C838A580 0000000000000000 0000000000000018 0000000000000000
MALLOC  000002B7C838A6E0 0000000000000000 0000000000000018 0000000000000000
MALLOC  000002B7C838A0E0 0000000000000000 0000000000000018 0000000000000000
MALLOC  000002B7C838A380 0000000000000000 0000000000000018 0000000000000000
MALLOC  000002B7C838A460 0000000000000000 0000000000000018 0000000000000000
MALLOC  000002B7C838A5C0 0000000000000000 0000000000000018 0000000000000000
MALLOC  000002B7C838A260 0000000000000000 0000000000000018 0000000000000000
MALLOC  000002B7C838A400 0000000000000000 0000000000000018 0000000000000000
MALLOC  000002B7C838A480 0000000000000000 0000000000000018 0000000000000000
MALLOC  000002B7C838A060 0000000000000000 0000000000000018 0000000000000000
MALLOC  000002B7C838A100 0000000000000000 0000000000000018 0000000000000000
MALLOC  000002B7C838A5A0 0000000000000000 0000000000000018 0000000000000000
MALLOC  000002B7C838A600 0000000000000000 0000000000000018 0000000000000000
MALLOC  000002B7C838A3A0 0000000000000000 0000000000000018 0000000000000000
MALLOC  000002B7C8389FA0 0000000000000000 0000000000000018 0000000000000000
MALLOC  000002B7C838A620 0000000000000000 0000000000000018 0000000000000000
MALLOC  000002B7C838A540 0000000000000000 0000000000000018 0000000000000000
MALLOC  000002B7C838A4A0 0000000000000000 0000000000000018 0000000000000000
MALLOC  000002B7C838A3C0 0000000000000000 0000000000000018 0000000000000000
MALLOC  000002B7C838A360 0000000000000000 0000000000000018 0000000000000000
MALLOC  000002B7C838A700 0000000000000000 0000000000000018 0000000000000000
MALLOC  000002B7C838A660 0000000000000000 0000000000000018 0000000000000000
MALLOC  000002B7C8389FE0 0000000000000000 0000000000000018 0000000000000000
MALLOC  000002B7C838A720 0000000000000000 0000000000000018 0000000000000000
MALLOC  000002B7C8389F40 0000000000000000 0000000000000018 0000000000000000
MALLOC  000002B7C8389F60 0000000000000000 0000000000000018 0000000000000000
MALLOC  000002B7C838A4E0 0000000000000000 0000000000000018 0000000000000000
MALLOC  000002B7C838A560 0000000000000000 0000000000000018 0000000000000000
MALLOC  000002B7C838A080 0000000000000000 0000000000000018 0000000000000000
MALLOC  000002B7C838A000 0000000000000000 0000000000000018 0000000000000000
MALLOC  000002B7C838A500 0000000000000000 0000000000000018 0000000000000000
MALLOC  000002B7C838A020 0000000000000000 0000000000000018 0000000000000000
MALLOC  000002B7C838A040 0000000000000000 0000000000000018 0000000000000000
MALLOC  000002B7C838A120 0000000000000000 0000000000000018 0000000000000000
MALLOC  000002B7C838A140 0000000000000000 0000000000000018 0000000000000000
MALLOC  000002B7C838A1C0 0000000000000000 0000000000000018 0000000000000000
MALLOC  000002B7C838A1E0 0000000000000000 0000000000000018 0000000000000000
MALLOC  000002B7C838A200 0000000000000000 0000000000000018 0000000000000000
MALLOC  000002B7C838A280 0000000000000000 0000000000000018 0000000000000000
MALLOC  000002B7C838A2A0 0000000000000000 0000000000000018 0000000000000000
MALLOC  000002B7C838A300 0000000000000000 0000000000000018 0000000000000000
MALLOC  000002B7C838A320 0000000000000000 0000000000000018 0000000000000000
MALLOC  000002B7C838A820 0000000000000000 0000000000000018 0000000000000000
MALLOC  000002B7C838AA60 0000000000000000 0000000000000018 0000000000000000
MALLOC  000002B7C838AB40 0000000000000000 0000000000000018 0000000000000000
MALLOC  000002B7C838A9E0 0000000000000000 0000000000000018 0000000000000000
MALLOC  000002B7C838AB80 0000000000000000 0000000000000018 0000000000000000
MALLOC  000002B7C838AEA0 0000000000000000 0000000000000018 0000000000000000
MALLOC  000002B7C838AA00 0000000000000000 0000000000000018 0000000000000000
MALLOC  000002B7C838AC80 0000000000000000 0000000000000018 0000000000000000
MALLOC  000002B7C838AE00 0000000000000000 0000000000000018 0000000000000000
MALLOC  000002B7C838A760 0000000000000000 0000000000000018 0000000000000000
MALLOC  000002B7C838AF00 0000000000000000 0000000000000018 0000000000000000
MALLOC  000002B7C838AB60 0000000000000000 0000000000000018 0000000000000000
MALLOC  000002B7C838A980 0000000000000000 0000000000000018 0000000000000000
MALLOC  000002B7C838AA40 0000000000000000 0000000000000018 0000000000000000
MALLOC  000002B7C838A940 0000000000000000 0000000000000018 0000000000000000
MALLOC  000002B7C838AEC0 0000000000000000 0000000000000018 0000000000000000
MALLOC  000002B7C838AA20 0000000000000000 0000000000000018 0000000000000000
MALLOC  000002B7C838A7A0 0000000000000000 0000000000000018 0000000000000000
MALLOC  000002B7C838ADE0 0000000000000000 0000000000000018 0000000000000000
MALLOC  000002B7C838A860 0000000000000000 0000000000000018 0000000000000000
MALLOC  000002B7C838AAA0 0000000000000000 0000000000000018 0000000000000000
MALLOC  000002B7C838AD00 0000000000000000 0000000000000018 0000000000000000
MALLOC  000002B7C838AA80 0000000000000000 0000000000000018 0000000000000000
MALLOC  000002B7C838A9A0 0000000000000000 0000000000000018 0000000000000000
MALLOC  000002B7C838A920 0000000000000000 0000000000000018 0000000000000000
MALLOC  000002B7C838A880 0000000000000000 0000000000000018 0000000000000000
MALLOC  000002B7C838ABA0 0000000000000000 0000000000000018 0000000000000000
MALLOC  000002B7C838AAC0 0000000000000000 0000000000000018 0000000000000000
MALLOC  000002B7C838A9C0 0000000000000000 0000000000000018 0000000000000000
MALLOC  000002B7C838ABC0 0000000000000000 0000000000000018 0000000000000000
MALLOC  000002B7C838A7C0 0000000000000000 0000000000000018 0000000000000000
MALLOC  000002B7C838A960 0000000000000000 0000000000000018 0000000000000000
MALLOC  000002B7C838AE20 0000000000000000 0000000000000018 0000000000000000
MALLOC  000002B7C838AC00 0000000000000000 0000000000000018 0000000000000000
MALLOC  000002B7C838AB00 0000000000000000 0000000000000018 0000000000000000
MALLOC  000002B7C838AAE0 0000000000000000 0000000000000018 0000000000000000
MALLOC  000002B7C838ABE0 0000000000000000 0000000000000018 0000000000000000
MALLOC  000002B7C838ADA0 0000000000000000 0000000000000018 0000000000000000
MALLOC  000002B7C838AC20 0000000000000000 0000000000000018 0000000000000000
MALLOC  000002B7C838A740 0000000000000000 0000000000000018 0000000000000000
MALLOC  000002B7C838AC40 0000000000000000 0000000000000018 0000000000000000
MALLOC  000002B7C838AE40 0000000000000000 0000000000000018 0000000000000000
MALLOC  000002B7C838ADC0 0000000000000000 0000000000000018 0000000000000000
MALLOC  000002B7C838AE60 0000000000000000 0000000000000018 0000000000000000
MALLOC  000002B7C838AC60 0000000000000000 0000000000000018 0000000000000000
MALLOC  000002B7C838AB20 0000000000000000 0000000000000018 0000000000000000
MALLOC  000002B7C838ACA0 0000000000000000 0000000000000018 0000000000000000
MALLOC  000002B7C838AF20 0000000000000000 0000000000000018 0000000000000000
MALLOC  000002B7C838ACC0 0000000000000000 0000000000000018 0000000000000000
MALLOC  000002B7C838AD60 0000000000000000 0000000000000018 0000000000000000
MALLOC  000002B7C838AE80 0000000000000000 0000000000000018 0000000000000000
MALLOC  000002B7C838A840 0000000000000000 0000000000000018 0000000000000000
MALLOC  000002B7C838AEE0 0000000000000000 0000000000000018 0000000000000000
MALLOC  000002B7C838A780 0000000000000000 0000000000000018 0000000000000000
MALLOC  000002B7C838A7E0 0000000000000000 0000000000000018 0000000000000000
MALLOC  000002B7C838ACE0 0000000000000000 0000000000000018 0000000000000000
MALLOC  000002B7C838AD20 0000000000000000 0000000000000018 0000000000000000
MALLOC  000002B7C838A8A0 0000000000000000 0000000000000018 0000000000000000
MALLOC  000002B7C838A800 0000000000000000 0000000000000018 0000000000000000
MALLOC  000002B7C838AD40 0000000000000000 0000000000000018 0000000000000000
MALLOC  000002B7C838AD80 0000000000000000 0000000000000018 0000000000000000
MALLOC  000002B7C838A8C0 0000000000000000 0000000000000018 0000000000000000
MALLOC  000002B7C838A8E0 0000000000000000 0000000000000018 0000000000000000
MALLOC  000002B7C838A900 0000000000000000 0000000000000018 0000000000000000
MALLOC  000002B7C838B120 0000000000000000 0000000000000018 0000000000000000
MALLOC  000002B7C838B720 0000000000000000 0000000000000018 0000000000000000
MALLOC  000002B7C838B700 0000000000000000 0000000000000018 0000000000000000
MALLOC  000002B7C838B3A0 0000000000000000 0000000000000018 0000000000000000
MALLOC  000002B7C838B160 0000000000000000 0000000000000018 0000000000000000
MALLOC  000002B7C838B340 0000000000000000 0000000000000018 0000000000000000
MALLOC  000002B7C838B100 0000000000000000 0000000000000018 0000000000000000
MALLOC  000002B7C838B3E0 0000000000000000 0000000000000018 0000000000000000
MALLOC  000002B7C838B3C0 0000000000000000 0000000000000018 0000000000000000
MALLOC  000002B7C838B6A0 0000000000000000 0000000000000018 0000000000000000
MALLOC  000002B7C838AF60 0000000000000000 0000000000000018 0000000000000000
MALLOC  000002B7C838B440 0000000000000000 0000000000000018 0000000000000000
MALLOC  000002B7C838B5A0 0000000000000000 0000000000000018 0000000000000000
MALLOC  000002B7C838B4C0 0000000000000000 0000000000000018 0000000000000000
MALLOC  000002B7C838B0C0 0000000000000000 0000000000000018 0000000000000000
MALLOC  000002B7C838AF80 0000000000000000 0000000000000018 0000000000000000
MALLOC  000002B7C838B360 0000000000000000 0000000000000018 0000000000000000
MALLOC  000002B7C838B320 0000000000000000 0000000000000018 0000000000000000
MALLOC  000002B7C838B060 0000000000000000 0000000000000018 0000000000000000
MALLOC  000002B7C838B540 0000000000000000 0000000000000018 0000000000000000
MALLOC  000002B7C838B640 0000000000000000 0000000000000018 0000000000000000
MALLOC  000002B7C838B280 0000000000000000 0000000000000018 0000000000000000
MALLOC  000002B7C838B4E0 0000000000000000 0000000000000018 0000000000000000
MALLOC  000002B7C838B000 0000000000000000 0000000000000018 0000000000000000
MALLOC  000002B7C838B460 0000000000000000 0000000000000018 0000000000000000
MALLOC  000002B7C838B140 0000000000000000 0000000000000018 0000000000000000
MALLOC  000002B7C838B380 0000000000000000 0000000000000018 0000000000000000
MALLOC  000002B7C838B180 0000000000000000 0000000000000018 0000000000000000
MALLOC  000002B7C838B4A0 0000000000000000 0000000000000018 0000000000000000
MALLOC  000002B7C838B480 0000000000000000 0000000000000018 0000000000000000
MALLOC  000002B7C838B400 0000000000000000 0000000000000018 0000000000000000
MALLOC  000002B7C838B560 0000000000000000 0000000000000018 0000000000000000
MALLOC  000002B7C838B420 0000000000000000 0000000000000018 0000000000000000
MALLOC  000002B7C838AFA0 0000000000000000 0000000000000018 0000000000000000
MALLOC  000002B7C838B2A0 0000000000000000 0000000000000018 0000000000000000
MALLOC  000002B7C838B500 0000000000000000 0000000000000018 0000000000000000
MALLOC  000002B7C838AFE0 0000000000000000 0000000000000018 0000000000000000
MALLOC  000002B7C838B220 0000000000000000 0000000000000018 0000000000000000
MALLOC  000002B7C838B020 0000000000000000 0000000000000018 0000000000000000
MALLOC  000002B7C838B520 0000000000000000 0000000000000018 0000000000000000
MALLOC  000002B7C838B580 0000000000000000 0000000000000018 0000000000000000
MALLOC  000002B7C838B5C0 0000000000000000 0000000000000018 0000000000000000
MALLOC  000002B7C838B5E0 0000000000000000 0000000000000018 0000000000000000
MALLOC  000002B7C838B600 0000000000000000 0000000000000018 0000000000000000
MALLOC  000002B7C838B040 0000000000000000 0000000000000018 0000000000000000
MALLOC  000002B7C838B080 0000000000000000 0000000000000018 0000000000000000
MALLOC  000002B7C838B620 0000000000000000 0000000000000018 0000000000000000
MALLOC  000002B7C838B0A0 0000000000000000 0000000000000018 0000000000000000
MALLOC  000002B7C838B660 0000000000000000 0000000000000018 0000000000000000
MALLOC  000002B7C838B0E0 0000000000000000 0000000000000018 0000000000000000
MALLOC  000002B7C838B1C0 0000000000000000 0000000000000018 0000000000000000
MALLOC  000002B7C838B680 0000000000000000 0000000000000018 0000000000000000
MALLOC  000002B7C838B1A0 0000000000000000 0000000000000018 0000000000000000
MALLOC  000002B7C838B300 0000000000000000 0000000000000018 0000000000000000
MALLOC  000002B7C838B6C0 0000000000000000 0000000000000018 0000000000000000
MALLOC  000002B7C838B1E0 0000000000000000 0000000000000018 0000000000000000
MALLOC  000002B7C838B200 0000000000000000 0000000000000018 0000000000000000
MALLOC  000002B7C838B240 0000000000000000 0000000000000018 0000000000000000
MALLOC  000002B7C838AFC0 0000000000000000 0000000000000018 0000000000000000
MALLOC  000002B7C838B6E0 0000000000000000 0000000000000018 0000000000000000
MALLOC  000002B7C838B260 0000000000000000 0000000000000018 0000000000000000
MALLOC  000002B7C838B2C0 0000000000000000 0000000000000018 0000000000000000
MALLOC  000002B7C838B2E0 0000000000000000 0000000000000018 0000000000000000
MALLOC  000002B7C838AF40 0000000000000000 0000000000000018 0000000000000000
MALLOC  000002B7C838BD00 0000000000000000 0000000000000018 0000000000000000
MALLOC  000002B7C838BCC0 0000000000000000 0000000000000018 0000000000000000
MALLOC  000002B7C838BC00 0000000000000000 0000000000000018 0000000000000000
MALLOC  000002B7C838B740 0000000000000000 0000000000000018 0000000000000000
MALLOC  000002B7C838BB00 0000000000000000 0000000000000018 0000000000000000
MALLOC  000002B7C838BB20 0000000000000000 0000000000000018 0000000000000000
MALLOC  000002B7C838B9C0 0000000000000000 0000000000000018 0000000000000000
MALLOC  000002B7C838BB60 0000000000000000 0000000000000018 0000000000000000
MALLOC  000002B7C838B9E0 0000000000000000 0000000000000018 0000000000000000
MALLOC  000002B7C838BA00 0000000000000000 0000000000000018 0000000000000000
MALLOC  000002B7C838BF00 0000000000000000 0000000000000018 0000000000000000
MALLOC  000002B7C838BA80 0000000000000000 0000000000000018 0000000000000000
MALLOC  000002B7C838BC80 0000000000000000 0000000000000018 0000000000000000
MALLOC  000002B7C838BB40 0000000000000000 0000000000000018 0000000000000000
MALLOC  000002B7C838BCA0 0000000000000000 0000000000000018 0000000000000000
MALLOC  000002B7C838BEE0 0000000000000000 0000000000000018 0000000000000000
MALLOC  000002B7C838BD40 0000000000000000 0000000000000018 0000000000000000
MALLOC  000002B7C838BEA0 0000000000000000 0000000000000018 0000000000000000
MALLOC  000002B7C838B900 0000000000000000 0000000000000018 0000000000000000
MALLOC  000002B7C838BE00 0000000000000000 0000000000000018 0000000000000000
MALLOC  000002B7C838BCE0 0000000000000000 0000000000000018 0000000000000000
MALLOC  000002B7C838B940 0000000000000000 0000000000000018 0000000000000000
MALLOC  000002B7C838B920 0000000000000000 0000000000000018 0000000000000000
MALLOC  000002B7C838B8A0 0000000000000000 0000000000000018 0000000000000000
MALLOC  000002B7C838BD20 0000000000000000 0000000000000018 0000000000000000
MALLOC  000002B7C838BB80 0000000000000000 0000000000000018 0000000000000000
MALLOC  000002B7C838BA40 0000000000000000 0000000000000018 0000000000000000
MALLOC  000002B7C838BBA0 0000000000000000 0000000000000018 0000000000000000
MALLOC  000002B7C838B820 0000000000000000 0000000000000018 0000000000000000
MALLOC  000002B7C838BBC0 0000000000000000 0000000000000018 0000000000000000
MALLOC  000002B7C838BA60 0000000000000000 0000000000000018 0000000000000000
MALLOC  000002B7C838BAA0 0000000000000000 0000000000000018 0000000000000000
MALLOC  000002B7C838B7E0 0000000000000000 0000000000000018 0000000000000000
MALLOC  000002B7C838B8C0 0000000000000000 0000000000000018 0000000000000000
MALLOC  000002B7C838B860 0000000000000000 0000000000000018 0000000000000000
MALLOC  000002B7C838BBE0 0000000000000000 0000000000000018 0000000000000000
MALLOC  000002B7C838B840 0000000000000000 0000000000000018 0000000000000000
MALLOC  000002B7C838BF20 0000000000000000 0000000000000018 0000000000000000
MALLOC  000002B7C838BAC0 0000000000000000 0000000000000018 0000000000000000
MALLOC  000002B7C838B800 0000000000000000 0000000000000018 0000000000000000
MALLOC  000002B7C838BE20 0000000000000000 0000000000000018 0000000000000000
MALLOC  000002B7C838BC20 0000000000000000 0000000000000018 0000000000000000
MALLOC  000002B7C838B8E0 0000000000000000 0000000000000018 0000000000000000
MALLOC  000002B7C838BAE0 0000000000000000 0000000000000018 0000000000000000
MALLOC  000002B7C838BA20 0000000000000000 0000000000000018 0000000000000000
MALLOC  000002B7C838B960 0000000000000000 0000000000000018 0000000000000000
MALLOC  000002B7C838BC40 0000000000000000 0000000000000018 0000000000000000
MALLOC  000002B7C838B980 0000000000000000 0000000000000018 0000000000000000
MALLOC  000002B7C838B9A0 0000000000000000 0000000000000018 0000000000000000
MALLOC  000002B7C838BC60 0000000000000000 0000000000000018 0000000000000000
MALLOC  000002B7C838BE40 0000000000000000 0000000000000018 0000000000000000
MALLOC  000002B7C838BD60 0000000000000000 0000000000000018 0000000000000000
MALLOC  000002B7C838BD80 0000000000000000 0000000000000018 0000000000000000
MALLOC  000002B7C838BDA0 0000000000000000 0000000000000018 0000000000000000
MALLOC  000002B7C838BDC0 0000000000000000 0000000000000018 0000000000000000
MALLOC  000002B7C838BDE0 0000000000000000 0000000000000018 0000000000000000
MALLOC  000002B7C838BE60 0000000000000000 0000000000000018 0000000000000000
MALLOC  000002B7C838BE80 0000000000000000 0000000000000018 0000000000000000
MALLOC  000002B7C838B780 0000000000000000 0000000000000018 0000000000000000
MALLOC  000002B7C838BEC0 0000000000000000 0000000000000018 0000000000000000
MALLOC  000002B7C838B760 0000000000000000 0000000000000018 0000000000000000
MALLOC  000002B7C838B7A0 0000000000000000 0000000000000018 0000000000000000
MALLOC  000002B7C838B7C0 0000000000000000 0000000000000018 0000000000000000
MALLOC  000002B7C838B880 0000000000000000 0000000000000018 0000000000000000
MALLOC  000002B7C838C580 0000000000000000 0000000000000018 0000000000000000
MALLOC  000002B7C838C6A0 0000000000000000 0000000000000018 0000000000000000
MALLOC  000002B7C838C0E0 0000000000000000 0000000000000018 0000000000000000
MALLOC  000002B7C838C380 0000000000000000 0000000000000018 0000000000000000
MALLOC  000002B7C838C460 0000000000000000 0000000000000018 0000000000000000
MALLOC  000002B7C838C5C0 0000000000000000 0000000000000018 0000000000000000
MALLOC  000002B7C838C220 0000000000000000 0000000000000018 0000000000000000
MALLOC  000002B7C838C400 0000000000000000 0000000000000018 0000000000000000
MALLOC  000002B7C838C420 0000000000000000 0000000000000018 0000000000000000
MALLOC  000002B7C838C060 0000000000000000 0000000000000018 0000000000000000
MALLOC  000002B7C838C100 0000000000000000 0000000000000018 0000000000000000
MALLOC  000002B7C838C5A0 0000000000000000 0000000000000018 0000000000000000
MALLOC  000002B7C838C5E0 0000000000000000 0000000000000018 0000000000000000
MALLOC  000002B7C838C3A0 0000000000000000 0000000000000018 0000000000000000
MALLOC  000002B7C838BF80 0000000000000000 0000000000000018 0000000000000000
MALLOC  000002B7C838C600 0000000000000000 0000000000000018 0000000000000000
MALLOC  000002B7C838C540 0000000000000000 0000000000000018 0000000000000000
MALLOC  000002B7C838C440 0000000000000000 0000000000000018 0000000000000000
MALLOC  000002B7C838C3C0 0000000000000000 0000000000000018 0000000000000000
MALLOC  000002B7C838C340 0000000000000000 0000000000000018 0000000000000000
MALLOC  000002B7C838C700 0000000000000000 0000000000000018 0000000000000000
MALLOC  000002B7C838C620 0000000000000000 0000000000000018 0000000000000000
MALLOC  000002B7C838BFE0 0000000000000000 0000000000000018 0000000000000000
MALLOC  000002B7C838C640 0000000000000000 0000000000000018 0000000000000000
MALLOC  000002B7C838C660 0000000000000000 0000000000000018 0000000000000000
MALLOC  000002B7C838C680 0000000000000000 0000000000000018 0000000000000000
MALLOC  000002B7C838C480 0000000000000000 0000000000000018 0000000000000000
MALLOC  000002B7C838C560 0000000000000000 0000000000000018 0000000000000000
MALLOC  000002B7C838C080 0000000000000000 0000000000000018 0000000000000000
MALLOC  000002B7C838C6C0 0000000000000000 0000000000000018 0000000000000000
MALLOC  000002B7C838C3E0 0000000000000000 0000000000000018 0000000000000000
MALLOC  000002B7C838C6E0 0000000000000000 0000000000000018 0000000000000000
MALLOC  000002B7C838C720 0000000000000000 0000000000000018 0000000000000000
MALLOC  000002B7C838C4A0 0000000000000000 0000000000000018 0000000000000000
MALLOC  000002B7C838C360 0000000000000000 0000000000000018 0000000000000000
MALLOC  000002B7C838C020 0000000000000000 0000000000000018 0000000000000000
