FUNC    out pointer      in pointer       alloc size       fill num        END
MALLOC  000001B5927DD800 0000000000000000 0000000000000018 0000000000000000
MALLOC  000001B5927DD680 0000000000000000 0000000000000018 0000000000000000
MALLOC  000001B5927DD7C0 0000000000000000 0000000000000018 0000000000000000
MALLOC  000001B5927DD8C0 0000000000000000 0000000000000018 0000000000000000
MALLOC  000001B5927DD880 0000000000000000 0000000000000018 0000000000000000
MALLOC  000001B5927DD5C0 0000000000000000 0000000000000018 0000000000000000
MALLOC  000001B5927DD8E0 0000000000000000 0000000000000018 0000000000000000
MALLOC  000001B5927DD5E0 0000000000000000 0000000000000018 0000000000000000
MALLOC  000001B5927DD900 0000000000000000 0000000000000018 0000000000000000
MALLOC  000001B5927DD840 0000000000000000 0000000000000018 0000000000000000
MALLOC  000001B5927DD6E0 0000000000000000 0000000000000018 0000000000000000
MALLOC  000001B5927DD660 0000000000000000 0000000000000018 0000000000000000
MALLOC  000001B5927DD6A0 0000000000000000 0000000000000018 0000000000000000
MALLOC  000001B5927DD6C0 0000000000000000 0000000000000018 0000000000000000
MALLOC  000001B5927DD700 0000000000000000 0000000000000018 0000000000000000
MALLOC  000001B5927DD780 0000000000000000 0000000000000018 0000000000000000
MALLOC  000001B5927DD600 0000000000000000 0000000000000018 0000000000000000
MALLOC  000001B5927DD5A0 0000000000000000 0000000000000018 0000000000000000
MALLOC  000001B5927DD720 0000000000000000 0000000000000018 0000000000000000
MALLOC  000001B5927DD740 0000000000000000 0000000000000018 0000000000000000
MALLOC  000001B5927DD760 0000000000000000 0000000000000018 0000000000000000
MALLOC  000001B5927DD7A0 0000000000000000 0000000000000018 0000000000000000
MALLOC  000001B5927DD7E0 0000000000000000 0000000000000018 0000000000000000
MALLOC  000001B5927DD820 0000000000000000 0000000000000018 0000000000000000
MALLOC  000001B5927DD860 0000000000000000 0000000000000018 0000000000000000
MALLOC  000001B5927E1B90 0000000000000000 0000000000000018 0000000000000000
MALLOC  000001B5927E1930 0000000000000000 0000000000000018 0000000000000000
MALLOC  000001B5927E1CF0 0000000000000000 0000000000000018 0000000000000000
MALLOC  000001B5927E1730 0000000000000000 0000000000000018 0000000000000000
MALLOC  000001B5927E17D0 0000000000000000 0000000000000018 0000000000000000
MALLOC  000001B5927E1630 0000000000000000 0000000000000018 0000000000000000
MALLOC  000001B5927E1A50 0000000000000000 0000000000000018 0000000000000000
MALLOC  000001B5927E1D90 0000000000000000 0000000000000018 0000000000000000
MALLOC  000001B5927E1A10 0000000000000000 0000000000000018 0000000000000000
MALLOC  000001B5927E1BF0 0000000000000000 0000000000000018 0000000000000000
MALLOC  000001B5927E18B0 0000000000000000 0000000000000018 0000000000000000
MALLOC  000001B5927E1710 0000000000000000 0000000000000018 0000000000000000
MALLOC  000001B5927E1CD0 0000000000000000 0000000000000018 0000000000000000
MALLOC  000001B5927E1810 0000000000000000 0000000000000018 0000000000000000
MALLOC  000001B5927E1750 0000000000000000 0000000000000018 0000000000000000
MALLOC  000001B5927E1C30 0000000000000000 0000000000000018 0000000000000000
MALLOC  000001B5927E1790 0000000000000000 0000000000000018 0000000000000000
MALLOC  000001B5927E1A30 0000000000000000 0000000000000018 0000000000000000
MALLOC  000001B5927E1A90 0000000000000000 0000000000000018 0000000000000000
MALLOC  000001B5927E1A70 0000000000000000 0000000000000018 0000000000000000
MALLOC  000001B5927E1950 0000000000000000 0000000000000018 0000000000000000
MALLOC  000001B5927E1C50 0000000000000000 0000000000000018 0000000000000000
MALLOC  000001B5927E1830 0000000000000000 0000000000000018 0000000000000000
MALLOC  000001B5927E17F0 0000000000000000 0000000000000018 0000000000000000
MALLOC  000001B5927E1AB0 0000000000000000 0000000000000018 0000000000000000
MALLOC  000001B5927E1850 0000000000000000 0000000000000018 0000000000000000
MALLOC  000001B5927E1870 0000000000000000 0000000000000018 0000000000000000
MALLOC  000001B5927E1AD0 0000000000000000 0000000000000018 0000000000000000
MALLOC  000001B5927E1770 0000000000000000 0000000000000018 0000000000000000
MALLOC  000001B5927E1890 0000000000000000 0000000000000018 0000000000000000
MALLOC  000001B5927E16F0 0000000000000000 0000000000000018 0000000000000000
MALLOC  000001B5927E1BD0 0000000000000000 0000000000000018 0000000000000000
MALLOC  000001B5927E1910 0000000000000000 0000000000000018 0000000000000000
MALLOC  000001B5927E18D0 0000000000000000 0000000000000018 0000000000000000
MALLOC  000001B5927E1650 0000000000000000 0000000000000018 0000000000000000
MALLOC  000001B5927E18F0 0000000000000000 0000000000000018 0000000000000000
MALLOC  000001B5927E1970 0000000000000000 0000000000000018 0000000000000000
MALLOC  000001B5927E1990 0000000000000000 0000000000000018 0000000000000000
MALLOC  000001B5927E19B0 0000000000000000 0000000000000018 0000000000000000
MALLOC  000001B5927E1D10 0000000000000000 0000000000000018 0000000000000000
MALLOC  000001B5927E19D0 0000000000000000 0000000000000018 0000000000000000
MALLOC  000001B5927E1BB0 0000000000000000 0000000000000018 0000000000000000
MALLOC  000001B5927E1D30 0000000000000000 0000000000000018 0000000000000000
MALLOC  000001B5927E19F0 0000000000000000 0000000000000018 0000000000000000
MALLOC  000001B5927E1B30 0000000000000000 0000000000000018 0000000000000000
MALLOC  000001B5927E1B70 0000000000000000 0000000000000018 0000000000000000
MALLOC  000001B5927E1AF0 0000000000000000 0000000000000018 0000000000000000
MALLOC  000001B5927E1B10 0000000000000000 0000000000000018 0000000000000000
MALLOC  000001B5927E1B50 0000000000000000 0000000000000018 0000000000000000
MALLOC  000001B5927E1C10 0000000000000000 0000000000000018 0000000000000000
MALLOC  000001B5927E16B0 0000000000000000 0000000000000018 0000000000000000
MALLOC  000001B5927E1670 0000000000000000 0000000000000018 0000000000000000
MALLOC  000001B5927E1C70 0000000000000000 0000000000000018 0000000000000000
MALLOC  000001B5927E1C90 0000000000000000 0000000000000018 0000000000000000
MALLOC  000001B5927E1CB0 0000000000000000 0000000000000018 0000000000000000
MALLOC  000001B5927E1D50 0000000000000000 0000000000000018 0000000000000000
MALLOC  000001B5927E1D70 0000000000000000 0000000000000018 0000000000000000
MALLOC  000001B5927E17B0 0000000000000000 0000000000000018 0000000000000000
MALLOC  000001B5927E1DB0 0000000000000000 0000000000000018 0000000000000000
MALLOC  000001B5927E1690 0000000000000000 0000000000000018 0000000000000000
MALLOC  000001B5927E16D0 0000000000000000 0000000000000018 0000000000000000
MALLOC  000001B5927E2540 0000000000000000 0000000000000018 0000000000000000
MALLOC  000001B5927E21C0 0000000000000000 0000000000000018 0000000000000000
MALLOC  000001B5927E25C0 0000000000000000 0000000000000018 0000000000000000
MALLOC  000001B5927E1F20 0000000000000000 0000000000000018 0000000000000000
MALLOC  000001B5927E2100 0000000000000000 0000000000000018 0000000000000000
MALLOC  000001B5927E2580 0000000000000000 0000000000000018 0000000000000000
MALLOC  000001B5927E2180 0000000000000000 0000000000000018 0000000000000000
MALLOC  000001B5927E1FC0 0000000000000000 0000000000000018 0000000000000000
MALLOC  000001B5927E2220 0000000000000000 0000000000000018 0000000000000000
MALLOC  000001B5927E2520 0000000000000000 0000000000000018 0000000000000000
MALLOC  000001B5927E24A0 0000000000000000 0000000000000018 0000000000000000
MALLOC  000001B5927E22E0 0000000000000000 0000000000000018 0000000000000000
MALLOC  000001B5927E23E0 0000000000000000 0000000000000018 0000000000000000
MALLOC  000001B5927E21E0 0000000000000000 0000000000000018 0000000000000000
MALLOC  000001B5927E2380 0000000000000000 0000000000000018 0000000000000000
MALLOC  000001B5927E2300 0000000000000000 0000000000000018 0000000000000000
MALLOC  000001B5927E2120 0000000000000000 0000000000000018 0000000000000000
MALLOC  000001B5927E2200 0000000000000000 0000000000000018 0000000000000000
MALLOC  000001B5927E2480 0000000000000000 0000000000000018 0000000000000000
MALLOC  000001B5927E22A0 0000000000000000 0000000000000018 0000000000000000
MALLOC  000001B5927E2240 0000000000000000 0000000000000018 0000000000000000
MALLOC  000001B5927E1F40 0000000000000000 0000000000000018 0000000000000000
MALLOC  000001B5927E20A0 0000000000000000 0000000000000018 0000000000000000
MALLOC  000001B5927E1F80 0000000000000000 0000000000000018 0000000000000000
MALLOC  000001B5927E2160 0000000000000000 0000000000000018 0000000000000000
MALLOC  000001B5927E2280 0000000000000000 0000000000000018 0000000000000000
MALLOC  000001B5927E23A0 0000000000000000 0000000000000018 0000000000000000
MALLOC  000001B5927E2260 0000000000000000 0000000000000018 0000000000000000
MALLOC  000001B5927E1FE0 0000000000000000 0000000000000018 0000000000000000
MALLOC  000001B5927E22C0 0000000000000000 0000000000000018 0000000000000000
MALLOC  000001B5927E1F00 0000000000000000 0000000000000018 0000000000000000
MALLOC  000001B5927E2560 0000000000000000 0000000000000018 0000000000000000
MALLOC  000001B5927E2140 0000000000000000 0000000000000018 0000000000000000
MALLOC  000001B5927E21A0 0000000000000000 0000000000000018 0000000000000000
MALLOC  000001B5927E2500 0000000000000000 0000000000000018 0000000000000000
MALLOC  000001B5927E2460 0000000000000000 0000000000000018 0000000000000000
MALLOC  000001B5927E2400 0000000000000000 0000000000000018 0000000000000000
MALLOC  000001B5927E23C0 0000000000000000 0000000000000018 0000000000000000
MALLOC  000001B5927E2320 0000000000000000 0000000000000018 0000000000000000
MALLOC  000001B5927E2340 0000000000000000 0000000000000018 0000000000000000
MALLOC  000001B5927E1F60 0000000000000000 0000000000000018 0000000000000000
MALLOC  000001B5927E2360 0000000000000000 0000000000000018 0000000000000000
MALLOC  000001B5927E1FA0 0000000000000000 0000000000000018 0000000000000000
MALLOC  000001B5927E25A0 0000000000000000 0000000000000018 0000000000000000
MALLOC  000001B5927E20C0 0000000000000000 0000000000000018 0000000000000000
MALLOC  000001B5927E1E40 0000000000000000 0000000000000018 0000000000000000
MALLOC  000001B5927E2420 0000000000000000 0000000000000018 0000000000000000
MALLOC  000001B5927E24C0 0000000000000000 0000000000000018 0000000000000000
MALLOC  000001B5927E2440 0000000000000000 0000000000000018 0000000000000000
MALLOC  000001B5927E2000 0000000000000000 0000000000000018 0000000000000000
MALLOC  000001B5927E24E0 0000000000000000 0000000000000018 0000000000000000
MALLOC  000001B5927E1E60 0000000000000000 0000000000000018 0000000000000000
MALLOC  000001B5927E1E80 0000000000000000 0000000000000018 0000000000000000
MALLOC  000001B5927E1EA0 0000000000000000 0000000000000018 0000000000000000
MALLOC  000001B5927E2020 0000000000000000 0000000000000018 0000000000000000
MALLOC  000001B5927E1EE0 0000000000000000 0000000000000018 0000000000000000
MALLOC  000001B5927E2040 0000000000000000 0000000000000018 0000000000000000
MALLOC  000001B5927E2060 0000000000000000 0000000000000018 0000000000000000
MALLOC  000001B5927E2080 0000000000000000 0000000000000018 0000000000000000
MALLOC  000001B5927E1EC0 0000000000000000 0000000000000018 0000000000000000
MALLOC  000001B5927E20E0 0000000000000000 0000000000000018 0000000000000000
MALLOC  000001B5927E2810 0000000000000000 0000000000000018 0000000000000000
MALLOC  000001B5927E2AD0 0000000000000000 0000000000000018 0000000000000000
MALLOC  000001B5927E28F0 0000000000000000 0000000000000018 0000000000000000
MALLOC  000001B5927E2870 0000000000000000 0000000000000018 0000000000000000
MALLOC  000001B5927E2B50 0000000000000000 0000000000000018 0000000000000000
MALLOC  000001B5927E2BD0 0000000000000000 0000000000000018 0000000000000000
MALLOC  000001B5927E2750 0000000000000000 0000000000000018 0000000000000000
MALLOC  000001B5927E2930 0000000000000000 0000000000000018 0000000000000000
MALLOC  000001B5927E2CF0 0000000000000000 0000000000000018 0000000000000000
MALLOC  000001B5927E2A10 0000000000000000 0000000000000018 0000000000000000
MALLOC  000001B5927E2B70 0000000000000000 0000000000000018 0000000000000000
MALLOC  000001B5927E2730 0000000000000000 0000000000000018 0000000000000000
MALLOC  000001B5927E2D50 0000000000000000 0000000000000018 0000000000000000
MALLOC  000001B5927E2950 0000000000000000 0000000000000018 0000000000000000
MALLOC  000001B5927E2970 0000000000000000 0000000000000018 0000000000000000
MALLOC  000001B5927E2D10 0000000000000000 0000000000000018 0000000000000000
MALLOC  000001B5927E2C70 0000000000000000 0000000000000018 0000000000000000
MALLOC  000001B5927E2C10 0000000000000000 0000000000000018 0000000000000000
MALLOC  000001B5927E2B90 0000000000000000 0000000000000018 0000000000000000
MALLOC  000001B5927E2B30 0000000000000000 0000000000000018 0000000000000000
MALLOC  000001B5927E2A50 0000000000000000 0000000000000018 0000000000000000
MALLOC  000001B5927E2770 0000000000000000 0000000000000018 0000000000000000
MALLOC  000001B5927E2990 0000000000000000 0000000000000018 0000000000000000
MALLOC  000001B5927E2790 0000000000000000 0000000000000018 0000000000000000
MALLOC  000001B5927E2D30 0000000000000000 0000000000000018 0000000000000000
MALLOC  000001B5927E28D0 0000000000000000 0000000000000018 0000000000000000
MALLOC  000001B5927E2DB0 0000000000000000 0000000000000018 0000000000000000
MALLOC  000001B5927E29B0 0000000000000000 0000000000000018 0000000000000000
MALLOC  000001B5927E2C50 0000000000000000 0000000000000018 0000000000000000
MALLOC  000001B5927E29D0 0000000000000000 0000000000000018 0000000000000000
MALLOC  000001B5927E2710 0000000000000000 0000000000000018 0000000000000000
MALLOC  000001B5927E2BB0 0000000000000000 0000000000000018 0000000000000000
MALLOC  000001B5927E29F0 0000000000000000 0000000000000018 0000000000000000
MALLOC  000001B5927E2C30 0000000000000000 0000000000000018 0000000000000000
MALLOC  000001B5927E2D90 0000000000000000 0000000000000018 0000000000000000
MALLOC  000001B5927E27B0 0000000000000000 0000000000000018 0000000000000000
MALLOC  000001B5927E2670 0000000000000000 0000000000000018 0000000000000000
MALLOC  000001B5927E2690 0000000000000000 0000000000000018 0000000000000000
MALLOC  000001B5927E2850 0000000000000000 0000000000000018 0000000000000000
MALLOC  000001B5927E2830 0000000000000000 0000000000000018 0000000000000000
MALLOC  000001B5927E2A30 0000000000000000 0000000000000018 0000000000000000
MALLOC  000001B5927E26F0 0000000000000000 0000000000000018 0000000000000000
MALLOC  000001B5927E27D0 0000000000000000 0000000000000018 0000000000000000
MALLOC  000001B5927E2890 0000000000000000 0000000000000018 0000000000000000
MALLOC  000001B5927E2AF0 0000000000000000 0000000000000018 0000000000000000
MALLOC  000001B5927E2910 0000000000000000 0000000000000018 0000000000000000
MALLOC  000001B5927E28B0 0000000000000000 0000000000000018 0000000000000000
MALLOC  000001B5927E2BF0 0000000000000000 0000000000000018 0000000000000000
MALLOC  000001B5927E2C90 0000000000000000 0000000000000018 0000000000000000
MALLOC  000001B5927E27F0 0000000000000000 0000000000000018 0000000000000000
MALLOC  000001B5927E2A70 0000000000000000 0000000000000018 0000000000000000
MALLOC  000001B5927E2D70 0000000000000000 0000000000000018 0000000000000000
MALLOC  000001B5927E2A90 0000000000000000 0000000000000018 0000000000000000
MALLOC  000001B5927E2CB0 0000000000000000 0000000000000018 0000000000000000
MALLOC  000001B5927E2AB0 0000000000000000 0000000000000018 0000000000000000
MALLOC  000001B5927E2B10 0000000000000000 0000000000000018 0000000000000000
MALLOC  000001B5927E2CD0 0000000000000000 0000000000000018 0000000000000000
MALLOC  000001B5927E2DD0 0000000000000000 0000000000000018 0000000000000000
MALLOC  000001B5927E2650 0000000000000000 0000000000000018 0000000000000000
MALLOC  000001B5927E26B0 0000000000000000 0000000000000018 0000000000000000
MALLOC  000001B5927E26D0 0000000000000000 0000000000000018 0000000000000000
MALLOC  000001B5927E3260 0000000000000000 0000000000000018 0000000000000000
MALLOC  000001B5927E2F80 0000000000000000 0000000000000018 0000000000000000
MALLOC  000001B5927E2FA0 0000000000000000 0000000000000018 0000000000000000
MALLOC  000001B5927E2FC0 0000000000000000 0000000000000018 0000000000000000
MALLOC  000001B5927E3160 0000000000000000 0000000000000018 0000000000000000
MALLOC  000001B5927E3180 0000000000000000 0000000000000018 0000000000000000
MALLOC  000001B5927E34A0 0000000000000000 0000000000000018 0000000000000000
MALLOC  000001B5927E35E0 0000000000000000 0000000000000018 0000000000000000
MALLOC  000001B5927E31A0 0000000000000000 0000000000000018 0000000000000000
MALLOC  000001B5927E33A0 0000000000000000 0000000000000018 0000000000000000
MALLOC  000001B5927E2E60 0000000000000000 0000000000000018 0000000000000000
MALLOC  000001B5927E2F20 0000000000000000 0000000000000018 0000000000000000
MALLOC  000001B5927E31E0 0000000000000000 0000000000000018 0000000000000000
MALLOC  000001B5927E3300 0000000000000000 0000000000000018 0000000000000000
MALLOC  000001B5927E31C0 0000000000000000 0000000000000018 0000000000000000
MALLOC  000001B5927E3280 0000000000000000 0000000000000018 0000000000000000
MALLOC  000001B5927E2FE0 0000000000000000 0000000000000018 0000000000000000
MALLOC  000001B5927E32E0 0000000000000000 0000000000000018 0000000000000000
MALLOC  000001B5927E3580 0000000000000000 0000000000000018 0000000000000000
MALLOC  000001B5927E2E80 0000000000000000 0000000000000018 0000000000000000
MALLOC  000001B5927E2F40 0000000000000000 0000000000000018 0000000000000000
MALLOC  000001B5927E3320 0000000000000000 0000000000000018 0000000000000000
MALLOC  000001B5927E33C0 0000000000000000 0000000000000018 0000000000000000
MALLOC  000001B5927E2F60 0000000000000000 0000000000000018 0000000000000000
MALLOC  000001B5927E3000 0000000000000000 0000000000000018 0000000000000000
MALLOC  000001B5927E3420 0000000000000000 0000000000000018 0000000000000000
MALLOC  000001B5927E33E0 0000000000000000 0000000000000018 0000000000000000
MALLOC  000001B5927E3020 0000000000000000 0000000000000018 0000000000000000
MALLOC  000001B5927E32C0 0000000000000000 0000000000000018 0000000000000000
MALLOC  000001B5927E32A0 0000000000000000 0000000000000018 0000000000000000
MALLOC  000001B5927E3400 0000000000000000 0000000000000018 0000000000000000
MALLOC  000001B5927E3040 0000000000000000 0000000000000018 0000000000000000
MALLOC  000001B5927E3080 0000000000000000 0000000000000018 0000000000000000
MALLOC  000001B5927E3200 0000000000000000 0000000000000018 0000000000000000
MALLOC  000001B5927E3340 0000000000000000 0000000000000018 0000000000000000
MALLOC  000001B5927E3380 0000000000000000 0000000000000018 0000000000000000
MALLOC  000001B5927E3440 0000000000000000 0000000000000018 0000000000000000
MALLOC  000001B5927E2EC0 0000000000000000 0000000000000018 0000000000000000
MALLOC  000001B5927E3120 0000000000000000 0000000000000018 0000000000000000
MALLOC  000001B5927E3220 0000000000000000 0000000000000018 0000000000000000
MALLOC  000001B5927E3240 0000000000000000 0000000000000018 0000000000000000
MALLOC  000001B5927E2EA0 0000000000000000 0000000000000018 0000000000000000
MALLOC  000001B5927E3460 0000000000000000 0000000000000018 0000000000000000
MALLOC  000001B5927E3060 0000000000000000 0000000000000018 0000000000000000
MALLOC  000001B5927E35C0 0000000000000000 0000000000000018 0000000000000000
MALLOC  000001B5927E3360 0000000000000000 0000000000000018 0000000000000000
MALLOC  000001B5927E2EE0 0000000000000000 0000000000000018 0000000000000000
MALLOC  000001B5927E3480 0000000000000000 0000000000000018 0000000000000000
MALLOC  000001B5927E34C0 0000000000000000 0000000000000018 0000000000000000
MALLOC  000001B5927E34E0 0000000000000000 0000000000000018 0000000000000000
MALLOC  000001B5927E3500 0000000000000000 0000000000000018 0000000000000000
MALLOC  000001B5927E2F00 0000000000000000 0000000000000018 0000000000000000
MALLOC  000001B5927E3520 0000000000000000 0000000000000018 0000000000000000
MALLOC  000001B5927E3540 0000000000000000 0000000000000018 0000000000000000
MALLOC  000001B5927E3560 0000000000000000 0000000000000018 0000000000000000
MALLOC  000001B5927E30A0 0000000000000000 0000000000000018 0000000000000000
MALLOC  000001B5927E35A0 0000000000000000 0000000000000018 0000000000000000
MALLOC  000001B5927E30C0 0000000000000000 0000000000000018 0000000000000000
MALLOC  000001B5927E30E0 0000000000000000 0000000000000018 0000000000000000
MALLOC  000001B5927E3100 0000000000000000 0000000000000018 0000000000000000
MALLOC  000001B5927E3140 0000000000000000 0000000000000018 0000000000000000
MALLOC  000001B5927E37D0 0000000000000000 0000000000000018 0000000000000000
MALLOC  000001B5927E3B10 0000000000000000 0000000000000018 0000000000000000
MALLOC  000001B5927E3A90 0000000000000000 0000000000000018 0000000000000000
MALLOC  000001B5927E37B0 0000000000000000 0000000000000018 0000000000000000
MALLOC  000001B5927E3B70 0000000000000000 0000000000000018 0000000000000000
MALLOC  000001B5927E3CB0 0000000000000000 0000000000000018 0000000000000000
MALLOC  000001B5927E3B90 0000000000000000 0000000000000018 0000000000000000
MALLOC  000001B5927E3C90 0000000000000000 0000000000000018 0000000000000000
MALLOC  000001B5927E37F0 0000000000000000 0000000000000018 0000000000000000
MALLOC  000001B5927E39B0 0000000000000000 0000000000000018 0000000000000000
MALLOC  000001B5927E3A50 0000000000000000 0000000000000018 0000000000000000
MALLOC  000001B5927E3910 0000000000000000 0000000000000018 0000000000000000
MALLOC  000001B5927E3810 0000000000000000 0000000000000018 0000000000000000
MALLOC  000001B5927E3830 0000000000000000 0000000000000018 0000000000000000
MALLOC  000001B5927E3850 0000000000000000 0000000000000018 0000000000000000
MALLOC  000001B5927E3BB0 0000000000000000 0000000000000018 0000000000000000
MALLOC  000001B5927E3990 0000000000000000 0000000000000018 0000000000000000
MALLOC  000001B5927E3DD0 0000000000000000 0000000000000018 0000000000000000
MALLOC  000001B5927E3C30 0000000000000000 0000000000000018 0000000000000000
MALLOC  000001B5927E3870 0000000000000000 0000000000000018 0000000000000000
MALLOC  000001B5927E3BD0 0000000000000000 0000000000000018 0000000000000000
MALLOC  000001B5927E3DB0 0000000000000000 0000000000000018 0000000000000000
MALLOC  000001B5927E3890 0000000000000000 0000000000000018 0000000000000000
MALLOC  000001B5927E3CD0 0000000000000000 0000000000000018 0000000000000000
MALLOC  000001B5927E3750 0000000000000000 0000000000000018 0000000000000000
MALLOC  000001B5927E3BF0 0000000000000000 0000000000000018 0000000000000000
MALLOC  000001B5927E38B0 0000000000000000 0000000000000018 0000000000000000
MALLOC  000001B5927E3AF0 0000000000000000 0000000000000018 0000000000000000
MALLOC  000001B5927E3CF0 0000000000000000 0000000000000018 0000000000000000
MALLOC  000001B5927E3C70 0000000000000000 0000000000000018 0000000000000000
MALLOC  000001B5927E36B0 0000000000000000 0000000000000018 0000000000000000
MALLOC  000001B5927E3D10 0000000000000000 0000000000000018 0000000000000000
MALLOC  000001B5927E3730 0000000000000000 0000000000000018 0000000000000000
MALLOC  000001B5927E3D30 0000000000000000 0000000000000018 0000000000000000
MALLOC  000001B5927E3C10 0000000000000000 0000000000000018 0000000000000000
MALLOC  000001B5927E3930 0000000000000000 0000000000000018 0000000000000000
MALLOC  000001B5927E38D0 0000000000000000 0000000000000018 0000000000000000
MALLOC  000001B5927E38F0 0000000000000000 0000000000000018 0000000000000000
MALLOC  000001B5927E3950 0000000000000000 0000000000000018 0000000000000000
MALLOC  000001B5927E3970 0000000000000000 0000000000000018 0000000000000000
MALLOC  000001B5927E3A70 0000000000000000 0000000000000018 0000000000000000
MALLOC  000001B5927E36D0 0000000000000000 0000000000000018 0000000000000000
MALLOC  000001B5927E3D50 0000000000000000 0000000000000018 0000000000000000
MALLOC  000001B5927E3C50 0000000000000000 0000000000000018 0000000000000000
MALLOC  000001B5927E3D70 0000000000000000 0000000000000018 0000000000000000
MALLOC  000001B5927E3A10 0000000000000000 0000000000000018 0000000000000000
MALLOC  000001B5927E3670 0000000000000000 0000000000000018 0000000000000000
MALLOC  000001B5927E3B30 0000000000000000 0000000000000018 0000000000000000
MALLOC  000001B5927E3AB0 0000000000000000 0000000000000018 0000000000000000
MALLOC  000001B5927E3B50 0000000000000000 0000000000000018 0000000000000000
MALLOC  000001B5927E3690 0000000000000000 0000000000000018 0000000000000000
MALLOC  000001B5927E3D90 0000000000000000 0000000000000018 0000000000000000
MALLOC  000001B5927E39F0 0000000000000000 0000000000000018 0000000000000000
MALLOC  000001B5927E3DF0 0000000000000000 0000000000000018 0000000000000000
MALLOC  000001B5927E39D0 0000000000000000 0000000000000018 0000000000000000
MALLOC  000001B5927E3A30 0000000000000000 0000000000000018 0000000000000000
MALLOC  000001B5927E36F0 0000000000000000 0000000000000018 0000000000000000
MALLOC  000001B5927E3710 0000000000000000 0000000000000018 0000000000000000
MALLOC  000001B5927E3770 0000000000000000 0000000000000018 0000000000000000
MALLOC  000001B5927E3790 0000000000000000 0000000000000018 0000000000000000
MALLOC  000001B5927E3AD0 0000000000000000 0000000000000018 0000000000000000
MALLOC  000001B5927E41C0 0000000000000000 0000000000000018 0000000000000000
MALLOC  000001B5927E3F00 0000000000000000 0000000000000018 0000000000000000
MALLOC  000001B5927E4140 0000000000000000 0000000000000018 0000000000000000
MALLOC  000001B5927E3F80 0000000000000000 0000000000000018 0000000000000000
MALLOC  000001B5927E4460 0000000000000000 0000000000000018 0000000000000000
MALLOC  000001B5927E3FC0 0000000000000000 0000000000000018 0000000000000000
MALLOC  000001B5927E4260 0000000000000000 0000000000000018 0000000000000000
MALLOC  000001B5927E42C0 0000000000000000 0000000000000018 0000000000000000
MALLOC  000001B5927E42A0 0000000000000000 0000000000000018 0000000000000000
MALLOC  000001B5927E4180 0000000000000000 0000000000000018 0000000000000000
MALLOC  000001B5927E4480 0000000000000000 0000000000000018 0000000000000000
MALLOC  000001B5927E4060 0000000000000000 0000000000000018 0000000000000000
MALLOC  000001B5927E4000 0000000000000000 0000000000000018 0000000000000000
MALLOC  000001B5927E42E0 0000000000000000 0000000000000018 0000000000000000
MALLOC  000001B5927E4020 0000000000000000 0000000000000018 0000000000000000
MALLOC  000001B5927E4080 0000000000000000 0000000000000018 0000000000000000
MALLOC  000001B5927E4240 0000000000000000 0000000000000018 0000000000000000
MALLOC  000001B5927E3FA0 0000000000000000 0000000000000018 0000000000000000
MALLOC  000001B5927E4040 0000000000000000 0000000000000018 0000000000000000
MALLOC  000001B5927E3F20 0000000000000000 0000000000000018 0000000000000000
MALLOC  000001B5927E4400 0000000000000000 0000000000000018 0000000000000000
MALLOC  000001B5927E4160 0000000000000000 0000000000000018 0000000000000000
MALLOC  000001B5927E40A0 0000000000000000 0000000000000018 0000000000000000
MALLOC  000001B5927E3E80 0000000000000000 0000000000000018 0000000000000000
MALLOC  000001B5927E40C0 0000000000000000 0000000000000018 0000000000000000
MALLOC  000001B5927E40E0 0000000000000000 0000000000000018 0000000000000000
MALLOC  000001B5927E4100 0000000000000000 0000000000000018 0000000000000000
MALLOC  000001B5927E4120 0000000000000000 0000000000000018 0000000000000000
MALLOC  000001B5927E4520 0000000000000000 0000000000000018 0000000000000000
MALLOC  000001B5927E41E0 0000000000000000 0000000000000018 0000000000000000
MALLOC  000001B5927E43E0 0000000000000000 0000000000000018 0000000000000000
MALLOC  000001B5927E4540 0000000000000000 0000000000000018 0000000000000000
MALLOC  000001B5927E41A0 0000000000000000 0000000000000018 0000000000000000
MALLOC  000001B5927E4360 0000000000000000 0000000000000018 0000000000000000
MALLOC  000001B5927E43A0 0000000000000000 0000000000000018 0000000000000000
MALLOC  000001B5927E4200 0000000000000000 0000000000000018 0000000000000000
MALLOC  000001B5927E4220 0000000000000000 0000000000000018 0000000000000000
MALLOC  000001B5927E4280 0000000000000000 0000000000000018 0000000000000000
MALLOC  000001B5927E4320 0000000000000000 0000000000000018 0000000000000000
MALLOC  000001B5927E3EE0 0000000000000000 0000000000000018 0000000000000000
MALLOC  000001B5927E3EA0 0000000000000000 0000000000000018 0000000000000000
MALLOC  000001B5927E4300 0000000000000000 0000000000000018 0000000000000000
MALLOC  000001B5927E44C0 0000000000000000 0000000000000018 0000000000000000
MALLOC  000001B5927E4340 0000000000000000 0000000000000018 0000000000000000
MALLOC  000001B5927E4380 0000000000000000 0000000000000018 0000000000000000
MALLOC  000001B5927E4500 0000000000000000 0000000000000018 0000000000000000
MALLOC  000001B5927E3F40 0000000000000000 0000000000000018 0000000000000000
MALLOC  000001B5927E3FE0 0000000000000000 0000000000000018 0000000000000000
MALLOC  000001B5927E4420 0000000000000000 0000000000000018 0000000000000000
MALLOC  000001B5927E43C0 0000000000000000 0000000000000018 0000000000000000
MALLOC  000001B5927E44A0 0000000000000000 0000000000000018 0000000000000000
MALLOC  000001B5927E45C0 0000000000000000 0000000000000018 0000000000000000
MALLOC  000001B5927E4440 0000000000000000 0000000000000018 0000000000000000
MALLOC  000001B5927E3EC0 0000000000000000 0000000000000018 0000000000000000
MALLOC  000001B5927E44E0 0000000000000000 0000000000000018 0000000000000000
MALLOC  000001B5927E4560 0000000000000000 0000000000000018 0000000000000000
MALLOC  000001B5927E3F60 0000000000000000 0000000000000018 0000000000000000
MALLOC  000001B5927E4580 0000000000000000 0000000000000018 0000000000000000
MALLOC  000001B5927E45A0 0000000000000000 0000000000000018 0000000000000000
MALLOC  000001B5927E45E0 0000000000000000 0000000000000018 0000000000000000
MALLOC  000001B5927E4600 0000000000000000 0000000000000018 0000000000000000
MALLOC  000001B5927E4870 0000000000000000 0000000000000018 0000000000000000
MALLOC  000001B5927E47D0 0000000000000000 0000000000000018 0000000000000000
MALLOC  000001B5927E4730 0000000000000000 0000000000000018 0000000000000000
MALLOC  000001B5927E4970 0000000000000000 0000000000000018 0000000000000000
MALLOC  000001B5927E4BD0 0000000000000000 0000000000000018 0000000000000000
MALLOC  000001B5927E4A50 0000000000000000 0000000000000018 0000000000000000
MALLOC  000001B5927E4A70 0000000000000000 0000000000000018 0000000000000000
MALLOC  000001B5927E4CD0 0000000000000000 0000000000000018 0000000000000000
MALLOC  000001B5927E4AF0 0000000000000000 0000000000000018 0000000000000000
MALLOC  000001B5927E4A90 0000000000000000 0000000000000018 0000000000000000
MALLOC  000001B5927E4770 0000000000000000 0000000000000018 0000000000000000
MALLOC  000001B5927E48F0 0000000000000000 0000000000000018 0000000000000000
MALLOC  000001B5927E47F0 0000000000000000 0000000000000018 0000000000000000
MALLOC  000001B5927E49B0 0000000000000000 0000000000000018 0000000000000000
MALLOC  000001B5927E4AD0 0000000000000000 0000000000000018 0000000000000000
MALLOC  000001B5927E4BF0 0000000000000000 0000000000000018 0000000000000000
MALLOC  000001B5927E4AB0 0000000000000000 0000000000000018 0000000000000000
MALLOC  000001B5927E4810 0000000000000000 0000000000000018 0000000000000000
MALLOC  000001B5927E4A30 0000000000000000 0000000000000018 0000000000000000
MALLOC  000001B5927E4750 0000000000000000 0000000000000018 0000000000000000
MALLOC  000001B5927E4B10 0000000000000000 0000000000000018 0000000000000000
MALLOC  000001B5927E4B50 0000000000000000 0000000000000018 0000000000000000
MALLOC  000001B5927E4E10 0000000000000000 0000000000000018 0000000000000000
MALLOC  000001B5927E4C10 0000000000000000 0000000000000018 0000000000000000
MALLOC  000001B5927E4990 0000000000000000 0000000000000018 0000000000000000
MALLOC  000001B5927E4D50 0000000000000000 0000000000000018 0000000000000000
MALLOC  000001B5927E4790 0000000000000000 0000000000000018 0000000000000000
MALLOC  000001B5927E4830 0000000000000000 0000000000000018 0000000000000000
MALLOC  000001B5927E4690 0000000000000000 0000000000000018 0000000000000000
MALLOC  000001B5927E4B30 0000000000000000 0000000000000018 0000000000000000
MALLOC  000001B5927E4CF0 0000000000000000 0000000000000018 0000000000000000
MALLOC  000001B5927E4D10 0000000000000000 0000000000000018 0000000000000000
MALLOC  000001B5927E4C50 0000000000000000 0000000000000018 0000000000000000
MALLOC  000001B5927E4D30 0000000000000000 0000000000000018 0000000000000000
MALLOC  000001B5927E49F0 0000000000000000 0000000000000018 0000000000000000
MALLOC  000001B5927E47B0 0000000000000000 0000000000000018 0000000000000000
MALLOC  000001B5927E49D0 0000000000000000 0000000000000018 0000000000000000
MALLOC  000001B5927E4850 0000000000000000 0000000000000018 0000000000000000
MALLOC  000001B5927E4C90 0000000000000000 0000000000000018 0000000000000000
MALLOC  000001B5927E4890 0000000000000000 0000000000000018 0000000000000000
MALLOC  000001B5927E4B70 0000000000000000 0000000000000018 0000000000000000
MALLOC  000001B5927E4B90 0000000000000000 0000000000000018 0000000000000000
MALLOC  000001B5927E4BB0 0000000000000000 0000000000000018 0000000000000000
MALLOC  000001B5927E4A10 0000000000000000 0000000000000018 0000000000000000
MALLOC  000001B5927E4CB0 0000000000000000 0000000000000018 0000000000000000
MALLOC  000001B5927E48B0 0000000000000000 0000000000000018 0000000000000000
MALLOC  000001B5927E48D0 0000000000000000 0000000000000018 0000000000000000
MALLOC  000001B5927E4C30 0000000000000000 0000000000000018 0000000000000000
MALLOC  000001B5927E4910 0000000000000000 0000000000000018 0000000000000000
MALLOC  000001B5927E4930 0000000000000000 0000000000000018 0000000000000000
MALLOC  000001B5927E4C70 0000000000000000 0000000000000018 0000000000000000
MALLOC  000001B5927E4950 0000000000000000 0000000000000018 0000000000000000
MALLOC  000001B5927E4D70 0000000000000000 0000000000000018 0000000000000000
MALLOC  000001B5927E4D90 0000000000000000 0000000000000018 0000000000000000
MALLOC  000001B5927E4DB0 0000000000000000 0000000000000018 0000000000000000
MALLOC  000001B5927E4DD0 0000000000000000 0000000000000018 0000000000000000
MALLOC  000001B5927E4DF0 0000000000000000 0000000000000018 0000000000000000
MALLOC  000001B5927E46B0 0000000000000000 0000000000000018 0000000000000000
MALLOC  000001B5927E46D0 0000000000000000 0000000000000018 0000000000000000
MALLOC  000001B5927E46F0 0000000000000000 0000000000000018 0000000000000000
MALLOC  000001B5927E4710 0000000000000000 0000000000000018 0000000000000000
MALLOC  000001B5927E50C0 0000000000000000 0000000000000018 0000000000000000
MALLOC  000001B5927E5140 0000000000000000 0000000000000018 0000000000000000
MALLOC  000001B5927E54E0 0000000000000000 0000000000000018 0000000000000000
MALLOC  000001B5927E50E0 0000000000000000 0000000000000018 0000000000000000
MALLOC  000001B5927E4FE0 0000000000000000 0000000000000018 0000000000000000
MALLOC  000001B5927E4FA0 0000000000000000 0000000000000018 0000000000000000
MALLOC  000001B5927E4F00 0000000000000000 0000000000000018 0000000000000000
MALLOC  000001B5927E54A0 0000000000000000 0000000000000018 0000000000000000
MALLOC  000001B5927E5040 0000000000000000 0000000000000018 0000000000000000
MALLOC  000001B5927E5200 0000000000000000 0000000000000018 0000000000000000
MALLOC  000001B5927E5320 0000000000000000 0000000000000018 0000000000000000
MALLOC  000001B5927E4EE0 0000000000000000 0000000000000018 0000000000000000
MALLOC  000001B5927E4EA0 0000000000000000 0000000000000018 0000000000000000
MALLOC  000001B5927E51C0 0000000000000000 0000000000000018 0000000000000000
MALLOC  000001B5927E54C0 0000000000000000 0000000000000018 0000000000000000
MALLOC  000001B5927E5100 0000000000000000 0000000000000018 0000000000000000
MALLOC  000001B5927E5120 0000000000000000 0000000000000018 0000000000000000
MALLOC  000001B5927E5500 0000000000000000 0000000000000018 0000000000000000
MALLOC  000001B5927E4F20 0000000000000000 0000000000000018 0000000000000000
MALLOC  000001B5927E4F80 0000000000000000 0000000000000018 0000000000000000
MALLOC  000001B5927E53E0 0000000000000000 0000000000000018 0000000000000000
MALLOC  000001B5927E5180 0000000000000000 0000000000000018 0000000000000000
MALLOC  000001B5927E5460 0000000000000000 0000000000000018 0000000000000000
MALLOC  000001B5927E55C0 0000000000000000 0000000000000018 0000000000000000
MALLOC  000001B5927E5240 0000000000000000 0000000000000018 0000000000000000
MALLOC  000001B5927E4EC0 0000000000000000 0000000000000018 0000000000000000
MALLOC  000001B5927E5020 0000000000000000 0000000000000018 0000000000000000
MALLOC  000001B5927E5220 0000000000000000 0000000000000018 0000000000000000
MALLOC  000001B5927E4F40 0000000000000000 0000000000000018 0000000000000000
MALLOC  000001B5927E52A0 0000000000000000 0000000000000018 0000000000000000
MALLOC  000001B5927E5160 0000000000000000 0000000000000018 0000000000000000
MALLOC  000001B5927E5340 0000000000000000 0000000000000018 0000000000000000
MALLOC  000001B5927E4F60 0000000000000000 0000000000000018 0000000000000000
MALLOC  000001B5927E51A0 0000000000000000 0000000000000018 0000000000000000
MALLOC  000001B5927E51E0 0000000000000000 0000000000000018 0000000000000000
MALLOC  000001B5927E5260 0000000000000000 0000000000000018 0000000000000000
MALLOC  000001B5927E5060 0000000000000000 0000000000000018 0000000000000000
MALLOC  000001B5927E52C0 0000000000000000 0000000000000018 0000000000000000
MALLOC  000001B5927E5520 0000000000000000 0000000000000018 0000000000000000
MALLOC  000001B5927E5380 0000000000000000 0000000000000018 0000000000000000
MALLOC  000001B5927E53A0 0000000000000000 0000000000000018 0000000000000000
MALLOC  000001B5927E5600 0000000000000000 0000000000000018 0000000000000000
MALLOC  000001B5927E5420 0000000000000000 0000000000000018 0000000000000000
MALLOC  000001B5927E53C0 0000000000000000 0000000000000018 0000000000000000
MALLOC  000001B5927E50A0 0000000000000000 0000000000000018 0000000000000000
MALLOC  000001B5927E5280 0000000000000000 0000000000000018 0000000000000000
MALLOC  000001B5927E52E0 0000000000000000 0000000000000018 0000000000000000
MALLOC  000001B5927E5300 0000000000000000 0000000000000018 0000000000000000
MALLOC  000001B5927E5400 0000000000000000 0000000000000018 0000000000000000
MALLOC  000001B5927E5540 0000000000000000 0000000000000018 0000000000000000
MALLOC  000001B5927E5440 0000000000000000 0000000000000018 0000000000000000
MALLOC  000001B5927E5360 0000000000000000 0000000000000018 0000000000000000
MALLOC  000001B5927E5480 0000000000000000 0000000000000018 0000000000000000
MALLOC  000001B5927E5080 0000000000000000 0000000000000018 0000000000000000
MALLOC  000001B5927E4FC0 0000000000000000 0000000000000018 0000000000000000
MALLOC  000001B5927E5560 0000000000000000 0000000000000018 0000000000000000
MALLOC  000001B5927E5580 0000000000000000 0000000000000018 0000000000000000
MALLOC  000001B5927E5000 0000000000000000 0000000000000018 0000000000000000
MALLOC  000001B5927E55A0 0000000000000000 0000000000000018 0000000000000000
MALLOC  000001B5927E55E0 0000000000000000 0000000000000018 0000000000000000
MALLOC  000001B5927E5620 0000000000000000 0000000000000018 0000000000000000
MALLOC  000001B5927E6000 0000000000000000 0000000000000018 0000000000000000
MALLOC  000001B5927E6640 0000000000000000 0000000000000018 0000000000000000
MALLOC  000001B5927E6200 0000000000000000 0000000000000018 0000000000000000
MALLOC  000001B5927E6020 0000000000000000 0000000000000018 0000000000000000
MALLOC  000001B5927E6580 0000000000000000 0000000000000018 0000000000000000
MALLOC  000001B5927E6140 0000000000000000 0000000000000018 0000000000000000
MALLOC  000001B5927E6620 0000000000000000 0000000000000018 0000000000000000
MALLOC  000001B5927E61C0 0000000000000000 0000000000000018 0000000000000000
MALLOC  000001B5927E64C0 0000000000000000 0000000000000018 0000000000000000
MALLOC  000001B5927E6220 0000000000000000 0000000000000018 0000000000000000
MALLOC  000001B5927E5F80 0000000000000000 0000000000000018 0000000000000000
MALLOC  000001B5927E63C0 0000000000000000 0000000000000018 0000000000000000
MALLOC  000001B5927E61A0 0000000000000000 0000000000000018 0000000000000000
MALLOC  000001B5927E64A0 0000000000000000 0000000000000018 0000000000000000
MALLOC  000001B5927E6600 0000000000000000 0000000000000018 0000000000000000
MALLOC  000001B5927E5FA0 0000000000000000 0000000000000018 0000000000000000
MALLOC  000001B5927E5EE0 0000000000000000 0000000000000018 0000000000000000
MALLOC  000001B5927E5F00 0000000000000000 0000000000000018 0000000000000000
MALLOC  000001B5927E60C0 0000000000000000 0000000000000018 0000000000000000
MALLOC  000001B5927E6080 0000000000000000 0000000000000018 0000000000000000
MALLOC  000001B5927E6280 0000000000000000 0000000000000018 0000000000000000
MALLOC  000001B5927E5F60 0000000000000000 0000000000000018 0000000000000000
MALLOC  000001B5927E5FE0 0000000000000000 0000000000000018 0000000000000000
MALLOC  000001B5927E60A0 0000000000000000 0000000000000018 0000000000000000
MALLOC  000001B5927E6340 0000000000000000 0000000000000018 0000000000000000
MALLOC  000001B5927E6160 0000000000000000 0000000000000018 0000000000000000
MALLOC  000001B5927E60E0 0000000000000000 0000000000000018 0000000000000000
MALLOC  000001B5927E63E0 0000000000000000 0000000000000018 0000000000000000
MALLOC  000001B5927E6440 0000000000000000 0000000000000018 0000000000000000
MALLOC  000001B5927E5FC0 0000000000000000 0000000000000018 0000000000000000
MALLOC  000001B5927E61E0 0000000000000000 0000000000000018 0000000000000000
MALLOC  000001B5927E6560 0000000000000000 0000000000000018 0000000000000000
MALLOC  000001B5927E62A0 0000000000000000 0000000000000018 0000000000000000
MALLOC  000001B5927E6400 0000000000000000 0000000000000018 0000000000000000
MALLOC  000001B5927E6040 0000000000000000 0000000000000018 0000000000000000
MALLOC  000001B5927E6120 0000000000000000 0000000000000018 0000000000000000
MALLOC  000001B5927E62C0 0000000000000000 0000000000000018 0000000000000000
MALLOC  000001B5927E65E0 0000000000000000 0000000000000018 0000000000000000
MALLOC  000001B5927E6240 0000000000000000 0000000000000018 0000000000000000
MALLOC  000001B5927E6100 0000000000000000 0000000000000018 0000000000000000
MALLOC  000001B5927E6500 0000000000000000 0000000000000018 0000000000000000
MALLOC  000001B5927E6380 0000000000000000 0000000000000018 0000000000000000
MALLOC  000001B5927E62E0 0000000000000000 0000000000000018 0000000000000000
MALLOC  000001B5927E6060 0000000000000000 0000000000000018 0000000000000000
MALLOC  000001B5927E6180 0000000000000000 0000000000000018 0000000000000000
MALLOC  000001B5927E6260 0000000000000000 0000000000000018 0000000000000000
MALLOC  000001B5927E6300 0000000000000000 0000000000000018 0000000000000000
MALLOC  000001B5927E6320 0000000000000000 0000000000000018 0000000000000000
MALLOC  000001B5927E6520 0000000000000000 0000000000000018 0000000000000000
MALLOC  000001B5927E5EC0 0000000000000000 0000000000000018 0000000000000000
MALLOC  000001B5927E6360 0000000000000000 0000000000000018 0000000000000000
MALLOC  000001B5927E6460 0000000000000000 0000000000000018 0000000000000000
MALLOC  000001B5927E5F20 0000000000000000 0000000000000018 0000000000000000
MALLOC  000001B5927E63A0 0000000000000000 0000000000000018 0000000000000000
MALLOC  000001B5927E6420 0000000000000000 0000000000000018 0000000000000000
MALLOC  000001B5927E6480 0000000000000000 0000000000000018 0000000000000000
MALLOC  000001B5927E64E0 0000000000000000 0000000000000018 0000000000000000
MALLOC  000001B5927E6540 0000000000000000 0000000000000018 0000000000000000
MALLOC  000001B5927E65A0 0000000000000000 0000000000000018 0000000000000000
MALLOC  000001B5927E65C0 0000000000000000 0000000000000018 0000000000000000
MALLOC  000001B5927E5F40 0000000000000000 0000000000000018 0000000000000000
MALLOC  000001B5927E56E0 0000000000000000 0000000000000018 0000000000000000
MALLOC  000001B5927E5760 0000000000000000 0000000000000018 0000000000000000
MALLOC  000001B5927E5B40 0000000000000000 0000000000000018 0000000000000000
MALLOC  000001B5927E5C00 0000000000000000 0000000000000018 0000000000000000
MALLOC  000001B5927E5780 0000000000000000 0000000000000018 0000000000000000
MALLOC  000001B5927E57C0 0000000000000000 0000000000000018 0000000000000000
MALLOC  000001B5927E5CA0 0000000000000000 0000000000000018 0000000000000000
MALLOC  000001B5927E5C20 0000000000000000 0000000000000018 0000000000000000
MALLOC  000001B5927E57E0 0000000000000000 0000000000000018 0000000000000000
MALLOC  000001B5927E5B20 0000000000000000 0000000000000018 0000000000000000
MALLOC  000001B5927E5AA0 0000000000000000 0000000000000018 0000000000000000
MALLOC  000001B5927E5C40 0000000000000000 0000000000000018 0000000000000000
MALLOC  000001B5927E57A0 0000000000000000 0000000000000018 0000000000000000
MALLOC  000001B5927E58C0 0000000000000000 0000000000000018 0000000000000000
MALLOC  000001B5927E5A40 0000000000000000 0000000000000018 0000000000000000
MALLOC  000001B5927E5B60 0000000000000000 0000000000000018 0000000000000000
MALLOC  000001B5927E5BE0 0000000000000000 0000000000000018 0000000000000000
MALLOC  000001B5927E5C80 0000000000000000 0000000000000018 0000000000000000
MALLOC  000001B5927E5700 0000000000000000 0000000000000018 0000000000000000
MALLOC  000001B5927E5960 0000000000000000 0000000000000018 0000000000000000
MALLOC  000001B5927E59E0 0000000000000000 0000000000000018 0000000000000000
MALLOC  000001B5927E5A00 0000000000000000 0000000000000018 0000000000000000
MALLOC  000001B5927E5E60 0000000000000000 0000000000000018 0000000000000000
MALLOC  000001B5927E5CC0 0000000000000000 0000000000000018 0000000000000000
MALLOC  000001B5927E5800 0000000000000000 0000000000000018 0000000000000000
MALLOC  000001B5927E5E00 0000000000000000 0000000000000018 0000000000000000
MALLOC  000001B5927E5980 0000000000000000 0000000000000018 0000000000000000
MALLOC  000001B5927E5720 0000000000000000 0000000000000018 0000000000000000
MALLOC  000001B5927E5B00 0000000000000000 0000000000000018 0000000000000000
MALLOC  000001B5927E59C0 0000000000000000 0000000000000018 0000000000000000
MALLOC  000001B5927E5BA0 0000000000000000 0000000000000018 0000000000000000
MALLOC  000001B5927E5AC0 0000000000000000 0000000000000018 0000000000000000
MALLOC  000001B5927E5DE0 0000000000000000 0000000000000018 0000000000000000
MALLOC  000001B5927E58E0 0000000000000000 0000000000000018 0000000000000000
MALLOC  000001B5927E5AE0 0000000000000000 0000000000000018 0000000000000000
MALLOC  000001B5927E5A60 0000000000000000 0000000000000018 0000000000000000
MALLOC  000001B5927E5CE0 0000000000000000 0000000000000018 0000000000000000
MALLOC  000001B5927E5BC0 0000000000000000 0000000000000018 0000000000000000
MALLOC  000001B5927E5C60 0000000000000000 0000000000000018 0000000000000000
MALLOC  000001B5927E5820 0000000000000000 0000000000000018 0000000000000000
MALLOC  000001B5927E5A20 0000000000000000 0000000000000018 0000000000000000
MALLOC  000001B5927E5840 0000000000000000 0000000000000018 0000000000000000
MALLOC  000001B5927E5D00 0000000000000000 0000000000000018 0000000000000000
MALLOC  000001B5927E5860 0000000000000000 0000000000000018 0000000000000000
MALLOC  000001B5927E5D20 0000000000000000 0000000000000018 0000000000000000
MALLOC  000001B5927E5B80 0000000000000000 0000000000000018 0000000000000000
MALLOC  000001B5927E5880 0000000000000000 0000000000000018 0000000000000000
MALLOC  000001B5927E5D40 0000000000000000 0000000000000018 0000000000000000
MALLOC  000001B5927E5D60 0000000000000000 0000000000000018 0000000000000000
MALLOC  000001B5927E5D80 0000000000000000 0000000000000018 0000000000000000
MALLOC  000001B5927E5DA0 0000000000000000 0000000000000018 0000000000000000
MALLOC  000001B5927E58A0 0000000000000000 0000000000000018 0000000000000000
MALLOC  000001B5927E5A80 0000000000000000 0000000000000018 0000000000000000
MALLOC  000001B5927E5DC0 0000000000000000 0000000000000018 0000000000000000
MALLOC  000001B5927E59A0 0000000000000000 0000000000000018 0000000000000000
MALLOC  000001B5927E5900 0000000000000000 0000000000000018 0000000000000000
MALLOC  000001B5927E5920 0000000000000000 0000000000000018 0000000000000000
MALLOC  000001B5927E5940 0000000000000000 0000000000000018 0000000000000000
MALLOC  000001B5927E5E20 0000000000000000 0000000000000018 0000000000000000
MALLOC  000001B5927E5E40 0000000000000000 0000000000000018 0000000000000000
MALLOC  000001B5927E5E80 0000000000000000 0000000000000018 0000000000000000
MALLOC  000001B5927E5EA0 0000000000000000 0000000000000018 0000000000000000
MALLOC  000001B5927E56C0 0000000000000000 0000000000000018 0000000000000000
MALLOC  000001B5927E5740 0000000000000000 0000000000000018 0000000000000000
MALLOC  000001B5927E73A0 0000000000000000 0000000000000018 0000000000000000
MALLOC  000001B5927E7580 0000000000000000 0000000000000018 0000000000000000
MALLOC  000001B5927E7060 0000000000000000 0000000000000018 0000000000000000
MALLOC  000001B5927E76C0 0000000000000000 0000000000000018 0000000000000000
MALLOC  000001B5927E7140 0000000000000000 0000000000000018 0000000000000000
MALLOC  000001B5927E7400 0000000000000000 0000000000000018 0000000000000000
MALLOC  000001B5927E7620 0000000000000000 0000000000000018 0000000000000000
MALLOC  000001B5927E75A0 0000000000000000 0000000000000018 0000000000000000
MALLOC  000001B5927E6F80 0000000000000000 0000000000000018 0000000000000000
MALLOC  000001B5927E7640 0000000000000000 0000000000000018 0000000000000000
MALLOC  000001B5927E7000 0000000000000000 0000000000000018 0000000000000000
MALLOC  000001B5927E75E0 0000000000000000 0000000000000018 0000000000000000
MALLOC  000001B5927E7540 0000000000000000 0000000000000018 0000000000000000
MALLOC  000001B5927E7220 0000000000000000 0000000000000018 0000000000000000
MALLOC  000001B5927E70E0 0000000000000000 0000000000000018 0000000000000000
MALLOC  000001B5927E7120 0000000000000000 0000000000000018 0000000000000000
MALLOC  000001B5927E71E0 0000000000000000 0000000000000018 0000000000000000
MALLOC  000001B5927E7160 0000000000000000 0000000000000018 0000000000000000
MALLOC  000001B5927E7360 0000000000000000 0000000000000018 0000000000000000
MALLOC  000001B5927E6FC0 0000000000000000 0000000000000018 0000000000000000
MALLOC  000001B5927E7660 0000000000000000 0000000000000018 0000000000000000
MALLOC  000001B5927E7560 0000000000000000 0000000000000018 0000000000000000
MALLOC  000001B5927E7500 0000000000000000 0000000000000018 0000000000000000
MALLOC  000001B5927E7300 0000000000000000 0000000000000018 0000000000000000
MALLOC  000001B5927E6F40 0000000000000000 0000000000000018 0000000000000000
MALLOC  000001B5927E7420 0000000000000000 0000000000000018 0000000000000000
MALLOC  000001B5927E7100 0000000000000000 0000000000000018 0000000000000000
MALLOC  000001B5927E7180 0000000000000000 0000000000000018 0000000000000000
MALLOC  000001B5927E70A0 0000000000000000 0000000000000018 0000000000000000
MALLOC  000001B5927E7020 0000000000000000 0000000000000018 0000000000000000
MALLOC  000001B5927E7240 0000000000000000 0000000000000018 0000000000000000
MALLOC  000001B5927E74C0 0000000000000000 0000000000000018 0000000000000000
MALLOC  000001B5927E7340 0000000000000000 0000000000000018 0000000000000000
MALLOC  000001B5927E7380 0000000000000000 0000000000000018 0000000000000000
MALLOC  000001B5927E75C0 0000000000000000 0000000000000018 0000000000000000
MALLOC  000001B5927E73E0 0000000000000000 0000000000000018 0000000000000000
MALLOC  000001B5927E7320 0000000000000000 0000000000000018 0000000000000000
MALLOC  000001B5927E7040 0000000000000000 0000000000000018 0000000000000000
MALLOC  000001B5927E71C0 0000000000000000 0000000000000018 0000000000000000
MALLOC  000001B5927E7080 0000000000000000 0000000000000018 0000000000000000
MALLOC  000001B5927E72A0 0000000000000000 0000000000000018 0000000000000000
MALLOC  000001B5927E73C0 0000000000000000 0000000000000018 0000000000000000
MALLOC  000001B5927E74E0 0000000000000000 0000000000000018 0000000000000000
MALLOC  000001B5927E7440 0000000000000000 0000000000000018 0000000000000000
MALLOC  000001B5927E71A0 0000000000000000 0000000000000018 0000000000000000
MALLOC  000001B5927E7460 0000000000000000 0000000000000018 0000000000000000
MALLOC  000001B5927E70C0 0000000000000000 0000000000000018 0000000000000000
MALLOC  000001B5927E76A0 0000000000000000 0000000000000018 0000000000000000
MALLOC  000001B5927E7260 0000000000000000 0000000000000018 0000000000000000
MALLOC  000001B5927E7200 0000000000000000 0000000000000018 0000000000000000
MALLOC  000001B5927E7680 0000000000000000 0000000000000018 0000000000000000
MALLOC  000001B5927E7280 0000000000000000 0000000000000018 0000000000000000
MALLOC  000001B5927E7480 0000000000000000 0000000000000018 0000000000000000
MALLOC  000001B5927E72C0 0000000000000000 0000000000000018 0000000000000000
MALLOC  000001B5927E76E0 0000000000000000 0000000000000018 0000000000000000
MALLOC  000001B5927E72E0 0000000000000000 0000000000000018 0000000000000000
MALLOC  000001B5927E7720 0000000000000000 0000000000000018 0000000000000000
MALLOC  000001B5927E74A0 0000000000000000 0000000000000018 0000000000000000
MALLOC  000001B5927E7520 0000000000000000 0000000000000018 0000000000000000
MALLOC  000001B5927E7700 0000000000000000 0000000000000018 0000000000000000
MALLOC  000001B5927E7600 0000000000000000 0000000000000018 0000000000000000
MALLOC  000001B5927E6F60 0000000000000000 0000000000000018 0000000000000000
MALLOC  000001B5927E6FA0 0000000000000000 0000000000000018 0000000000000000
MALLOC  000001B5927E6FE0 0000000000000000 0000000000000018 0000000000000000
MALLOC  000001B5927E7AC0 0000000000000000 0000000000000018 0000000000000000
MALLOC  000001B5927E7820 0000000000000000 0000000000000018 0000000000000000
MALLOC  000001B5927E7C80 0000000000000000 0000000000000018 0000000000000000
MALLOC  000001B5927E7A40 0000000000000000 0000000000000018 0000000000000000
MALLOC  000001B5927E7D60 0000000000000000 0000000000000018 0000000000000000
MALLOC  000001B5927E7EE0 0000000000000000 0000000000000018 0000000000000000
MALLOC  000001B5927E7800 0000000000000000 0000000000000018 0000000000000000
MALLOC  000001B5927E7780 0000000000000000 0000000000000018 0000000000000000
MALLOC  000001B5927E77A0 0000000000000000 0000000000000018 0000000000000000
MALLOC  000001B5927E7960 0000000000000000 0000000000000018 0000000000000000
MALLOC  000001B5927E7920 0000000000000000 0000000000000018 0000000000000000
MALLOC  000001B5927E7B40 0000000000000000 0000000000000018 0000000000000000
MALLOC  000001B5927E7840 0000000000000000 0000000000000018 0000000000000000
MALLOC  000001B5927E7880 0000000000000000 0000000000000018 0000000000000000
MALLOC  000001B5927E7940 0000000000000000 0000000000000018 0000000000000000
MALLOC  000001B5927E7C00 0000000000000000 0000000000000018 0000000000000000
MALLOC  000001B5927E7A00 0000000000000000 0000000000000018 0000000000000000
MALLOC  000001B5927E7980 0000000000000000 0000000000000018 0000000000000000
MALLOC  000001B5927E7CA0 0000000000000000 0000000000000018 0000000000000000
MALLOC  000001B5927E7D00 0000000000000000 0000000000000018 0000000000000000
MALLOC  000001B5927E7860 0000000000000000 0000000000000018 0000000000000000
MALLOC  000001B5927E7A60 0000000000000000 0000000000000018 0000000000000000
MALLOC  000001B5927E7E40 0000000000000000 0000000000000018 0000000000000000
MALLOC  000001B5927E7B60 0000000000000000 0000000000000018 0000000000000000
MALLOC  000001B5927E7CC0 0000000000000000 0000000000000018 0000000000000000
MALLOC  000001B5927E78A0 0000000000000000 0000000000000018 0000000000000000
MALLOC  000001B5927E79C0 0000000000000000 0000000000000018 0000000000000000
MALLOC  000001B5927E7B80 0000000000000000 0000000000000018 0000000000000000
MALLOC  000001B5927E7EC0 0000000000000000 0000000000000018 0000000000000000
MALLOC  000001B5927E7AE0 0000000000000000 0000000000000018 0000000000000000
MALLOC  000001B5927E79A0 0000000000000000 0000000000000018 0000000000000000
MALLOC  000001B5927E7DE0 0000000000000000 0000000000000018 0000000000000000
MALLOC  000001B5927E7C40 0000000000000000 0000000000000018 0000000000000000
MALLOC  000001B5927E7BA0 0000000000000000 0000000000000018 0000000000000000
MALLOC  000001B5927E78C0 0000000000000000 0000000000000018 0000000000000000
MALLOC  000001B5927E78E0 0000000000000000 0000000000000018 0000000000000000
MALLOC  000001B5927E7900 0000000000000000 0000000000000018 0000000000000000
MALLOC  000001B5927E7A80 0000000000000000 0000000000000018 0000000000000000
MALLOC  000001B5927E7AA0 0000000000000000 0000000000000018 0000000000000000
MALLOC  000001B5927E7E00 0000000000000000 0000000000000018 0000000000000000
MALLOC  000001B5927E7F20 0000000000000000 0000000000000018 0000000000000000
MALLOC  000001B5927E7B00 0000000000000000 0000000000000018 0000000000000000
MALLOC  000001B5927E7CE0 0000000000000000 0000000000000018 0000000000000000
MALLOC  000001B5927E7740 0000000000000000 0000000000000018 0000000000000000
MALLOC  000001B5927E79E0 0000000000000000 0000000000000018 0000000000000000
MALLOC  000001B5927E7B20 0000000000000000 0000000000000018 0000000000000000
MALLOC  000001B5927E7C20 0000000000000000 0000000000000018 0000000000000000
MALLOC  000001B5927E7BC0 0000000000000000 0000000000000018 0000000000000000
MALLOC  000001B5927E7BE0 0000000000000000 0000000000000018 0000000000000000
MALLOC  000001B5927E7A20 0000000000000000 0000000000000018 0000000000000000
MALLOC  000001B5927E7C60 0000000000000000 0000000000000018 0000000000000000
MALLOC  000001B5927E7EA0 0000000000000000 0000000000000018 0000000000000000
MALLOC  000001B5927E7760 0000000000000000 0000000000000018 0000000000000000
MALLOC  000001B5927E77E0 0000000000000000 0000000000000018 0000000000000000
MALLOC  000001B5927E7D20 0000000000000000 0000000000000018 0000000000000000
MALLOC  000001B5927E7D40 0000000000000000 0000000000000018 0000000000000000
MALLOC  000001B5927E7D80 0000000000000000 0000000000000018 0000000000000000
MALLOC  000001B5927E7DA0 0000000000000000 0000000000000018 0000000000000000
MALLOC  000001B5927E7DC0 0000000000000000 0000000000000018 0000000000000000
MALLOC  000001B5927E7E20 0000000000000000 0000000000000018 0000000000000000
MALLOC  000001B5927E7E60 0000000000000000 0000000000000018 0000000000000000
MALLOC  000001B5927E7E80 0000000000000000 0000000000000018 0000000000000000
MALLOC  000001B5927E7F00 0000000000000000 0000000000000018 0000000000000000
MALLOC  000001B5927E77C0 0000000000000000 0000000000000018 0000000000000000
MALLOC  000001B5927E8000 0000000000000000 0000000000000018 0000000000000000
MALLOC  000001B5927E8140 0000000000000000 0000000000000018 0000000000000000
MALLOC  000001B5927E82C0 0000000000000000 0000000000000018 0000000000000000
MALLOC  000001B5927E83C0 0000000000000000 0000000000000018 0000000000000000
MALLOC  000001B5927E8460 0000000000000000 0000000000000018 0000000000000000
MALLOC  000001B5927E8500 0000000000000000 0000000000000018 0000000000000000
MALLOC  000001B5927E7F80 0000000000000000 0000000000000018 0000000000000000
MALLOC  000001B5927E81E0 0000000000000000 0000000000000018 0000000000000000
MALLOC  000001B5927E8260 0000000000000000 0000000000000018 0000000000000000
MALLOC  000001B5927E8280 0000000000000000 0000000000000018 0000000000000000
MALLOC  000001B5927E86E0 0000000000000000 0000000000000018 0000000000000000
MALLOC  000001B5927E8520 0000000000000000 0000000000000018 0000000000000000
MALLOC  000001B5927E7FE0 0000000000000000 0000000000000018 0000000000000000
MALLOC  000001B5927E8680 0000000000000000 0000000000000018 0000000000000000
MALLOC  000001B5927E8200 0000000000000000 0000000000000018 0000000000000000
MALLOC  000001B5927E7F60 0000000000000000 0000000000000018 0000000000000000
MALLOC  000001B5927E8380 0000000000000000 0000000000000018 0000000000000000
MALLOC  000001B5927E8240 0000000000000000 0000000000000018 0000000000000000
MALLOC  000001B5927E8420 0000000000000000 0000000000000018 0000000000000000
MALLOC  000001B5927E8320 0000000000000000 0000000000000018 0000000000000000
MALLOC  000001B5927E8660 0000000000000000 0000000000000018 0000000000000000
MALLOC  000001B5927E8160 0000000000000000 0000000000000018 0000000000000000
MALLOC  000001B5927E8340 0000000000000000 0000000000000018 0000000000000000
MALLOC  000001B5927E82E0 0000000000000000 0000000000000018 0000000000000000
MALLOC  000001B5927E8540 0000000000000000 0000000000000018 0000000000000000
MALLOC  000001B5927E8440 0000000000000000 0000000000000018 0000000000000000
MALLOC  000001B5927E8480 0000000000000000 0000000000000018 0000000000000000
MALLOC  000001B5927E8080 0000000000000000 0000000000000018 0000000000000000
MALLOC  000001B5927E82A0 0000000000000000 0000000000000018 0000000000000000
MALLOC  000001B5927E8040 0000000000000000 0000000000000018 0000000000000000
MALLOC  000001B5927E84A0 0000000000000000 0000000000000018 0000000000000000
MALLOC  000001B5927E80C0 0000000000000000 0000000000000018 0000000000000000
MALLOC  000001B5927E84C0 0000000000000000 0000000000000018 0000000000000000
MALLOC  000001B5927E83A0 0000000000000000 0000000000000018 0000000000000000
MALLOC  000001B5927E80A0 0000000000000000 0000000000000018 0000000000000000
MALLOC  000001B5927E84E0 0000000000000000 0000000000000018 0000000000000000
MALLOC  000001B5927E85E0 0000000000000000 0000000000000018 0000000000000000
MALLOC  000001B5927E8560 0000000000000000 0000000000000018 0000000000000000
MALLOC  000001B5927E85A0 0000000000000000 0000000000000018 0000000000000000
MALLOC  000001B5927E80E0 0000000000000000 0000000000000018 0000000000000000
MALLOC  000001B5927E8300 0000000000000000 0000000000000018 0000000000000000
MALLOC  000001B5927E8360 0000000000000000 0000000000000018 0000000000000000
MALLOC  000001B5927E8220 0000000000000000 0000000000000018 0000000000000000
MALLOC  000001B5927E8100 0000000000000000 0000000000000018 0000000000000000
MALLOC  000001B5927E8120 0000000000000000 0000000000000018 0000000000000000
MALLOC  000001B5927E8180 0000000000000000 0000000000000018 0000000000000000
MALLOC  000001B5927E8580 0000000000000000 0000000000000018 0000000000000000
MALLOC  000001B5927E83E0 0000000000000000 0000000000000018 0000000000000000
MALLOC  000001B5927E8700 0000000000000000 0000000000000018 0000000000000000
MALLOC  000001B5927E81A0 0000000000000000 0000000000000018 0000000000000000
MALLOC  000001B5927E7FC0 0000000000000000 0000000000000018 0000000000000000
MALLOC  000001B5927E8400 0000000000000000 0000000000000018 0000000000000000
MALLOC  000001B5927E7F40 0000000000000000 0000000000000018 0000000000000000
MALLOC  000001B5927E85C0 0000000000000000 0000000000000018 0000000000000000
MALLOC  000001B5927E8600 0000000000000000 0000000000000018 0000000000000000
MALLOC  000001B5927E8060 0000000000000000 0000000000000018 0000000000000000
MALLOC  000001B5927E86C0 0000000000000000 0000000000000018 0000000000000000
MALLOC  000001B5927E81C0 0000000000000000 0000000000000018 0000000000000000
MALLOC  000001B5927E8620 0000000000000000 0000000000000018 0000000000000000
MALLOC  000001B5927E8640 0000000000000000 0000000000000018 0000000000000000
MALLOC  000001B5927E86A0 0000000000000000 0000000000000018 0000000000000000
MALLOC  000001B5927E7FA0 0000000000000000 0000000000000018 0000000000000000
MALLOC  000001B5927E8720 0000000000000000 0000000000000018 0000000000000000
MALLOC  000001B5927E8020 0000000000000000 0000000000000018 0000000000000000
MALLOC  000001B5927E8DE0 0000000000000000 0000000000000018 0000000000000000
MALLOC  000001B5927E8D40 0000000000000000 0000000000000018 0000000000000000
MALLOC  000001B5927E8A20 0000000000000000 0000000000000018 0000000000000000
MALLOC  000001B5927E88E0 0000000000000000 0000000000000018 0000000000000000
MALLOC  000001B5927E8920 0000000000000000 0000000000000018 0000000000000000
MALLOC  000001B5927E89E0 0000000000000000 0000000000000018 0000000000000000
MALLOC  000001B5927E8960 0000000000000000 0000000000000018 0000000000000000
MALLOC  000001B5927E8B60 0000000000000000 0000000000000018 0000000000000000
MALLOC  000001B5927E87C0 0000000000000000 0000000000000018 0000000000000000
MALLOC  000001B5927E8E20 0000000000000000 0000000000000018 0000000000000000
MALLOC  000001B5927E8D60 0000000000000000 0000000000000018 0000000000000000
MALLOC  000001B5927E8D00 0000000000000000 0000000000000018 0000000000000000
MALLOC  000001B5927E8B00 0000000000000000 0000000000000018 0000000000000000
MALLOC  000001B5927E8740 0000000000000000 0000000000000018 0000000000000000
MALLOC  000001B5927E8C00 0000000000000000 0000000000000018 0000000000000000
MALLOC  000001B5927E8BA0 0000000000000000 0000000000000018 0000000000000000
MALLOC  000001B5927E8C40 0000000000000000 0000000000000018 0000000000000000
MALLOC  000001B5927E8F20 0000000000000000 0000000000000018 0000000000000000
MALLOC  000001B5927E8D20 0000000000000000 0000000000000018 0000000000000000
MALLOC  000001B5927E8A80 0000000000000000 0000000000000018 0000000000000000
MALLOC  000001B5927E8E60 0000000000000000 0000000000000018 0000000000000000
MALLOC  000001B5927E8860 0000000000000000 0000000000000018 0000000000000000
MALLOC  000001B5927E8900 0000000000000000 0000000000000018 0000000000000000
MALLOC  000001B5927E8760 0000000000000000 0000000000000018 0000000000000000
MALLOC  000001B5927E8B80 0000000000000000 0000000000000018 0000000000000000
MALLOC  000001B5927E8DC0 0000000000000000 0000000000000018 0000000000000000
MALLOC  000001B5927E8E00 0000000000000000 0000000000000018 0000000000000000
MALLOC  000001B5927E8D80 0000000000000000 0000000000000018 0000000000000000
MALLOC  000001B5927E8E40 0000000000000000 0000000000000018 0000000000000000
MALLOC  000001B5927E8AA0 0000000000000000 0000000000000018 0000000000000000
MALLOC  000001B5927E87E0 0000000000000000 0000000000000018 0000000000000000
MALLOC  000001B5927E8A40 0000000000000000 0000000000000018 0000000000000000
MALLOC  000001B5927E8840 0000000000000000 0000000000000018 0000000000000000
MALLOC  000001B5927E8DA0 0000000000000000 0000000000000018 0000000000000000
MALLOC  000001B5927E88A0 0000000000000000 0000000000000018 0000000000000000
MALLOC  000001B5927E8BC0 0000000000000000 0000000000000018 0000000000000000
MALLOC  000001B5927E8BE0 0000000000000000 0000000000000018 0000000000000000
MALLOC  000001B5927E8C20 0000000000000000 0000000000000018 0000000000000000
MALLOC  000001B5927E8AC0 0000000000000000 0000000000000018 0000000000000000
MALLOC  000001B5927E8E80 0000000000000000 0000000000000018 0000000000000000
MALLOC  000001B5927E8940 0000000000000000 0000000000000018 0000000000000000
MALLOC  000001B5927E8980 0000000000000000 0000000000000018 0000000000000000
MALLOC  000001B5927E8C60 0000000000000000 0000000000000018 0000000000000000
MALLOC  000001B5927E89A0 0000000000000000 0000000000000018 0000000000000000
MALLOC  000001B5927E89C0 0000000000000000 0000000000000018 0000000000000000
MALLOC  000001B5927E8B40 0000000000000000 0000000000000018 0000000000000000
MALLOC  000001B5927E8880 0000000000000000 0000000000000018 0000000000000000
MALLOC  000001B5927E8A00 0000000000000000 0000000000000018 0000000000000000
MALLOC  000001B5927E8800 0000000000000000 0000000000000018 0000000000000000
MALLOC  000001B5927E8EA0 0000000000000000 0000000000000018 0000000000000000
MALLOC  000001B5927E8A60 0000000000000000 0000000000000018 0000000000000000
MALLOC  000001B5927E8AE0 0000000000000000 0000000000000018 0000000000000000
MALLOC  000001B5927E8780 0000000000000000 0000000000000018 0000000000000000
MALLOC  000001B5927E8B20 0000000000000000 0000000000000018 0000000000000000
MALLOC  000001B5927E8C80 0000000000000000 0000000000000018 0000000000000000
MALLOC  000001B5927E8CA0 0000000000000000 0000000000000018 0000000000000000
MALLOC  000001B5927E8CC0 0000000000000000 0000000000000018 0000000000000000
MALLOC  000001B5927E8CE0 0000000000000000 0000000000000018 0000000000000000
MALLOC  000001B5927E8EC0 0000000000000000 0000000000000018 0000000000000000
MALLOC  000001B5927E8EE0 0000000000000000 0000000000000018 0000000000000000
MALLOC  000001B5927E8F00 0000000000000000 0000000000000018 0000000000000000
MALLOC  000001B5927E88C0 0000000000000000 0000000000000018 0000000000000000
MALLOC  000001B5927E87A0 0000000000000000 0000000000000018 0000000000000000
MALLOC  000001B5927E8820 0000000000000000 0000000000000018 0000000000000000
MALLOC  000001B5927E9580 0000000000000000 0000000000000018 0000000000000000
MALLOC  000001B5927E9100 0000000000000000 0000000000000018 0000000000000000
MALLOC  000001B5927E92C0 0000000000000000 0000000000000018 0000000000000000
MALLOC  000001B5927E9400 0000000000000000 0000000000000018 0000000000000000
MALLOC  000001B5927E8F80 0000000000000000 0000000000000018 0000000000000000
MALLOC  000001B5927E8F40 0000000000000000 0000000000000018 0000000000000000
MALLOC  000001B5927E9280 0000000000000000 0000000000000018 0000000000000000
MALLOC  000001B5927E95A0 0000000000000000 0000000000000018 0000000000000000
MALLOC  000001B5927E91A0 0000000000000000 0000000000000018 0000000000000000
MALLOC  000001B5927E91C0 0000000000000000 0000000000000018 0000000000000000
MALLOC  000001B5927E95C0 0000000000000000 0000000000000018 0000000000000000
MALLOC  000001B5927E8F60 0000000000000000 0000000000000018 0000000000000000
MALLOC  000001B5927E9000 0000000000000000 0000000000000018 0000000000000000
MALLOC  000001B5927E94A0 0000000000000000 0000000000000018 0000000000000000
MALLOC  000001B5927E9220 0000000000000000 0000000000000018 0000000000000000
MALLOC  000001B5927E9520 0000000000000000 0000000000000018 0000000000000000
MALLOC  000001B5927E96A0 0000000000000000 0000000000000018 0000000000000000
MALLOC  000001B5927E9300 0000000000000000 0000000000000018 0000000000000000
MALLOC  000001B5927E9720 0000000000000000 0000000000000018 0000000000000000
MALLOC  000001B5927E9040 0000000000000000 0000000000000018 0000000000000000
MALLOC  000001B5927E9240 0000000000000000 0000000000000018 0000000000000000
MALLOC  000001B5927E96E0 0000000000000000 0000000000000018 0000000000000000
MALLOC  000001B5927E92E0 0000000000000000 0000000000000018 0000000000000000
MALLOC  000001B5927E90E0 0000000000000000 0000000000000018 0000000000000000
MALLOC  000001B5927E9360 0000000000000000 0000000000000018 0000000000000000
MALLOC  000001B5927E9680 0000000000000000 0000000000000018 0000000000000000
MALLOC  000001B5927E9380 0000000000000000 0000000000000018 0000000000000000
MALLOC  000001B5927E8FA0 0000000000000000 0000000000000018 0000000000000000
MALLOC  000001B5927E93A0 0000000000000000 0000000000000018 0000000000000000
MALLOC  000001B5927E95E0 0000000000000000 0000000000000018 0000000000000000
MALLOC  000001B5927E9060 0000000000000000 0000000000000018 0000000000000000
MALLOC  000001B5927E96C0 0000000000000000 0000000000000018 0000000000000000
MALLOC  000001B5927E9140 0000000000000000 0000000000000018 0000000000000000
MALLOC  000001B5927E9420 0000000000000000 0000000000000018 0000000000000000
MALLOC  000001B5927E9620 0000000000000000 0000000000000018 0000000000000000
MALLOC  000001B5927E9600 0000000000000000 0000000000000018 0000000000000000
MALLOC  000001B5927E8FC0 0000000000000000 0000000000000018 0000000000000000
MALLOC  000001B5927E9640 0000000000000000 0000000000000018 0000000000000000
MALLOC  000001B5927E9020 0000000000000000 0000000000000018 0000000000000000
MALLOC  000001B5927E9660 0000000000000000 0000000000000018 0000000000000000
MALLOC  000001B5927E9540 0000000000000000 0000000000000018 0000000000000000
MALLOC  000001B5927E9260 0000000000000000 0000000000000018 0000000000000000
MALLOC  000001B5927E9120 0000000000000000 0000000000000018 0000000000000000
MALLOC  000001B5927E9160 0000000000000000 0000000000000018 0000000000000000
MALLOC  000001B5927E91E0 0000000000000000 0000000000000018 0000000000000000
MALLOC  000001B5927E9180 0000000000000000 0000000000000018 0000000000000000
MALLOC  000001B5927E93C0 0000000000000000 0000000000000018 0000000000000000
MALLOC  000001B5927E8FE0 0000000000000000 0000000000000018 0000000000000000
MALLOC  000001B5927E9700 0000000000000000 0000000000000018 0000000000000000
MALLOC  000001B5927E9560 0000000000000000 0000000000000018 0000000000000000
MALLOC  000001B5927E9500 0000000000000000 0000000000000018 0000000000000000
MALLOC  000001B5927E9320 0000000000000000 0000000000000018 0000000000000000
MALLOC  000001B5927E9080 0000000000000000 0000000000000018 0000000000000000
MALLOC  000001B5927E9440 0000000000000000 0000000000000018 0000000000000000
MALLOC  000001B5927E93E0 0000000000000000 0000000000000018 0000000000000000
MALLOC  000001B5927E9460 0000000000000000 0000000000000018 0000000000000000
MALLOC  000001B5927E90A0 0000000000000000 0000000000000018 0000000000000000
MALLOC  000001B5927E90C0 0000000000000000 0000000000000018 0000000000000000
MALLOC  000001B5927E92A0 0000000000000000 0000000000000018 0000000000000000
MALLOC  000001B5927E9200 0000000000000000 0000000000000018 0000000000000000
MALLOC  000001B5927E9340 0000000000000000 0000000000000018 0000000000000000
MALLOC  000001B5927E9480 0000000000000000 0000000000000018 0000000000000000
MALLOC  000001B5927E94C0 0000000000000000 0000000000000018 0000000000000000
MALLOC  000001B5927E94E0 0000000000000000 0000000000000018 0000000000000000
MALLOC  000001B5927E9DC0 0000000000000000 0000000000000018 0000000000000000
MALLOC  000001B5927E9E00 0000000000000000 0000000000000018 0000000000000000
MALLOC  000001B5927E9D20 0000000000000000 0000000000000018 0000000000000000
MALLOC  000001B5927E9DE0 0000000000000000 0000000000000018 0000000000000000
MALLOC  000001B5927E9AA0 0000000000000000 0000000000000018 0000000000000000
MALLOC  000001B5927E97E0 0000000000000000 0000000000000018 0000000000000000
MALLOC  000001B5927E9A40 0000000000000000 0000000000000018 0000000000000000
MALLOC  000001B5927E9840 0000000000000000 0000000000000018 0000000000000000
MALLOC  000001B5927E9D80 0000000000000000 0000000000000018 0000000000000000
MALLOC  000001B5927E98A0 0000000000000000 0000000000000018 0000000000000000
MALLOC  000001B5927E9B60 0000000000000000 0000000000000018 0000000000000000
MALLOC  000001B5927E9BC0 0000000000000000 0000000000000018 0000000000000000
MALLOC  000001B5927E9BA0 0000000000000000 0000000000000018 0000000000000000
MALLOC  000001B5927E9A80 0000000000000000 0000000000000018 0000000000000000
MALLOC  000001B5927E9DA0 0000000000000000 0000000000000018 0000000000000000
MALLOC  000001B5927E9940 0000000000000000 0000000000000018 0000000000000000
MALLOC  000001B5927E98E0 0000000000000000 0000000000000018 0000000000000000
MALLOC  000001B5927E9BE0 0000000000000000 0000000000000018 0000000000000000
MALLOC  000001B5927E9900 0000000000000000 0000000000000018 0000000000000000
MALLOC  000001B5927E9960 0000000000000000 0000000000000018 0000000000000000
MALLOC  000001B5927E9B40 0000000000000000 0000000000000018 0000000000000000
MALLOC  000001B5927E9860 0000000000000000 0000000000000018 0000000000000000
MALLOC  000001B5927E9920 0000000000000000 0000000000000018 0000000000000000
MALLOC  000001B5927E9800 0000000000000000 0000000000000018 0000000000000000
MALLOC  000001B5927E9D00 0000000000000000 0000000000000018 0000000000000000
MALLOC  000001B5927E9A20 0000000000000000 0000000000000018 0000000000000000
MALLOC  000001B5927E9980 0000000000000000 0000000000000018 0000000000000000
MALLOC  000001B5927E9760 0000000000000000 0000000000000018 0000000000000000
MALLOC  000001B5927E99A0 0000000000000000 0000000000000018 0000000000000000
MALLOC  000001B5927E99C0 0000000000000000 0000000000000018 0000000000000000
MALLOC  000001B5927E99E0 0000000000000000 0000000000000018 0000000000000000
MALLOC  000001B5927E9A00 0000000000000000 0000000000000018 0000000000000000
MALLOC  000001B5927E9A60 0000000000000000 0000000000000018 0000000000000000
MALLOC  000001B5927E9AC0 0000000000000000 0000000000000018 0000000000000000
MALLOC  000001B5927E9E20 0000000000000000 0000000000000018 0000000000000000
MALLOC  000001B5927E9AE0 0000000000000000 0000000000000018 0000000000000000
MALLOC  000001B5927E98C0 0000000000000000 0000000000000018 0000000000000000
MALLOC  000001B5927E9880 0000000000000000 0000000000000018 0000000000000000
MALLOC  000001B5927E97A0 0000000000000000 0000000000000018 0000000000000000
MALLOC  000001B5927E9E40 0000000000000000 0000000000000018 0000000000000000
MALLOC  000001B5927E9B00 0000000000000000 0000000000000018 0000000000000000
MALLOC  000001B5927E9B20 0000000000000000 0000000000000018 0000000000000000
MALLOC  000001B5927E9C00 0000000000000000 0000000000000018 0000000000000000
MALLOC  000001B5927E9780 0000000000000000 0000000000000018 0000000000000000
MALLOC  000001B5927E9740 0000000000000000 0000000000000018 0000000000000000
MALLOC  000001B5927E9B80 0000000000000000 0000000000000018 0000000000000000
MALLOC  000001B5927E9E60 0000000000000000 0000000000000018 0000000000000000
MALLOC  000001B5927E9C20 0000000000000000 0000000000000018 0000000000000000
MALLOC  000001B5927E9C40 0000000000000000 0000000000000018 0000000000000000
MALLOC  000001B5927E9E80 0000000000000000 0000000000000018 0000000000000000
MALLOC  000001B5927E97C0 0000000000000000 0000000000000018 0000000000000000
MALLOC  000001B5927E9820 0000000000000000 0000000000000018 0000000000000000
MALLOC  000001B5927E9CA0 0000000000000000 0000000000000018 0000000000000000
MALLOC  000001B5927E9C60 0000000000000000 0000000000000018 0000000000000000
MALLOC  000001B5927E9D40 0000000000000000 0000000000000018 0000000000000000
MALLOC  000001B5927E9EA0 0000000000000000 0000000000000018 0000000000000000
MALLOC  000001B5927E9C80 0000000000000000 0000000000000018 0000000000000000
MALLOC  000001B5927E9F20 0000000000000000 0000000000000018 0000000000000000
MALLOC  000001B5927E9CC0 0000000000000000 0000000000000018 0000000000000000
MALLOC  000001B5927E9CE0 0000000000000000 0000000000000018 0000000000000000
MALLOC  000001B5927E9EE0 0000000000000000 0000000000000018 0000000000000000
MALLOC  000001B5927E9D60 0000000000000000 0000000000000018 0000000000000000
MALLOC  000001B5927E9EC0 0000000000000000 0000000000000018 0000000000000000
MALLOC  000001B5927E9F00 0000000000000000 0000000000000018 0000000000000000
MALLOC  000001B5927EA680 0000000000000000 0000000000000018 0000000000000000
MALLOC  000001B5927EA0E0 0000000000000000 0000000000000018 0000000000000000
MALLOC  000001B5927EA140 0000000000000000 0000000000000018 0000000000000000
MALLOC  000001B5927EA0A0 0000000000000000 0000000000000018 0000000000000000
MALLOC  000001B5927EA000 0000000000000000 0000000000000018 0000000000000000
MALLOC  000001B5927EA240 0000000000000000 0000000000000018 0000000000000000
MALLOC  000001B5927EA4C0 0000000000000000 0000000000000018 0000000000000000
MALLOC  000001B5927EA340 0000000000000000 0000000000000018 0000000000000000
MALLOC  000001B5927EA360 0000000000000000 0000000000000018 0000000000000000
MALLOC  000001B5927EA5C0 0000000000000000 0000000000000018 0000000000000000
MALLOC  000001B5927EA3E0 0000000000000000 0000000000000018 0000000000000000
MALLOC  000001B5927EA320 0000000000000000 0000000000000018 0000000000000000
MALLOC  000001B5927EA040 0000000000000000 0000000000000018 0000000000000000
MALLOC  000001B5927EA1C0 0000000000000000 0000000000000018 0000000000000000
MALLOC  000001B5927EA080 0000000000000000 0000000000000018 0000000000000000
MALLOC  000001B5927EA2A0 0000000000000000 0000000000000018 0000000000000000
MALLOC  000001B5927EA3C0 0000000000000000 0000000000000018 0000000000000000
MALLOC  000001B5927EA4E0 0000000000000000 0000000000000018 0000000000000000
MALLOC  000001B5927EA380 0000000000000000 0000000000000018 0000000000000000
MALLOC  000001B5927EA100 0000000000000000 0000000000000018 0000000000000000
MALLOC  000001B5927EA3A0 0000000000000000 0000000000000018 0000000000000000
MALLOC  000001B5927EA020 0000000000000000 0000000000000018 0000000000000000
MALLOC  000001B5927EA6A0 0000000000000000 0000000000000018 0000000000000000
MALLOC  000001B5927EA260 0000000000000000 0000000000000018 0000000000000000
MALLOC  000001B5927EA060 0000000000000000 0000000000000018 0000000000000000
MALLOC  000001B5927EA640 0000000000000000 0000000000000018 0000000000000000
MALLOC  000001B5927EA220 0000000000000000 0000000000000018 0000000000000000
MALLOC  000001B5927EA400 0000000000000000 0000000000000018 0000000000000000
MALLOC  000001B5927EA180 0000000000000000 0000000000000018 0000000000000000
MALLOC  000001B5927EA660 0000000000000000 0000000000000018 0000000000000000
MALLOC  000001B5927EA0C0 0000000000000000 0000000000000018 0000000000000000
MALLOC  000001B5927EA720 0000000000000000 0000000000000018 0000000000000000
MALLOC  000001B5927EA2C0 0000000000000000 0000000000000018 0000000000000000
MALLOC  000001B5927EA120 0000000000000000 0000000000000018 0000000000000000
MALLOC  000001B5927EA6C0 0000000000000000 0000000000000018 0000000000000000
MALLOC  000001B5927EA1E0 0000000000000000 0000000000000018 0000000000000000
MALLOC  000001B5927EA700 0000000000000000 0000000000000018 0000000000000000
MALLOC  000001B5927EA280 0000000000000000 0000000000000018 0000000000000000
MALLOC  000001B5927EA580 0000000000000000 0000000000000018 0000000000000000
MALLOC  000001B5927EA2E0 0000000000000000 0000000000000018 0000000000000000
MALLOC  000001B5927EA160 0000000000000000 0000000000000018 0000000000000000
MALLOC  000001B5927EA480 0000000000000000 0000000000000018 0000000000000000
MALLOC  000001B5927EA300 0000000000000000 0000000000000018 0000000000000000
MALLOC  000001B5927EA560 0000000000000000 0000000000000018 0000000000000000
MALLOC  000001B5927EA6E0 0000000000000000 0000000000000018 0000000000000000
MALLOC  000001B5927EA1A0 0000000000000000 0000000000000018 0000000000000000
MALLOC  000001B5927E9F80 0000000000000000 0000000000000018 0000000000000000
MALLOC  000001B5927E9FA0 0000000000000000 0000000000000018 0000000000000000
MALLOC  000001B5927EA200 0000000000000000 0000000000000018 0000000000000000
MALLOC  000001B5927EA420 0000000000000000 0000000000000018 0000000000000000
MALLOC  000001B5927EA440 0000000000000000 0000000000000018 0000000000000000
MALLOC  000001B5927EA460 0000000000000000 0000000000000018 0000000000000000
MALLOC  000001B5927EA4A0 0000000000000000 0000000000000018 0000000000000000
MALLOC  000001B5927EA500 0000000000000000 0000000000000018 0000000000000000
MALLOC  000001B5927EA520 0000000000000000 0000000000000018 0000000000000000
MALLOC  000001B5927EA540 0000000000000000 0000000000000018 0000000000000000
MALLOC  000001B5927EA5A0 0000000000000000 0000000000000018 0000000000000000
MALLOC  000001B5927EA5E0 0000000000000000 0000000000000018 0000000000000000
MALLOC  000001B5927EA600 0000000000000000 0000000000000018 0000000000000000
MALLOC  000001B5927EA620 0000000000000000 0000000000000018 0000000000000000
MALLOC  000001B5927E9F40 0000000000000000 0000000000000018 0000000000000000
MALLOC  000001B5927E9F60 0000000000000000 0000000000000018 0000000000000000
MALLOC  000001B5927E9FC0 0000000000000000 0000000000000018 0000000000000000
MALLOC  000001B5927E9FE0 0000000000000000 0000000000000018 0000000000000000
MALLOC  000001B5927EA820 0000000000000000 0000000000000018 0000000000000000
MALLOC  000001B5927EA9C0 0000000000000000 0000000000000018 0000000000000000
MALLOC  000001B5927EAB60 0000000000000000 0000000000000018 0000000000000000
MALLOC  000001B5927EAEC0 0000000000000000 0000000000000018 0000000000000000
MALLOC  000001B5927EAAE0 0000000000000000 0000000000000018 0000000000000000
MALLOC  000001B5927EA9A0 0000000000000000 0000000000000018 0000000000000000
MALLOC  000001B5927EADE0 0000000000000000 0000000000000018 0000000000000000
MALLOC  000001B5927EAC40 0000000000000000 0000000000000018 0000000000000000
MALLOC  000001B5927EAB80 0000000000000000 0000000000000018 0000000000000000
MALLOC  000001B5927EA880 0000000000000000 0000000000000018 0000000000000000
MALLOC  000001B5927EA860 0000000000000000 0000000000000018 0000000000000000
MALLOC  000001B5927EA8A0 0000000000000000 0000000000000018 0000000000000000
MALLOC  000001B5927EAA80 0000000000000000 0000000000000018 0000000000000000
MALLOC  000001B5927EAAA0 0000000000000000 0000000000000018 0000000000000000
MALLOC  000001B5927EAE00 0000000000000000 0000000000000018 0000000000000000
MALLOC  000001B5927EAF20 0000000000000000 0000000000000018 0000000000000000
MALLOC  000001B5927EAAC0 0000000000000000 0000000000000018 0000000000000000
MALLOC  000001B5927EACC0 0000000000000000 0000000000000018 0000000000000000
MALLOC  000001B5927EA740 0000000000000000 0000000000000018 0000000000000000
MALLOC  000001B5927EA800 0000000000000000 0000000000000018 0000000000000000
MALLOC  000001B5927EAB00 0000000000000000 0000000000000018 0000000000000000
MALLOC  000001B5927EAC00 0000000000000000 0000000000000018 0000000000000000
MALLOC  000001B5927EAB20 0000000000000000 0000000000000018 0000000000000000
MALLOC  000001B5927EABA0 0000000000000000 0000000000000018 0000000000000000
MALLOC  000001B5927EA8C0 0000000000000000 0000000000000018 0000000000000000
MALLOC  000001B5927EABE0 0000000000000000 0000000000000018 0000000000000000
MALLOC  000001B5927EAEA0 0000000000000000 0000000000000018 0000000000000000
MALLOC  000001B5927EA760 0000000000000000 0000000000000018 0000000000000000
MALLOC  000001B5927EA7E0 0000000000000000 0000000000000018 0000000000000000
MALLOC  000001B5927EABC0 0000000000000000 0000000000000018 0000000000000000
MALLOC  000001B5927EAC80 0000000000000000 0000000000000018 0000000000000000
MALLOC  000001B5927EA840 0000000000000000 0000000000000018 0000000000000000
MALLOC  000001B5927EA8E0 0000000000000000 0000000000000018 0000000000000000
MALLOC  000001B5927EAD20 0000000000000000 0000000000000018 0000000000000000
MALLOC  000001B5927EACA0 0000000000000000 0000000000000018 0000000000000000
MALLOC  000001B5927EA900 0000000000000000 0000000000000018 0000000000000000
MALLOC  000001B5927EAC20 0000000000000000 0000000000000018 0000000000000000
MALLOC  000001B5927EAB40 0000000000000000 0000000000000018 0000000000000000
MALLOC  000001B5927EACE0 0000000000000000 0000000000000018 0000000000000000
MALLOC  000001B5927EA920 0000000000000000 0000000000000018 0000000000000000
MALLOC  000001B5927EA940 0000000000000000 0000000000000018 0000000000000000
MALLOC  000001B5927EAC60 0000000000000000 0000000000000018 0000000000000000
MALLOC  000001B5927EAD00 0000000000000000 0000000000000018 0000000000000000
MALLOC  000001B5927EAD40 0000000000000000 0000000000000018 0000000000000000
MALLOC  000001B5927EAD60 0000000000000000 0000000000000018 0000000000000000
MALLOC  000001B5927EA780 0000000000000000 0000000000000018 0000000000000000
MALLOC  000001B5927EA9E0 0000000000000000 0000000000000018 0000000000000000
MALLOC  000001B5927EAA60 0000000000000000 0000000000000018 0000000000000000
MALLOC  000001B5927EAD80 0000000000000000 0000000000000018 0000000000000000
MALLOC  000001B5927EAEE0 0000000000000000 0000000000000018 0000000000000000
MALLOC  000001B5927EADA0 0000000000000000 0000000000000018 0000000000000000
MALLOC  000001B5927EA960 0000000000000000 0000000000000018 0000000000000000
MALLOC  000001B5927EAE80 0000000000000000 0000000000000018 0000000000000000
MALLOC  000001B5927EAA00 0000000000000000 0000000000000018 0000000000000000
MALLOC  000001B5927EA7A0 0000000000000000 0000000000000018 0000000000000000
MALLOC  000001B5927EADC0 0000000000000000 0000000000000018 0000000000000000
MALLOC  000001B5927EAA40 0000000000000000 0000000000000018 0000000000000000
MALLOC  000001B5927EAE20 0000000000000000 0000000000000018 0000000000000000
MALLOC  000001B5927EAE40 0000000000000000 0000000000000018 0000000000000000
MALLOC  000001B5927EAE60 0000000000000000 0000000000000018 0000000000000000
MALLOC  000001B5927EA980 0000000000000000 0000000000000018 0000000000000000
MALLOC  000001B5927EAF00 0000000000000000 0000000000000018 0000000000000000
MALLOC  000001B5927EA7C0 0000000000000000 0000000000000018 0000000000000000
MALLOC  000001B5927EAA20 0000000000000000 0000000000000018 0000000000000000
MALLOC  000001B5927EB420 0000000000000000 0000000000000018 0000000000000000
MALLOC  000001B5927EB440 0000000000000000 0000000000000018 0000000000000000
MALLOC  000001B5927EB080 0000000000000000 0000000000000018 0000000000000000
MALLOC  000001B5927EB240 0000000000000000 0000000000000018 0000000000000000
MALLOC  000001B5927EB040 0000000000000000 0000000000000018 0000000000000000
MALLOC  000001B5927EB460 0000000000000000 0000000000000018 0000000000000000
MALLOC  000001B5927EB0C0 0000000000000000 0000000000000018 0000000000000000
MALLOC  000001B5927EB480 0000000000000000 0000000000000018 0000000000000000
MALLOC  000001B5927EB3A0 0000000000000000 0000000000000018 0000000000000000
MALLOC  000001B5927EB0A0 0000000000000000 0000000000000018 0000000000000000
MALLOC  000001B5927EB4A0 0000000000000000 0000000000000018 0000000000000000
MALLOC  000001B5927EB5E0 0000000000000000 0000000000000018 0000000000000000
MALLOC  000001B5927EB4C0 0000000000000000 0000000000000018 0000000000000000
MALLOC  000001B5927EB5A0 0000000000000000 0000000000000018 0000000000000000
MALLOC  000001B5927EB0E0 0000000000000000 0000000000000018 0000000000000000
MALLOC  000001B5927EB2A0 0000000000000000 0000000000000018 0000000000000000
MALLOC  000001B5927EB360 0000000000000000 0000000000000018 0000000000000000
MALLOC  000001B5927EB220 0000000000000000 0000000000000018 0000000000000000
MALLOC  000001B5927EB100 0000000000000000 0000000000000018 0000000000000000
MALLOC  000001B5927EB120 0000000000000000 0000000000000018 0000000000000000
MALLOC  000001B5927EB140 0000000000000000 0000000000000018 0000000000000000
MALLOC  000001B5927EB4E0 0000000000000000 0000000000000018 0000000000000000
MALLOC  000001B5927EB280 0000000000000000 0000000000000018 0000000000000000
MALLOC  000001B5927EB700 0000000000000000 0000000000000018 0000000000000000
MALLOC  000001B5927EB160 0000000000000000 0000000000000018 0000000000000000
MALLOC  000001B5927EAFC0 0000000000000000 0000000000000018 0000000000000000
MALLOC  000001B5927EB3C0 0000000000000000 0000000000000018 0000000000000000
MALLOC  000001B5927EB500 0000000000000000 0000000000000018 0000000000000000
MALLOC  000001B5927EB520 0000000000000000 0000000000000018 0000000000000000
MALLOC  000001B5927EAF80 0000000000000000 0000000000000018 0000000000000000
MALLOC  000001B5927EB1E0 0000000000000000 0000000000000018 0000000000000000
MALLOC  000001B5927EB260 0000000000000000 0000000000000018 0000000000000000
MALLOC  000001B5927EB2C0 0000000000000000 0000000000000018 0000000000000000
MALLOC  000001B5927EB6E0 0000000000000000 0000000000000018 0000000000000000
MALLOC  000001B5927EB540 0000000000000000 0000000000000018 0000000000000000
MALLOC  000001B5927EAFE0 0000000000000000 0000000000000018 0000000000000000
MALLOC  000001B5927EB680 0000000000000000 0000000000000018 0000000000000000
MALLOC  000001B5927EB200 0000000000000000 0000000000000018 0000000000000000
MALLOC  000001B5927EAF60 0000000000000000 0000000000000018 0000000000000000
MALLOC  000001B5927EB380 0000000000000000 0000000000000018 0000000000000000
MALLOC  000001B5927EB2E0 0000000000000000 0000000000000018 0000000000000000
MALLOC  000001B5927EB560 0000000000000000 0000000000000018 0000000000000000
MALLOC  000001B5927EB320 0000000000000000 0000000000000018 0000000000000000
MALLOC  000001B5927EB660 0000000000000000 0000000000000018 0000000000000000
MALLOC  000001B5927EB180 0000000000000000 0000000000000018 0000000000000000
MALLOC  000001B5927EB340 0000000000000000 0000000000000018 0000000000000000
MALLOC  000001B5927EB300 0000000000000000 0000000000000018 0000000000000000
MALLOC  000001B5927EB580 0000000000000000 0000000000000018 0000000000000000
MALLOC  000001B5927EB5C0 0000000000000000 0000000000000018 0000000000000000
MALLOC  000001B5927EB600 0000000000000000 0000000000000018 0000000000000000
MALLOC  000001B5927EB1A0 0000000000000000 0000000000000018 0000000000000000
MALLOC  000001B5927EB3E0 0000000000000000 0000000000000018 0000000000000000
MALLOC  000001B5927EB060 0000000000000000 0000000000000018 0000000000000000
MALLOC  000001B5927EB620 0000000000000000 0000000000000018 0000000000000000
MALLOC  000001B5927EB1C0 0000000000000000 0000000000000018 0000000000000000
MALLOC  000001B5927EB640 0000000000000000 0000000000000018 0000000000000000
MALLOC  000001B5927EB400 0000000000000000 0000000000000018 0000000000000000
MALLOC  000001B5927EB6A0 0000000000000000 0000000000000018 0000000000000000
MALLOC  000001B5927EB6C0 0000000000000000 0000000000000018 0000000000000000
MALLOC  000001B5927EB720 0000000000000000 0000000000000018 0000000000000000
MALLOC  000001B5927EAF40 0000000000000000 0000000000000018 0000000000000000
MALLOC  000001B5927EAFA0 0000000000000000 0000000000000018 0000000000000000
MALLOC  000001B5927EB000 0000000000000000 0000000000000018 0000000000000000
MALLOC  000001B5927EB020 0000000000000000 0000000000000018 0000000000000000
MALLOC  000001B5927EBB60 0000000000000000 0000000000000018 0000000000000000
MALLOC  000001B5927EBA20 0000000000000000 0000000000000018 0000000000000000
MALLOC  000001B5927EB900 0000000000000000 0000000000000018 0000000000000000
MALLOC  000001B5927EB8A0 0000000000000000 0000000000000018 0000000000000000
MALLOC  000001B5927EB8C0 0000000000000000 0000000000000018 0000000000000000
MALLOC  000001B5927EBCA0 0000000000000000 0000000000000018 0000000000000000
MALLOC  000001B5927EBA80 0000000000000000 0000000000000018 0000000000000000
MALLOC  000001B5927EBF00 0000000000000000 0000000000000018 0000000000000000
MALLOC  000001B5927EB8E0 0000000000000000 0000000000000018 0000000000000000
MALLOC  000001B5927EB7C0 0000000000000000 0000000000000018 0000000000000000
MALLOC  000001B5927EBB80 0000000000000000 0000000000000018 0000000000000000
MALLOC  000001B5927EB740 0000000000000000 0000000000000018 0000000000000000
MALLOC  000001B5927EBBA0 0000000000000000 0000000000000018 0000000000000000
MALLOC  000001B5927EBD80 0000000000000000 0000000000000018 0000000000000000
MALLOC  000001B5927EB860 0000000000000000 0000000000000018 0000000000000000
MALLOC  000001B5927EBEC0 0000000000000000 0000000000000018 0000000000000000
MALLOC  000001B5927EB940 0000000000000000 0000000000000018 0000000000000000
MALLOC  000001B5927EBC00 0000000000000000 0000000000000018 0000000000000000
MALLOC  000001B5927EBE20 0000000000000000 0000000000000018 0000000000000000
MALLOC  000001B5927EBDA0 0000000000000000 0000000000000018 0000000000000000
MALLOC  000001B5927EB780 0000000000000000 0000000000000018 0000000000000000
MALLOC  000001B5927EBE40 0000000000000000 0000000000000018 0000000000000000
MALLOC  000001B5927EB800 0000000000000000 0000000000000018 0000000000000000
MALLOC  000001B5927EBDE0 0000000000000000 0000000000000018 0000000000000000
MALLOC  000001B5927EBD40 0000000000000000 0000000000000018 0000000000000000
MALLOC  000001B5927EBA40 0000000000000000 0000000000000018 0000000000000000
MALLOC  000001B5927EB920 0000000000000000 0000000000000018 0000000000000000
MALLOC  000001B5927EB960 0000000000000000 0000000000000018 0000000000000000
MALLOC  000001B5927EB9E0 0000000000000000 0000000000000018 0000000000000000
MALLOC  000001B5927EB980 0000000000000000 0000000000000018 0000000000000000
MALLOC  000001B5927EBBC0 0000000000000000 0000000000000018 0000000000000000
MALLOC  000001B5927EB7E0 0000000000000000 0000000000000018 0000000000000000
MALLOC  000001B5927EBE60 0000000000000000 0000000000000018 0000000000000000
MALLOC  000001B5927EBD60 0000000000000000 0000000000000018 0000000000000000
MALLOC  000001B5927EBD00 0000000000000000 0000000000000018 0000000000000000
MALLOC  000001B5927EBB00 0000000000000000 0000000000000018 0000000000000000
MALLOC  000001B5927EB760 0000000000000000 0000000000000018 0000000000000000
MALLOC  000001B5927EBC20 0000000000000000 0000000000000018 0000000000000000
MALLOC  000001B5927EBBE0 0000000000000000 0000000000000018 0000000000000000
MALLOC  000001B5927EBC40 0000000000000000 0000000000000018 0000000000000000
MALLOC  000001B5927EBF20 0000000000000000 0000000000000018 0000000000000000
MALLOC  000001B5927EBD20 0000000000000000 0000000000000018 0000000000000000
MALLOC  000001B5927EBAA0 0000000000000000 0000000000000018 0000000000000000
MALLOC  000001B5927EBE80 0000000000000000 0000000000000018 0000000000000000
MALLOC  000001B5927EB880 0000000000000000 0000000000000018 0000000000000000
MALLOC  000001B5927EB9A0 0000000000000000 0000000000000018 0000000000000000
MALLOC  000001B5927EB7A0 0000000000000000 0000000000000018 0000000000000000
MALLOC  000001B5927EBC60 0000000000000000 0000000000000018 0000000000000000
MALLOC  000001B5927EBDC0 0000000000000000 0000000000000018 0000000000000000
MALLOC  000001B5927EBE00 0000000000000000 0000000000000018 0000000000000000
MALLOC  000001B5927EBEA0 0000000000000000 0000000000000018 0000000000000000
MALLOC  000001B5927EBEE0 0000000000000000 0000000000000018 0000000000000000
MALLOC  000001B5927EBAC0 0000000000000000 0000000000000018 0000000000000000
MALLOC  000001B5927EB820 0000000000000000 0000000000000018 0000000000000000
MALLOC  000001B5927EBA60 0000000000000000 0000000000000018 0000000000000000
MALLOC  000001B5927EB840 0000000000000000 0000000000000018 0000000000000000
MALLOC  000001B5927EB9C0 0000000000000000 0000000000000018 0000000000000000
MALLOC  000001B5927EBA00 0000000000000000 0000000000000018 0000000000000000
MALLOC  000001B5927EBC80 0000000000000000 0000000000000018 0000000000000000
MALLOC  000001B5927EBCC0 0000000000000000 0000000000000018 0000000000000000
MALLOC  000001B5927EBCE0 0000000000000000 0000000000000018 0000000000000000
MALLOC  000001B5927EBAE0 0000000000000000 0000000000000018 0000000000000000
MALLOC  000001B5927EBB20 0000000000000000 0000000000000018 0000000000000000
MALLOC  000001B5927EBB40 0000000000000000 0000000000000018 0000000000000000
MALLOC  000001B5927EC0E0 0000000000000000 0000000000000018 0000000000000000
MALLOC  000001B5927EC3E0 0000000000000000 0000000000000018 0000000000000000
MALLOC  000001B5927EC100 0000000000000000 0000000000000018 0000000000000000
MALLOC  000001B5927EC160 0000000000000000 0000000000000018 0000000000000000
MALLOC  000001B5927EC340 0000000000000000 0000000000000018 0000000000000000
MALLOC  000001B5927EC060 0000000000000000 0000000000000018 0000000000000000
MALLOC  000001B5927EC120 0000000000000000 0000000000000018 0000000000000000
MALLOC  000001B5927EC000 0000000000000000 0000000000000018 0000000000000000
MALLOC  000001B5927EC500 0000000000000000 0000000000000018 0000000000000000
MALLOC  000001B5927EC220 0000000000000000 0000000000000018 0000000000000000
MALLOC  000001B5927EC140 0000000000000000 0000000000000018 0000000000000000
MALLOC  000001B5927EBF60 0000000000000000 0000000000000018 0000000000000000
MALLOC  000001B5927EC180 0000000000000000 0000000000000018 0000000000000000
MALLOC  000001B5927EC1A0 0000000000000000 0000000000000018 0000000000000000
MALLOC  000001B5927EC1C0 0000000000000000 0000000000000018 0000000000000000
MALLOC  000001B5927EC1E0 0000000000000000 0000000000000018 0000000000000000
MALLOC  000001B5927EC200 0000000000000000 0000000000000018 0000000000000000
MALLOC  000001B5927EC240 0000000000000000 0000000000000018 0000000000000000
MALLOC  000001B5927EC5C0 0000000000000000 0000000000000018 0000000000000000
MALLOC  000001B5927EC260 0000000000000000 0000000000000018 0000000000000000
MALLOC  000001B5927EC0A0 0000000000000000 0000000000000018 0000000000000000
MALLOC  000001B5927EC040 0000000000000000 0000000000000018 0000000000000000
MALLOC  000001B5927EBFA0 0000000000000000 0000000000000018 0000000000000000
MALLOC  000001B5927EC580 0000000000000000 0000000000000018 0000000000000000
MALLOC  000001B5927EC280 0000000000000000 0000000000000018 0000000000000000
MALLOC  000001B5927EC2C0 0000000000000000 0000000000000018 0000000000000000
MALLOC  000001B5927EC400 0000000000000000 0000000000000018 0000000000000000
MALLOC  000001B5927EBF80 0000000000000000 0000000000000018 0000000000000000
MALLOC  000001B5927EBF40 0000000000000000 0000000000000018 0000000000000000
MALLOC  000001B5927EC2A0 0000000000000000 0000000000000018 0000000000000000
MALLOC  000001B5927EC5A0 0000000000000000 0000000000000018 0000000000000000
MALLOC  000001B5927EC2E0 0000000000000000 0000000000000018 0000000000000000
MALLOC  000001B5927EC300 0000000000000000 0000000000000018 0000000000000000
MALLOC  000001B5927EC5E0 0000000000000000 0000000000000018 0000000000000000
MALLOC  000001B5927EBFC0 0000000000000000 0000000000000018 0000000000000000
MALLOC  000001B5927EC020 0000000000000000 0000000000000018 0000000000000000
