FUNC    out pointer      in pointer       alloc size       fill num        END
MALLOC  00000195521FD8C0 0000000000000000 0000000000000018 0000000000000000
MALLOC  00000195521FD780 0000000000000000 0000000000000018 0000000000000000
FREE    0000000000000000 00000195521FD780 0000000000000000 0000000000000000
FREE    0000000000000000 00000195521FD8C0 0000000000000000 0000000000000000
